{
  "_format": "hh-sol-artifact-1",
  "contractName": "RewardVault",
  "sourceName": "contracts/RewardVault.sol",
  "abi": [
    {
      "inputs": [],
      "name": "AccessControlBadConfirmation",
      "type": "error"
    },
    {
      "inputs": [
        {
          "internalType": "address",
          "name": "account",
          "type": "address"
        },
        {
          "internalType": "bytes32",
          "name": "neededRole",
          "type": "bytes32"
        }
      ],
      "name": "AccessControlUnauthorizedAccount",
      "type": "error"
    },
    {
      "inputs": [
        {
          "internalType": "address",
          "name": "target",
          "type": "address"
        }
      ],
      "name": "AddressEmptyCode",
      "type": "error"
    },
    {
      "inputs": [
        {
          "internalType": "address",
          "name": "account",
          "type": "address"
        }
      ],
      "name": "AddressInsufficientBalance",
      "type": "error"
    },
    {
      "inputs": [],
      "name": "ECDSAInvalidSignature",
      "type": "error"
    },
    {
      "inputs": [
        {
          "internalType": "uint256",
          "name": "length",
          "type": "uint256"
        }
      ],
      "name": "ECDSAInvalidSignatureLength",
      "type": "error"
    },
    {
      "inputs": [
        {
          "internalType": "bytes32",
          "name": "s",
          "type": "bytes32"
        }
      ],
      "name": "ECDSAInvalidSignatureS",
      "type": "error"
    },
    {
      "inputs": [],
      "name": "EnforcedPause",
      "type": "error"
    },
    {
      "inputs": [],
      "name": "ExpectedPause",
      "type": "error"
    },
    {
      "inputs": [],
      "name": "FailedInnerCall",
      "type": "error"
    },
    {
      "inputs": [],
      "name": "InvalidInitialization",
      "type": "error"
    },
    {
      "inputs": [],
      "name": "NotInitializing",
      "type": "error"
    },
    {
      "inputs": [
        {
          "internalType": "address",
          "name": "owner",
          "type": "address"
        }
      ],
      "name": "OwnableInvalidOwner",
      "type": "error"
    },
    {
      "inputs": [
        {
          "internalType": "address",
          "name": "account",
          "type": "address"
        }
      ],
      "name": "OwnableUnauthorizedAccount",
      "type": "error"
    },
    {
      "inputs": [],
      "name": "ReentrancyGuardReentrantCall",
      "type": "error"
    },
    {
      "inputs": [
        {
          "internalType": "address",
          "name": "token",
          "type": "address"
        }
      ],
      "name": "SafeERC20FailedOperation",
      "type": "error"
    },
    {
      "anonymous": false,
      "inputs": [],
      "name": "EIP712DomainChanged",
      "type": "event"
    },
    {
      "anonymous": false,
      "inputs": [
        {
          "indexed": false,
          "internalType": "uint64",
          "name": "version",
          "type": "uint64"
        }
      ],
      "name": "Initialized",
      "type": "event"
    },
    {
      "anonymous": false,
      "inputs": [
        {
          "indexed": true,
          "internalType": "address",
          "name": "previousOwner",
          "type": "address"
        },
        {
          "indexed": true,
          "internalType": "address",
          "name": "newOwner",
          "type": "address"
        }
      ],
      "name": "OwnershipTransferred",
      "type": "event"
    },
    {
      "anonymous": false,
      "inputs": [
        {
          "indexed": false,
          "internalType": "address",
          "name": "account",
          "type": "address"
        }
      ],
      "name": "Paused",
      "type": "event"
    },
    {
      "anonymous": false,
      "inputs": [
        {
          "indexed": true,
          "internalType": "uint256",
          "name": "claimId",
          "type": "uint256"
        },
        {
          "indexed": true,
          "internalType": "uint256",
          "name": "projectId",
          "type": "uint256"
        },
        {
          "indexed": false,
          "internalType": "address",
          "name": "token",
          "type": "address"
        },
        {
          "indexed": false,
          "internalType": "uint256",
          "name": "amount",
          "type": "uint256"
        },
        {
          "indexed": false,
          "internalType": "address",
          "name": "recipient",
          "type": "address"
        },
        {
          "indexed": false,
          "internalType": "uint256",
          "name": "expireTime",
          "type": "uint256"
        }
      ],
      "name": "RewardsClaimed",
      "type": "event"
    },
    {
      "anonymous": false,
      "inputs": [
        {
          "indexed": true,
          "internalType": "bytes32",
          "name": "role",
          "type": "bytes32"
        },
        {
          "indexed": true,
          "internalType": "bytes32",
          "name": "previousAdminRole",
          "type": "bytes32"
        },
        {
          "indexed": true,
          "internalType": "bytes32",
          "name": "newAdminRole",
          "type": "bytes32"
        }
      ],
      "name": "RoleAdminChanged",
      "type": "event"
    },
    {
      "anonymous": false,
      "inputs": [
        {
          "indexed": true,
          "internalType": "bytes32",
          "name": "role",
          "type": "bytes32"
        },
        {
          "indexed": true,
          "internalType": "address",
          "name": "account",
          "type": "address"
        },
        {
          "indexed": true,
          "internalType": "address",
          "name": "sender",
          "type": "address"
        }
      ],
      "name": "RoleGranted",
      "type": "event"
    },
    {
      "anonymous": false,
      "inputs": [
        {
          "indexed": true,
          "internalType": "bytes32",
          "name": "role",
          "type": "bytes32"
        },
        {
          "indexed": true,
          "internalType": "address",
          "name": "account",
          "type": "address"
        },
        {
          "indexed": true,
          "internalType": "address",
          "name": "sender",
          "type": "address"
        }
      ],
      "name": "RoleRevoked",
      "type": "event"
    },
    {
      "anonymous": false,
      "inputs": [
        {
          "indexed": true,
          "internalType": "uint256",
          "name": "depositId",
          "type": "uint256"
        },
        {
          "indexed": true,
          "internalType": "uint256",
          "name": "projectId",
          "type": "uint256"
        },
        {
          "indexed": false,
          "internalType": "address",
          "name": "token",
          "type": "address"
        },
        {
          "indexed": false,
          "internalType": "uint256",
          "name": "amount",
          "type": "uint256"
        },
        {
          "indexed": false,
          "internalType": "uint256",
          "name": "expireTime",
          "type": "uint256"
        }
      ],
      "name": "TokenDeposited",
      "type": "event"
    },
    {
      "anonymous": false,
      "inputs": [
        {
          "indexed": true,
          "internalType": "uint256",
          "name": "withdrawId",
          "type": "uint256"
        },
        {
          "indexed": true,
          "internalType": "uint256",
          "name": "projectId",
          "type": "uint256"
        },
        {
          "indexed": false,
          "internalType": "address",
          "name": "token",
          "type": "address"
        },
        {
          "indexed": false,
          "internalType": "uint256",
          "name": "amount",
          "type": "uint256"
        },
        {
          "indexed": false,
          "internalType": "address",
          "name": "recipient",
          "type": "address"
        },
        {
          "indexed": false,
          "internalType": "uint256",
          "name": "expireTime",
          "type": "uint256"
        }
      ],
      "name": "TokenWithdrawed",
      "type": "event"
    },
    {
      "anonymous": false,
      "inputs": [
        {
          "indexed": false,
          "internalType": "address",
          "name": "withrawer",
          "type": "address"
        },
        {
          "indexed": false,
          "internalType": "address",
          "name": "recipient",
          "type": "address"
        },
        {
          "indexed": false,
          "internalType": "address",
          "name": "token",
          "type": "address"
        },
        {
          "indexed": false,
          "internalType": "uint256",
          "name": "amount",
          "type": "uint256"
        }
      ],
      "name": "TokenWithdrawedByAdmin",
      "type": "event"
    },
    {
      "anonymous": false,
      "inputs": [
        {
          "indexed": false,
          "internalType": "address",
          "name": "account",
          "type": "address"
        }
      ],
      "name": "Unpaused",
      "type": "event"
    },
    {
      "inputs": [],
      "name": "DEFAULT_ADMIN_ROLE",
      "outputs": [
        {
          "internalType": "bytes32",
          "name": "",
          "type": "bytes32"
        }
      ],
      "stateMutability": "view",
      "type": "function"
    },
    {
      "inputs": [],
      "name": "SIGNER",
      "outputs": [
        {
          "internalType": "bytes32",
          "name": "",
          "type": "bytes32"
        }
      ],
      "stateMutability": "view",
      "type": "function"
    },
    {
      "inputs": [
        {
          "components": [
            {
              "internalType": "uint256",
              "name": "claimId",
              "type": "uint256"
            },
            {
              "internalType": "uint256",
              "name": "projectId",
              "type": "uint256"
            },
            {
              "internalType": "address",
              "name": "token",
              "type": "address"
            },
            {
              "internalType": "uint256",
              "name": "amount",
              "type": "uint256"
            },
            {
              "internalType": "address",
              "name": "recipient",
              "type": "address"
            },
            {
              "internalType": "uint256",
              "name": "expireTime",
              "type": "uint256"
            },
            {
              "internalType": "bytes",
              "name": "signature",
              "type": "bytes"
            }
          ],
          "internalType": "struct IRewardVault.ClaimParam",
          "name": "claimParam",
          "type": "tuple"
        }
      ],
      "name": "claim",
      "outputs": [],
      "stateMutability": "nonpayable",
      "type": "function"
    },
    {
      "inputs": [
        {
          "components": [
            {
              "internalType": "uint256",
              "name": "depositId",
              "type": "uint256"
            },
            {
              "internalType": "uint256",
              "name": "projectId",
              "type": "uint256"
            },
            {
              "internalType": "address",
              "name": "token",
              "type": "address"
            },
            {
              "internalType": "uint256",
              "name": "amount",
              "type": "uint256"
            },
            {
              "internalType": "uint256",
              "name": "expireTime",
              "type": "uint256"
            },
            {
              "internalType": "bytes",
              "name": "signature",
              "type": "bytes"
            }
          ],
          "internalType": "struct IRewardVault.DepositParam",
          "name": "depositParam",
          "type": "tuple"
        }
      ],
      "name": "deposit",
      "outputs": [],
      "stateMutability": "payable",
      "type": "function"
    },
    {
      "inputs": [],
      "name": "eip712Domain",
      "outputs": [
        {
          "internalType": "bytes1",
          "name": "fields",
          "type": "bytes1"
        },
        {
          "internalType": "string",
          "name": "name",
          "type": "string"
        },
        {
          "internalType": "string",
          "name": "version",
          "type": "string"
        },
        {
          "internalType": "uint256",
          "name": "chainId",
          "type": "uint256"
        },
        {
          "internalType": "address",
          "name": "verifyingContract",
          "type": "address"
        },
        {
          "internalType": "bytes32",
          "name": "salt",
          "type": "bytes32"
        },
        {
          "internalType": "uint256[]",
          "name": "extensions",
          "type": "uint256[]"
        }
      ],
      "stateMutability": "view",
      "type": "function"
    },
    {
      "inputs": [
        {
          "internalType": "uint256",
          "name": "requestId",
          "type": "uint256"
        }
      ],
      "name": "getIsRequestIdUsed",
      "outputs": [
        {
          "internalType": "bool",
          "name": "",
          "type": "bool"
        }
      ],
      "stateMutability": "view",
      "type": "function"
    },
    {
      "inputs": [
        {
          "internalType": "bytes32",
          "name": "role",
          "type": "bytes32"
        }
      ],
      "name": "getRoleAdmin",
      "outputs": [
        {
          "internalType": "bytes32",
          "name": "",
          "type": "bytes32"
        }
      ],
      "stateMutability": "view",
      "type": "function"
    },
    {
      "inputs": [
        {
          "internalType": "uint256",
          "name": "projectId",
          "type": "uint256"
        },
        {
          "internalType": "address",
          "name": "token",
          "type": "address"
        }
      ],
      "name": "getTokenBalanceByProjectId",
      "outputs": [
        {
          "internalType": "uint256",
          "name": "",
          "type": "uint256"
        }
      ],
      "stateMutability": "view",
      "type": "function"
    },
    {
      "inputs": [
        {
          "internalType": "bytes32",
          "name": "role",
          "type": "bytes32"
        },
        {
          "internalType": "address",
          "name": "account",
          "type": "address"
        }
      ],
      "name": "grantRole",
      "outputs": [],
      "stateMutability": "nonpayable",
      "type": "function"
    },
    {
      "inputs": [
        {
          "internalType": "bytes32",
          "name": "role",
          "type": "bytes32"
        },
        {
          "internalType": "address",
          "name": "account",
          "type": "address"
        }
      ],
      "name": "hasRole",
      "outputs": [
        {
          "internalType": "bool",
          "name": "",
          "type": "bool"
        }
      ],
      "stateMutability": "view",
      "type": "function"
    },
    {
      "inputs": [
        {
          "internalType": "address",
          "name": "initialOwner",
          "type": "address"
        }
      ],
      "name": "initialize",
      "outputs": [],
      "stateMutability": "nonpayable",
      "type": "function"
    },
    {
      "inputs": [],
      "name": "owner",
      "outputs": [
        {
          "internalType": "address",
          "name": "",
          "type": "address"
        }
      ],
      "stateMutability": "view",
      "type": "function"
    },
    {
      "inputs": [],
      "name": "pause",
      "outputs": [],
      "stateMutability": "nonpayable",
      "type": "function"
    },
    {
      "inputs": [],
      "name": "paused",
      "outputs": [
        {
          "internalType": "bool",
          "name": "",
          "type": "bool"
        }
      ],
      "stateMutability": "view",
      "type": "function"
    },
    {
      "inputs": [],
      "name": "renounceOwnership",
      "outputs": [],
      "stateMutability": "nonpayable",
      "type": "function"
    },
    {
      "inputs": [
        {
          "internalType": "bytes32",
          "name": "role",
          "type": "bytes32"
        },
        {
          "internalType": "address",
          "name": "callerConfirmation",
          "type": "address"
        }
      ],
      "name": "renounceRole",
      "outputs": [],
      "stateMutability": "nonpayable",
      "type": "function"
    },
    {
      "inputs": [
        {
          "internalType": "bytes32",
          "name": "role",
          "type": "bytes32"
        },
        {
          "internalType": "address",
          "name": "account",
          "type": "address"
        }
      ],
      "name": "revokeRole",
      "outputs": [],
      "stateMutability": "nonpayable",
      "type": "function"
    },
    {
      "inputs": [
        {
          "internalType": "bytes4",
          "name": "interfaceId",
          "type": "bytes4"
        }
      ],
      "name": "supportsInterface",
      "outputs": [
        {
          "internalType": "bool",
          "name": "",
          "type": "bool"
        }
      ],
      "stateMutability": "view",
      "type": "function"
    },
    {
      "inputs": [
        {
          "internalType": "address",
          "name": "newOwner",
          "type": "address"
        }
      ],
      "name": "transferOwnership",
      "outputs": [],
      "stateMutability": "nonpayable",
      "type": "function"
    },
    {
      "inputs": [],
      "name": "unpause",
      "outputs": [],
      "stateMutability": "nonpayable",
      "type": "function"
    },
    {
      "inputs": [
        {
          "components": [
            {
              "internalType": "uint256",
              "name": "withdrawId",
              "type": "uint256"
            },
            {
              "internalType": "uint256",
              "name": "projectId",
              "type": "uint256"
            },
            {
              "internalType": "address",
              "name": "token",
              "type": "address"
            },
            {
              "internalType": "uint256",
              "name": "amount",
              "type": "uint256"
            },
            {
              "internalType": "address",
              "name": "recipient",
              "type": "address"
            },
            {
              "internalType": "uint256",
              "name": "expireTime",
              "type": "uint256"
            },
            {
              "internalType": "bytes",
              "name": "signature",
              "type": "bytes"
            }
          ],
          "internalType": "struct IRewardVault.WithdrawalParam",
          "name": "withdrawalParam",
          "type": "tuple"
        }
      ],
      "name": "withdraw",
      "outputs": [],
      "stateMutability": "nonpayable",
      "type": "function"
    },
    {
      "inputs": [
        {
          "internalType": "address",
          "name": "token",
          "type": "address"
        },
        {
          "internalType": "uint256",
          "name": "amount",
          "type": "uint256"
        },
        {
          "internalType": "address",
          "name": "recipient",
          "type": "address"
        }
      ],
      "name": "withdrawExcessTokens",
      "outputs": [],
      "stateMutability": "nonpayable",
      "type": "function"
    }
  ],
  "bytecode": "0x608060405234801561001057600080fd5b5061434b806100206000396000f3fe6080604052600436106101355760003560e01c806386cf14ae116100ab578063ae102a1b1161006f578063ae102a1b146103e7578063c4d66de814610424578063d547741f1461044d578063ddbb888914610476578063eede98811461049f578063f2fde38b146104c857610135565b806386cf14ae1461030f5780638da5cb5b146103385780638f39a8521461036357806391d148541461037f578063a217fddf146103bc57610135565b8063460f676c116100fd578063460f676c1461021d578063582abd121461025a5780635c975abb14610285578063715018a6146102b05780638456cb59146102c757806384b0196e146102de57610135565b806301ffc9a71461013a578063248a9ca3146101775780632f2ff15d146101b457806336568abe146101dd5780633f4ba83a14610206575b600080fd5b34801561014657600080fd5b50610161600480360381019061015c9190612f71565b6104f1565b60405161016e9190612fb9565b60405180910390f35b34801561018357600080fd5b5061019e6004803603810190610199919061300a565b61056b565b6040516101ab9190613046565b60405180910390f35b3480156101c057600080fd5b506101db60048036038101906101d691906130bf565b610599565b005b3480156101e957600080fd5b5061020460048036038101906101ff91906130bf565b6105bb565b005b34801561021257600080fd5b5061021b610636565b005b34801561022957600080fd5b50610244600480360381019061023f9190613135565b610648565b6040516102519190613184565b60405180910390f35b34801561026657600080fd5b5061026f6106a2565b60405161027c9190613046565b60405180910390f35b34801561029157600080fd5b5061029a6106c6565b6040516102a79190612fb9565b60405180910390f35b3480156102bc57600080fd5b506102c56106eb565b005b3480156102d357600080fd5b506102dc6106ff565b005b3480156102ea57600080fd5b506102f3610711565b6040516103069796959493929190613337565b60405180910390f35b34801561031b57600080fd5b50610336600480360381019061033191906133df565b610823565b005b34801561034457600080fd5b5061034d610cd4565b60405161035a9190613428565b60405180910390f35b61037d60048036038101906103789190613462565b610d0c565b005b34801561038b57600080fd5b506103a660048036038101906103a191906130bf565b611121565b6040516103b39190612fb9565b60405180910390f35b3480156103c857600080fd5b506103d161119a565b6040516103de9190613046565b60405180910390f35b3480156103f357600080fd5b5061040e600480360381019061040991906134ab565b6111a1565b60405161041b9190612fb9565b60405180910390f35b34801561043057600080fd5b5061044b600480360381019061044691906134d8565b6111cb565b005b34801561045957600080fd5b50610474600480360381019061046f91906130bf565b6113fb565b005b34801561048257600080fd5b5061049d60048036038101906104989190613524565b61141d565b005b3480156104ab57600080fd5b506104c660048036038101906104c1919061356d565b6118ce565b005b3480156104d457600080fd5b506104ef60048036038101906104ea91906134d8565b611999565b005b60007f7965db0b000000000000000000000000000000000000000000000000000000007bffffffffffffffffffffffffffffffffffffffffffffffffffffffff1916827bffffffffffffffffffffffffffffffffffffffffffffffffffffffff19161480610564575061056382611a1f565b5b9050919050565b600080610576611a89565b905080600001600084815260200190815260200160002060010154915050919050565b6105a28261056b565b6105ab81611ab1565b6105b58383611ac5565b50505050565b6105c3611bc6565b73ffffffffffffffffffffffffffffffffffffffff168173ffffffffffffffffffffffffffffffffffffffff1614610627576040517f6697b23200000000000000000000000000000000000000000000000000000000815260040160405180910390fd5b6106318282611bce565b505050565b61063e611cd0565b610646611d57565b565b600080600084815260200190815260200160002060008373ffffffffffffffffffffffffffffffffffffffff1673ffffffffffffffffffffffffffffffffffffffff16815260200190815260200160002054905092915050565b7f2aeb38be3df14d720aeb10a2de6df09b0fb3cd5c5ec256283a22d4593110ca4081565b6000806106d1611dc9565b90508060000160009054906101000a900460ff1691505090565b6106f3611cd0565b6106fd6000611df1565b565b610707611cd0565b61070f611ec8565b565b6000606080600080600060606000610727611f3a565b90506000801b816000015414801561074557506000801b8160010154145b610784576040517f08c379a000000000000000000000000000000000000000000000000000000000815260040161077b9061360c565b60405180910390fd5b61078c611f62565b610794612003565b46306000801b600067ffffffffffffffff8111156107b5576107b461362c565b5b6040519080825280602002602001820160405280156107e35781602001602082028036833780820191505090505b507f0f0000000000000000000000000000000000000000000000000000000000000095949392919097509750975097509750975097505090919293949596565b61082b6120a4565b6108336120fb565b8060a001354210610879576040517f08c379a0000000000000000000000000000000000000000000000000000000008152600401610870906136a7565b60405180910390fd5b60008060008360200135815260200190815260200160002060008360400160208101906108a691906134d8565b73ffffffffffffffffffffffffffffffffffffffff1673ffffffffffffffffffffffffffffffffffffffff168152602001908152602001600020549050816060013581101561092a576040517f08c379a000000000000000000000000000000000000000000000000000000000815260040161092190613713565b60405180910390fd5b60006109bb7ff7bf41d14fd0ff1192bfb1dfc33e3161d52079c1015bdf99fe4c9d027674fee08460000135856020013586604001602081019061096d91906134d8565b876060013588608001602081019061098591906134d8565b8960a001356040516020016109a09796959493929190613733565b6040516020818303038152906040528051906020012061213c565b9050600160008460000135815260200190815260200160002060009054906101000a900460ff1615610a22576040517f08c379a0000000000000000000000000000000000000000000000000000000008152600401610a19906137ee565b60405180910390fd5b610ab07f2aeb38be3df14d720aeb10a2de6df09b0fb3cd5c5ec256283a22d4593110ca40610aab858060c00190610a59919061381d565b8080601f016020809104026020016040519081016040528093929190818152602001838380828437600081840152601f19601f820116905080830192505050505050508461215690919063ffffffff16565b611121565b610aef576040517f08c379a0000000000000000000000000000000000000000000000000000000008152600401610ae6906138cc565b60405180910390fd5b60018060008560000135815260200190815260200160002060006101000a81548160ff0219169083151502179055506000610b3b846040016020810190610b3691906134d8565b612182565b9050610b70846080016020810190610b5391906134d8565b856040016020810190610b6691906134d8565b8660600135612195565b6000610b8d856040016020810190610b8891906134d8565b612182565b82610b98919061391b565b905080841015610bdd576040517f08c379a0000000000000000000000000000000000000000000000000000000008152600401610bd49061399b565b60405180910390fd5b8084610be9919061391b565b600080876020013581526020019081526020016000206000876040016020810190610c1491906134d8565b73ffffffffffffffffffffffffffffffffffffffff1673ffffffffffffffffffffffffffffffffffffffff16815260200190815260200160002081905550846020013585600001357ffc3c5396e9d3deb68be49549ab668592d1b8c31d11c284b480e53986614792ea876040016020810190610c9091906134d8565b8860600135896080016020810190610ca891906134d8565b8a60a00135604051610cbd94939291906139bb565b60405180910390a350505050610cd1612290565b50565b600080610cdf6122a9565b90508060000160009054906101000a900473ffffffffffffffffffffffffffffffffffffffff1691505090565b610d146120a4565b610d1c6120fb565b80608001354210610d62576040517f08c379a0000000000000000000000000000000000000000000000000000000008152600401610d59906136a7565b60405180910390fd5b6000610ddf7f0f137e2eafa9b45b32b2410912df8fa41a95abac5a5a9c7cb2a6ae11296330f483600001358460200135856040016020810190610da591906134d8565b86606001358760800135604051602001610dc496959493929190613a00565b6040516020818303038152906040528051906020012061213c565b9050600160008360000135815260200190815260200160002060009054906101000a900460ff1615610e46576040517f08c379a0000000000000000000000000000000000000000000000000000000008152600401610e3d906137ee565b60405180910390fd5b610ed47f2aeb38be3df14d720aeb10a2de6df09b0fb3cd5c5ec256283a22d4593110ca40610ecf848060a00190610e7d919061381d565b8080601f016020809104026020016040519081016040528093929190818152602001838380828437600081840152601f19601f820116905080830192505050505050508461215690919063ffffffff16565b611121565b610f13576040517f08c379a0000000000000000000000000000000000000000000000000000000008152600401610f0a906138cc565b60405180910390fd5b60018060008460000135815260200190815260200160002060006101000a81548160ff0219169083151502179055506000610f5f836040016020810190610f5a91906134d8565b612182565b9050610f7c836040016020810190610f7791906134d8565b6122d1565b15610f90573481610f8d919061391b565b90505b610fb0836040016020810190610fa691906134d8565b846060013561231d565b610fcb836040016020810190610fc691906134d8565b6122d1565b8015610fda5750826060013534115b1561100e5761100d3373eeeeeeeeeeeeeeeeeeeeeeeeeeeeeeeeeeeeeeee856060013534611008919061391b565b612195565b5b60008161102c85604001602081019061102791906134d8565b612182565b611036919061391b565b90508060008086602001358152602001908152602001600020600086604001602081019061106491906134d8565b73ffffffffffffffffffffffffffffffffffffffff1673ffffffffffffffffffffffffffffffffffffffff16815260200190815260200160002060008282546110ad9190613a61565b92505081905550836020013584600001357fce8b9744d2394e4a278f2a6914ac5d147c9d2b32727418e90a72a01935ea54c48660400160208101906110f291906134d8565b8760600135886080013560405161110b93929190613a95565b60405180910390a350505061111e612290565b50565b60008061112c611a89565b905080600001600085815260200190815260200160002060000160008473ffffffffffffffffffffffffffffffffffffffff1673ffffffffffffffffffffffffffffffffffffffff16815260200190815260200160002060009054906101000a900460ff1691505092915050565b6000801b81565b60006001600083815260200190815260200160002060009054906101000a900460ff169050919050565b60006111d56123e8565b905060008160000160089054906101000a900460ff1615905060008260000160009054906101000a900467ffffffffffffffff1690506000808267ffffffffffffffff161480156112235750825b9050600060018367ffffffffffffffff16148015611258575060003073ffffffffffffffffffffffffffffffffffffffff163b145b905081158015611266575080155b1561129d576040517ff92ee8a900000000000000000000000000000000000000000000000000000000815260040160405180910390fd5b60018560000160006101000a81548167ffffffffffffffff021916908367ffffffffffffffff16021790555083156112ed5760018560000160086101000a81548160ff0219169083151502179055505b6112f686612410565b6112fe612424565b611306612436565b61130e612448565b6113826040518060400160405280601481526020017f62696e616e636520726577617264207661756c740000000000000000000000008152506040518060400160405280600581526020017f302e312e30000000000000000000000000000000000000000000000000000000815250612452565b6113966000801b611391610cd4565b611ac5565b5083156113f35760008560000160086101000a81548160ff0219169083151502179055507fc7f505b2f371ae2175ee4913f4499e1f2633a7b5936321eed1cdaeb6115181d260016040516113ea9190613b25565b60405180910390a15b505050505050565b6114048261056b565b61140d81611ab1565b6114178383611bce565b50505050565b6114256120a4565b61142d6120fb565b8060a001354210611473576040517f08c379a000000000000000000000000000000000000000000000000000000000815260040161146a90613b8c565b60405180910390fd5b60008060008360200135815260200190815260200160002060008360400160208101906114a091906134d8565b73ffffffffffffffffffffffffffffffffffffffff1673ffffffffffffffffffffffffffffffffffffffff1681526020019081526020016000205490508160600135811015611524576040517f08c379a000000000000000000000000000000000000000000000000000000000815260040161151b90613713565b60405180910390fd5b60006115b57f3f4e709c1ebeaa3efcb0bdd2f68417cb2d4b99a3dc3b24e4353ce5f6bf8e33698460000135856020013586604001602081019061156791906134d8565b876060013588608001602081019061157f91906134d8565b8960a0013560405160200161159a9796959493929190613733565b6040516020818303038152906040528051906020012061213c565b9050600160008460000135815260200190815260200160002060009054906101000a900460ff161561161c576040517f08c379a0000000000000000000000000000000000000000000000000000000008152600401611613906137ee565b60405180910390fd5b6116aa7f2aeb38be3df14d720aeb10a2de6df09b0fb3cd5c5ec256283a22d4593110ca406116a5858060c00190611653919061381d565b8080601f016020809104026020016040519081016040528093929190818152602001838380828437600081840152601f19601f820116905080830192505050505050508461215690919063ffffffff16565b611121565b6116e9576040517f08c379a00000000000000000000000000000000000000000000000000000000081526004016116e0906138cc565b60405180910390fd5b60018060008560000135815260200190815260200160002060006101000a81548160ff021916908315150217905550600061173584604001602081019061173091906134d8565b612182565b905061176a84608001602081019061174d91906134d8565b85604001602081019061176091906134d8565b8660600135612195565b600061178785604001602081019061178291906134d8565b612182565b82611792919061391b565b9050808410156117d7576040517f08c379a00000000000000000000000000000000000000000000000000000000081526004016117ce9061399b565b60405180910390fd5b80846117e3919061391b565b60008087602001358152602001908152602001600020600087604001602081019061180e91906134d8565b73ffffffffffffffffffffffffffffffffffffffff1673ffffffffffffffffffffffffffffffffffffffff16815260200190815260200160002081905550846020013585600001357f24073d699b5c164d11eaef97cdabe1bcd2e867d1806aad0cbffd0fff9293643a87604001602081019061188a91906134d8565b88606001358960800160208101906118a291906134d8565b8a60a001356040516118b794939291906139bb565b60405180910390a3505050506118cb612290565b50565b6118d6611cd0565b6118e1818484612195565b600073ffffffffffffffffffffffffffffffffffffffff168173ffffffffffffffffffffffffffffffffffffffff1603611950576040517f08c379a000000000000000000000000000000000000000000000000000000000815260040161194790613bf8565b60405180910390fd5b7fcb771cd08d53de3a42aa78693ae8a3554442b3b630d53f3a457fb3859c547d79611979610cd4565b82858560405161198c9493929190613c18565b60405180910390a1505050565b6119a1611cd0565b600073ffffffffffffffffffffffffffffffffffffffff168173ffffffffffffffffffffffffffffffffffffffff1603611a135760006040517f1e4fbdf7000000000000000000000000000000000000000000000000000000008152600401611a0a9190613428565b60405180910390fd5b611a1c81611df1565b50565b60007f01ffc9a7000000000000000000000000000000000000000000000000000000007bffffffffffffffffffffffffffffffffffffffffffffffffffffffff1916827bffffffffffffffffffffffffffffffffffffffffffffffffffffffff1916149050919050565b60007f02dd7bc7dec4dceedda775e58dd541e08a116c6c53815c0bd028192f7b626800905090565b611ac281611abd611bc6565b612468565b50565b600080611ad0611a89565b9050611adc8484611121565b611bba57600181600001600086815260200190815260200160002060000160008573ffffffffffffffffffffffffffffffffffffffff1673ffffffffffffffffffffffffffffffffffffffff16815260200190815260200160002060006101000a81548160ff021916908315150217905550611b56611bc6565b73ffffffffffffffffffffffffffffffffffffffff168373ffffffffffffffffffffffffffffffffffffffff16857f2f8788117e7eff1d82e926ec794901d17c78024a50270940304540a733656f0d60405160405180910390a46001915050611bc0565b60009150505b92915050565b600033905090565b600080611bd9611a89565b9050611be58484611121565b15611cc457600081600001600086815260200190815260200160002060000160008573ffffffffffffffffffffffffffffffffffffffff1673ffffffffffffffffffffffffffffffffffffffff16815260200190815260200160002060006101000a81548160ff021916908315150217905550611c60611bc6565b73ffffffffffffffffffffffffffffffffffffffff168373ffffffffffffffffffffffffffffffffffffffff16857ff6391f5c32d9c69d2a47ea670b442974b53935d1edc7fd64eb21e047a839171b60405160405180910390a46001915050611cca565b60009150505b92915050565b611cd8611bc6565b73ffffffffffffffffffffffffffffffffffffffff16611cf6610cd4565b73ffffffffffffffffffffffffffffffffffffffff1614611d5557611d19611bc6565b6040517f118cdaa7000000000000000000000000000000000000000000000000000000008152600401611d4c9190613428565b60405180910390fd5b565b611d5f6124b9565b6000611d69611dc9565b905060008160000160006101000a81548160ff0219169083151502179055507f5db9ee0a495bf2e6ff9c91a7834c1ba4fdd244a5e8aa4e537bd38aeae4b073aa611db1611bc6565b604051611dbe9190613428565b60405180910390a150565b60007fcd5ed15c6e187e77e9aee88184c21f4f2182ab5827cb3b7e07fbedcd63f03300905090565b6000611dfb6122a9565b905060008160000160009054906101000a900473ffffffffffffffffffffffffffffffffffffffff169050828260000160006101000a81548173ffffffffffffffffffffffffffffffffffffffff021916908373ffffffffffffffffffffffffffffffffffffffff1602179055508273ffffffffffffffffffffffffffffffffffffffff168173ffffffffffffffffffffffffffffffffffffffff167f8be0079c531659141344cd1fd0a4f28419497f9722a3daafe3b4186f6b6457e060405160405180910390a3505050565b611ed06120fb565b6000611eda611dc9565b905060018160000160006101000a81548160ff0219169083151502179055507f62e78cea01bee320cd4e420270b5ea74000d11b0c9f74754ebdbfc544b05a258611f22611bc6565b604051611f2f9190613428565b60405180910390a150565b60007fa16a46d94261c7517cc8ff89f61c0ce93598e3c849801011dee649a6a557d100905090565b60606000611f6e611f3a565b9050806002018054611f7f90613c8c565b80601f0160208091040260200160405190810160405280929190818152602001828054611fab90613c8c565b8015611ff85780601f10611fcd57610100808354040283529160200191611ff8565b820191906000526020600020905b815481529060010190602001808311611fdb57829003601f168201915b505050505091505090565b6060600061200f611f3a565b905080600301805461202090613c8c565b80601f016020809104026020016040519081016040528092919081815260200182805461204c90613c8c565b80156120995780601f1061206e57610100808354040283529160200191612099565b820191906000526020600020905b81548152906001019060200180831161207c57829003601f168201915b505050505091505090565b60006120ae6124f9565b905060028160000154036120ee576040517f3ee5aeb500000000000000000000000000000000000000000000000000000000815260040160405180910390fd5b6002816000018190555050565b6121036106c6565b1561213a576040517fd93c066500000000000000000000000000000000000000000000000000000000815260040160405180910390fd5b565b600061214f612149612521565b83612530565b9050919050565b6000806000806121668686612571565b92509250925061217682826125cd565b82935050505092915050565b600061218e8230612731565b9050919050565b600081111561228b576121a7826122d1565b1561225e5760008373ffffffffffffffffffffffffffffffffffffffff16826040516121d290613cee565b60006040518083038185875af1925050503d806000811461220f576040519150601f19603f3d011682016040523d82523d6000602084013e612214565b606091505b5050905080612258576040517f08c379a000000000000000000000000000000000000000000000000000000000815260040161224f90613d4f565b60405180910390fd5b5061228a565b61228983828473ffffffffffffffffffffffffffffffffffffffff166127e09092919063ffffffff16565b5b5b505050565b600061229a6124f9565b90506001816000018190555050565b60007f9016d09d72d40fdae2fd8ceac6b6234c7706214fd39c1cd1e609a0528c199300905090565b600073eeeeeeeeeeeeeeeeeeeeeeeeeeeeeeeeeeeeeeee73ffffffffffffffffffffffffffffffffffffffff168273ffffffffffffffffffffffffffffffffffffffff16149050919050565b60008111612360576040517f08c379a000000000000000000000000000000000000000000000000000000000815260040161235790613dbb565b60405180910390fd5b612369826122d1565b156123b657803410156123b1576040517f08c379a00000000000000000000000000000000000000000000000000000000081526004016123a890613e27565b60405180910390fd5b6123e4565b6123e33330838573ffffffffffffffffffffffffffffffffffffffff1661285f909392919063ffffffff16565b5b5050565b60007ff0c57e16840df040f15088dc2f81fe391c3923bec73e23a9662efc9c229c6a00905090565b6124186128e1565b61242181612921565b50565b61242c6128e1565b6124346129a7565b565b61243e6128e1565b6124466129db565b565b6124506128e1565b565b61245a6128e1565b61246482826129fc565b5050565b6124728282611121565b6124b55780826040517fe2517d3f0000000000000000000000000000000000000000000000000000000081526004016124ac929190613e47565b60405180910390fd5b5050565b6124c16106c6565b6124f7576040517f8dfc202b00000000000000000000000000000000000000000000000000000000815260040160405180910390fd5b565b60007f9b779b17422d0df92223018b32b4d1fa46e071723d6817e2486d003becc55f00905090565b600061252b612a51565b905090565b60006040517f190100000000000000000000000000000000000000000000000000000000000081528360028201528260228201526042812091505092915050565b600080600060418451036125b65760008060006020870151925060408701519150606087015160001a90506125a888828585612ab5565b9550955095505050506125c6565b60006002855160001b9250925092505b9250925092565b600060038111156125e1576125e0613e70565b5b8260038111156125f4576125f3613e70565b5b031561272d576001600381111561260e5761260d613e70565b5b82600381111561262157612620613e70565b5b03612658576040517ff645eedf00000000000000000000000000000000000000000000000000000000815260040160405180910390fd5b6002600381111561266c5761266b613e70565b5b82600381111561267f5761267e613e70565b5b036126c4578060001c6040517ffce698f70000000000000000000000000000000000000000000000000000000081526004016126bb9190613184565b60405180910390fd5b6003808111156126d7576126d6613e70565b5b8260038111156126ea576126e9613e70565b5b0361272c57806040517fd78bce0c0000000000000000000000000000000000000000000000000000000081526004016127239190613046565b60405180910390fd5b5b5050565b600061273c836122d1565b6127bf578273ffffffffffffffffffffffffffffffffffffffff166370a08231836040518263ffffffff1660e01b81526004016127799190613428565b602060405180830381865afa158015612796573d6000803e3d6000fd5b505050506040513d601f19601f820116820180604052508101906127ba9190613eb4565b6127d8565b8173ffffffffffffffffffffffffffffffffffffffff16315b905092915050565b61285a838473ffffffffffffffffffffffffffffffffffffffff1663a9059cbb8585604051602401612813929190613ee1565b604051602081830303815290604052915060e01b6020820180517bffffffffffffffffffffffffffffffffffffffffffffffffffffffff8381831617835250505050612ba9565b505050565b6128db848573ffffffffffffffffffffffffffffffffffffffff166323b872dd86868660405160240161289493929190613f0a565b604051602081830303815290604052915060e01b6020820180517bffffffffffffffffffffffffffffffffffffffffffffffffffffffff8381831617835250505050612ba9565b50505050565b6128e9612c40565b61291f576040517fd7e6bcf800000000000000000000000000000000000000000000000000000000815260040160405180910390fd5b565b6129296128e1565b600073ffffffffffffffffffffffffffffffffffffffff168173ffffffffffffffffffffffffffffffffffffffff160361299b5760006040517f1e4fbdf70000000000000000000000000000000000000000000000000000000081526004016129929190613428565b60405180910390fd5b6129a481611df1565b50565b6129af6128e1565b60006129b9611dc9565b905060008160000160006101000a81548160ff02191690831515021790555050565b6129e36128e1565b60006129ed6124f9565b90506001816000018190555050565b612a046128e1565b6000612a0e611f3a565b905082816002019081612a2191906140e3565b5081816003019081612a3391906140e3565b506000801b81600001819055506000801b8160010181905550505050565b60007f8b73c3c69bb8fe3d512ecc4cf759cc79239f7b179b0ffacaa9a75d522b39400f612a7c612c60565b612a84612cdc565b4630604051602001612a9a9594939291906141b5565b60405160208183030381529060405280519060200120905090565b60008060007f7fffffffffffffffffffffffffffffff5d576e7357a4501ddfe92f46681b20a08460001c1115612af5576000600385925092509250612b9f565b600060018888888860405160008152602001604052604051612b1a9493929190614224565b6020604051602081039080840390855afa158015612b3c573d6000803e3d6000fd5b505050602060405103519050600073ffffffffffffffffffffffffffffffffffffffff168173ffffffffffffffffffffffffffffffffffffffff1603612b9057600060016000801b93509350935050612b9f565b8060008060001b935093509350505b9450945094915050565b6000612bd4828473ffffffffffffffffffffffffffffffffffffffff16612d5890919063ffffffff16565b90506000815114158015612bf9575080806020019051810190612bf79190614295565b155b15612c3b57826040517f5274afe7000000000000000000000000000000000000000000000000000000008152600401612c329190613428565b60405180910390fd5b505050565b6000612c4a6123e8565b60000160089054906101000a900460ff16905090565b600080612c6b611f3a565b90506000612c77611f62565b9050600081511115612c9457808051906020012092505050612cd9565b6000826000015490506000801b8114612cb257809350505050612cd9565b7fc5d2460186f7233c927e7db2dcc703c0e500b653ca82273b7bfad8045d85a47093505050505b90565b600080612ce7611f3a565b90506000612cf3612003565b9050600081511115612d1057808051906020012092505050612d55565b6000826001015490506000801b8114612d2e57809350505050612d55565b7fc5d2460186f7233c927e7db2dcc703c0e500b653ca82273b7bfad8045d85a47093505050505b90565b6060612d6683836000612d6e565b905092915050565b606081471015612db557306040517fcd786059000000000000000000000000000000000000000000000000000000008152600401612dac9190613428565b60405180910390fd5b6000808573ffffffffffffffffffffffffffffffffffffffff168486604051612dde91906142fe565b60006040518083038185875af1925050503d8060008114612e1b576040519150601f19603f3d011682016040523d82523d6000602084013e612e20565b606091505b5091509150612e30868383612e3b565b925050509392505050565b606082612e5057612e4b82612eca565b612ec2565b60008251148015612e78575060008473ffffffffffffffffffffffffffffffffffffffff163b145b15612eba57836040517f9996b315000000000000000000000000000000000000000000000000000000008152600401612eb19190613428565b60405180910390fd5b819050612ec3565b5b9392505050565b600081511115612edd5780518082602001fd5b6040517f1425ea4200000000000000000000000000000000000000000000000000000000815260040160405180910390fd5b600080fd5b600080fd5b60007fffffffff0000000000000000000000000000000000000000000000000000000082169050919050565b612f4e81612f19565b8114612f5957600080fd5b50565b600081359050612f6b81612f45565b92915050565b600060208284031215612f8757612f86612f0f565b5b6000612f9584828501612f5c565b91505092915050565b60008115159050919050565b612fb381612f9e565b82525050565b6000602082019050612fce6000830184612faa565b92915050565b6000819050919050565b612fe781612fd4565b8114612ff257600080fd5b50565b60008135905061300481612fde565b92915050565b6000602082840312156130205761301f612f0f565b5b600061302e84828501612ff5565b91505092915050565b61304081612fd4565b82525050565b600060208201905061305b6000830184613037565b92915050565b600073ffffffffffffffffffffffffffffffffffffffff82169050919050565b600061308c82613061565b9050919050565b61309c81613081565b81146130a757600080fd5b50565b6000813590506130b981613093565b92915050565b600080604083850312156130d6576130d5612f0f565b5b60006130e485828601612ff5565b92505060206130f5858286016130aa565b9150509250929050565b6000819050919050565b613112816130ff565b811461311d57600080fd5b50565b60008135905061312f81613109565b92915050565b6000806040838503121561314c5761314b612f0f565b5b600061315a85828601613120565b925050602061316b858286016130aa565b9150509250929050565b61317e816130ff565b82525050565b60006020820190506131996000830184613175565b92915050565b60007fff0000000000000000000000000000000000000000000000000000000000000082169050919050565b6131d48161319f565b82525050565b600081519050919050565b600082825260208201905092915050565b60005b838110156132145780820151818401526020810190506131f9565b60008484015250505050565b6000601f19601f8301169050919050565b600061323c826131da565b61324681856131e5565b93506132568185602086016131f6565b61325f81613220565b840191505092915050565b61327381613081565b82525050565b600081519050919050565b600082825260208201905092915050565b6000819050602082019050919050565b6132ae816130ff565b82525050565b60006132c083836132a5565b60208301905092915050565b6000602082019050919050565b60006132e482613279565b6132ee8185613284565b93506132f983613295565b8060005b8381101561332a57815161331188826132b4565b975061331c836132cc565b9250506001810190506132fd565b5085935050505092915050565b600060e08201905061334c600083018a6131cb565b818103602083015261335e8189613231565b905081810360408301526133728188613231565b90506133816060830187613175565b61338e608083018661326a565b61339b60a0830185613037565b81810360c08301526133ad81846132d9565b905098975050505050505050565b600080fd5b600060e082840312156133d6576133d56133bb565b5b81905092915050565b6000602082840312156133f5576133f4612f0f565b5b600082013567ffffffffffffffff81111561341357613412612f14565b5b61341f848285016133c0565b91505092915050565b600060208201905061343d600083018461326a565b92915050565b600060c08284031215613459576134586133bb565b5b81905092915050565b60006020828403121561347857613477612f0f565b5b600082013567ffffffffffffffff81111561349657613495612f14565b5b6134a284828501613443565b91505092915050565b6000602082840312156134c1576134c0612f0f565b5b60006134cf84828501613120565b91505092915050565b6000602082840312156134ee576134ed612f0f565b5b60006134fc848285016130aa565b91505092915050565b600060e0828403121561351b5761351a6133bb565b5b81905092915050565b60006020828403121561353a57613539612f0f565b5b600082013567ffffffffffffffff81111561355857613557612f14565b5b61356484828501613505565b91505092915050565b60008060006060848603121561358657613585612f0f565b5b6000613594868287016130aa565b93505060206135a586828701613120565b92505060406135b6868287016130aa565b9150509250925092565b7f4549503731323a20556e696e697469616c697a65640000000000000000000000600082015250565b60006135f66015836131e5565b9150613601826135c0565b602082019050919050565b60006020820190508181036000830152613625816135e9565b9050919050565b7f4e487b7100000000000000000000000000000000000000000000000000000000600052604160045260246000fd5b7f5349474e41545552455f45585049525900000000000000000000000000000000600082015250565b60006136916010836131e5565b915061369c8261365b565b602082019050919050565b600060208201905081810360008301526136c081613684565b9050919050565b7f414d4f554e545f4558434545445f42414c414e43450000000000000000000000600082015250565b60006136fd6015836131e5565b9150613708826136c7565b602082019050919050565b6000602082019050818103600083015261372c816136f0565b9050919050565b600060e082019050613748600083018a613037565b6137556020830189613175565b6137626040830188613175565b61376f606083018761326a565b61377c6080830186613175565b61378960a083018561326a565b61379660c0830184613175565b98975050505050505050565b7f5349474e41545552455f555345445f414c524541445900000000000000000000600082015250565b60006137d86016836131e5565b91506137e3826137a2565b602082019050919050565b60006020820190508181036000830152613807816137cb565b9050919050565b600080fd5b600080fd5b600080fd5b6000808335600160200384360303811261383a5761383961380e565b5b80840192508235915067ffffffffffffffff82111561385c5761385b613813565b5b60208301925060018202360383131561387857613877613818565b5b509250929050565b7f494e56414c49445f5349474e4552000000000000000000000000000000000000600082015250565b60006138b6600e836131e5565b91506138c182613880565b602082019050919050565b600060208201905081810360008301526138e5816138a9565b9050919050565b7f4e487b7100000000000000000000000000000000000000000000000000000000600052601160045260246000fd5b6000613926826130ff565b9150613931836130ff565b9250828203905081811115613949576139486138ec565b5b92915050565b7f534c4153485f544f4f5f4d554348000000000000000000000000000000000000600082015250565b6000613985600e836131e5565b91506139908261394f565b602082019050919050565b600060208201905081810360008301526139b481613978565b9050919050565b60006080820190506139d0600083018761326a565b6139dd6020830186613175565b6139ea604083018561326a565b6139f76060830184613175565b95945050505050565b600060c082019050613a156000830189613037565b613a226020830188613175565b613a2f6040830187613175565b613a3c606083018661326a565b613a496080830185613175565b613a5660a0830184613175565b979650505050505050565b6000613a6c826130ff565b9150613a77836130ff565b9250828201905080821115613a8f57613a8e6138ec565b5b92915050565b6000606082019050613aaa600083018661326a565b613ab76020830185613175565b613ac46040830184613175565b949350505050565b6000819050919050565b600067ffffffffffffffff82169050919050565b6000819050919050565b6000613b0f613b0a613b0584613acc565b613aea565b613ad6565b9050919050565b613b1f81613af4565b82525050565b6000602082019050613b3a6000830184613b16565b92915050565b7f5349474e41545552452045585049525900000000000000000000000000000000600082015250565b6000613b766010836131e5565b9150613b8182613b40565b602082019050919050565b60006020820190508181036000830152613ba581613b69565b9050919050565b7f5a45524f5f524543495049454e54000000000000000000000000000000000000600082015250565b6000613be2600e836131e5565b9150613bed82613bac565b602082019050919050565b60006020820190508181036000830152613c1181613bd5565b9050919050565b6000608082019050613c2d600083018761326a565b613c3a602083018661326a565b613c47604083018561326a565b613c546060830184613175565b95945050505050565b7f4e487b7100000000000000000000000000000000000000000000000000000000600052602260045260246000fd5b60006002820490506001821680613ca457607f821691505b602082108103613cb757613cb6613c5d565b5b50919050565b600081905092915050565b50565b6000613cd8600083613cbd565b9150613ce382613cc8565b600082019050919050565b6000613cf982613ccb565b9150819050919050565b7f4e41544956455f544f4b454e5f5452414e534645525f4641494c454400000000600082015250565b6000613d39601c836131e5565b9150613d4482613d03565b602082019050919050565b60006020820190508181036000830152613d6881613d2c565b9050919050565b7f5a45524f5f414d4f554e54000000000000000000000000000000000000000000600082015250565b6000613da5600b836131e5565b9150613db082613d6f565b602082019050919050565b60006020820190508181036000830152613dd481613d98565b9050919050565b7f494e5355464649454e545f4554485f414d4f554e540000000000000000000000600082015250565b6000613e116015836131e5565b9150613e1c82613ddb565b602082019050919050565b60006020820190508181036000830152613e4081613e04565b9050919050565b6000604082019050613e5c600083018561326a565b613e696020830184613037565b9392505050565b7f4e487b7100000000000000000000000000000000000000000000000000000000600052602160045260246000fd5b600081519050613eae81613109565b92915050565b600060208284031215613eca57613ec9612f0f565b5b6000613ed884828501613e9f565b91505092915050565b6000604082019050613ef6600083018561326a565b613f036020830184613175565b9392505050565b6000606082019050613f1f600083018661326a565b613f2c602083018561326a565b613f396040830184613175565b949350505050565b60008190508160005260206000209050919050565b60006020601f8301049050919050565b600082821b905092915050565b600060088302613fa37fffffffffffffffffffffffffffffffffffffffffffffffffffffffffffffffff82613f66565b613fad8683613f66565b95508019841693508086168417925050509392505050565b6000613fe0613fdb613fd6846130ff565b613aea565b6130ff565b9050919050565b6000819050919050565b613ffa83613fc5565b61400e61400682613fe7565b848454613f73565b825550505050565b600090565b614023614016565b61402e818484613ff1565b505050565b5b818110156140525761404760008261401b565b600181019050614034565b5050565b601f8211156140975761406881613f41565b61407184613f56565b81016020851015614080578190505b61409461408c85613f56565b830182614033565b50505b505050565b600082821c905092915050565b60006140ba6000198460080261409c565b1980831691505092915050565b60006140d383836140a9565b9150826002028217905092915050565b6140ec826131da565b67ffffffffffffffff8111156141055761410461362c565b5b61410f8254613c8c565b61411a828285614056565b600060209050601f83116001811461414d576000841561413b578287015190505b61414585826140c7565b8655506141ad565b601f19841661415b86613f41565b60005b828110156141835784890151825560018201915060208501945060208101905061415e565b868310156141a0578489015161419c601f8916826140a9565b8355505b6001600288020188555050505b505050505050565b600060a0820190506141ca6000830188613037565b6141d76020830187613037565b6141e46040830186613037565b6141f16060830185613175565b6141fe608083018461326a565b9695505050505050565b600060ff82169050919050565b61421e81614208565b82525050565b60006080820190506142396000830187613037565b6142466020830186614215565b6142536040830185613037565b6142606060830184613037565b95945050505050565b61427281612f9e565b811461427d57600080fd5b50565b60008151905061428f81614269565b92915050565b6000602082840312156142ab576142aa612f0f565b5b60006142b984828501614280565b91505092915050565b600081519050919050565b60006142d8826142c2565b6142e28185613cbd565b93506142f28185602086016131f6565b80840191505092915050565b600061430a82846142cd565b91508190509291505056fea2646970667358221220eb820c38d4221ccb3dc81d2a0b5a60030dcd0eaa9cc1103f628109080eb110c864736f6c63430008180033",
  "linkReferences": {},
  "deployedLinkReferences": {}
}