{
  "_format": "hh-sol-artifact-1",
  "contractName": "RewardVault",
  "sourceName": "contracts/RewardVault.sol",
  "abi": [
    {
      "inputs": [],
      "stateMutability": "nonpayable",
      "type": "constructor"
    },
    {
      "inputs": [],
      "name": "AccessControlBadConfirmation",
      "type": "error"
    },
    {
      "inputs": [
        {
          "internalType": "address",
          "name": "account",
          "type": "address"
        },
        {
          "internalType": "bytes32",
          "name": "neededRole",
          "type": "bytes32"
        }
      ],
      "name": "AccessControlUnauthorizedAccount",
      "type": "error"
    },
    {
      "inputs": [
        {
          "internalType": "address",
          "name": "target",
          "type": "address"
        }
      ],
      "name": "AddressEmptyCode",
      "type": "error"
    },
    {
      "inputs": [
        {
          "internalType": "address",
          "name": "account",
          "type": "address"
        }
      ],
      "name": "AddressInsufficientBalance",
      "type": "error"
    },
    {
      "inputs": [],
      "name": "ECDSAInvalidSignature",
      "type": "error"
    },
    {
      "inputs": [
        {
          "internalType": "uint256",
          "name": "length",
          "type": "uint256"
        }
      ],
      "name": "ECDSAInvalidSignatureLength",
      "type": "error"
    },
    {
      "inputs": [
        {
          "internalType": "bytes32",
          "name": "s",
          "type": "bytes32"
        }
      ],
      "name": "ECDSAInvalidSignatureS",
      "type": "error"
    },
    {
      "inputs": [],
      "name": "EnforcedPause",
      "type": "error"
    },
    {
      "inputs": [],
      "name": "ExpectedPause",
      "type": "error"
    },
    {
      "inputs": [],
      "name": "FailedInnerCall",
      "type": "error"
    },
    {
      "inputs": [],
      "name": "InvalidShortString",
      "type": "error"
    },
    {
      "inputs": [
        {
          "internalType": "address",
          "name": "owner",
          "type": "address"
        }
      ],
      "name": "OwnableInvalidOwner",
      "type": "error"
    },
    {
      "inputs": [
        {
          "internalType": "address",
          "name": "account",
          "type": "address"
        }
      ],
      "name": "OwnableUnauthorizedAccount",
      "type": "error"
    },
    {
      "inputs": [],
      "name": "ReentrancyGuardReentrantCall",
      "type": "error"
    },
    {
      "inputs": [
        {
          "internalType": "address",
          "name": "token",
          "type": "address"
        }
      ],
      "name": "SafeERC20FailedOperation",
      "type": "error"
    },
    {
      "inputs": [
        {
          "internalType": "string",
          "name": "str",
          "type": "string"
        }
      ],
      "name": "StringTooLong",
      "type": "error"
    },
    {
      "anonymous": false,
      "inputs": [],
      "name": "EIP712DomainChanged",
      "type": "event"
    },
    {
      "anonymous": false,
      "inputs": [
        {
          "indexed": true,
          "internalType": "address",
          "name": "previousOwner",
          "type": "address"
        },
        {
          "indexed": true,
          "internalType": "address",
          "name": "newOwner",
          "type": "address"
        }
      ],
      "name": "OwnershipTransferred",
      "type": "event"
    },
    {
      "anonymous": false,
      "inputs": [
        {
          "indexed": false,
          "internalType": "address",
          "name": "account",
          "type": "address"
        }
      ],
      "name": "Paused",
      "type": "event"
    },
    {
      "anonymous": false,
      "inputs": [
        {
          "indexed": true,
          "internalType": "uint256",
          "name": "claimId",
          "type": "uint256"
        },
        {
          "indexed": true,
          "internalType": "uint256",
          "name": "projectId",
          "type": "uint256"
        },
        {
          "indexed": false,
          "internalType": "address",
          "name": "token",
          "type": "address"
        },
        {
          "indexed": false,
          "internalType": "uint256",
          "name": "amount",
          "type": "uint256"
        },
        {
          "indexed": false,
          "internalType": "address",
          "name": "recipient",
          "type": "address"
        },
        {
          "indexed": false,
          "internalType": "uint256",
          "name": "expireTime",
          "type": "uint256"
        }
      ],
      "name": "RewardsClaimed",
      "type": "event"
    },
    {
      "anonymous": false,
      "inputs": [
        {
          "indexed": true,
          "internalType": "bytes32",
          "name": "role",
          "type": "bytes32"
        },
        {
          "indexed": true,
          "internalType": "bytes32",
          "name": "previousAdminRole",
          "type": "bytes32"
        },
        {
          "indexed": true,
          "internalType": "bytes32",
          "name": "newAdminRole",
          "type": "bytes32"
        }
      ],
      "name": "RoleAdminChanged",
      "type": "event"
    },
    {
      "anonymous": false,
      "inputs": [
        {
          "indexed": true,
          "internalType": "bytes32",
          "name": "role",
          "type": "bytes32"
        },
        {
          "indexed": true,
          "internalType": "address",
          "name": "account",
          "type": "address"
        },
        {
          "indexed": true,
          "internalType": "address",
          "name": "sender",
          "type": "address"
        }
      ],
      "name": "RoleGranted",
      "type": "event"
    },
    {
      "anonymous": false,
      "inputs": [
        {
          "indexed": true,
          "internalType": "bytes32",
          "name": "role",
          "type": "bytes32"
        },
        {
          "indexed": true,
          "internalType": "address",
          "name": "account",
          "type": "address"
        },
        {
          "indexed": true,
          "internalType": "address",
          "name": "sender",
          "type": "address"
        }
      ],
      "name": "RoleRevoked",
      "type": "event"
    },
    {
      "anonymous": false,
      "inputs": [
        {
          "indexed": true,
          "internalType": "uint256",
          "name": "depositId",
          "type": "uint256"
        },
        {
          "indexed": true,
          "internalType": "uint256",
          "name": "projectId",
          "type": "uint256"
        },
        {
          "indexed": false,
          "internalType": "address",
          "name": "token",
          "type": "address"
        },
        {
          "indexed": false,
          "internalType": "uint256",
          "name": "amount",
          "type": "uint256"
        },
        {
          "indexed": false,
          "internalType": "uint256",
          "name": "expireTime",
          "type": "uint256"
        }
      ],
      "name": "TokenDeposited",
      "type": "event"
    },
    {
      "anonymous": false,
      "inputs": [
        {
          "indexed": true,
          "internalType": "uint256",
          "name": "withdrawId",
          "type": "uint256"
        },
        {
          "indexed": true,
          "internalType": "uint256",
          "name": "projectId",
          "type": "uint256"
        },
        {
          "indexed": false,
          "internalType": "address",
          "name": "token",
          "type": "address"
        },
        {
          "indexed": false,
          "internalType": "uint256",
          "name": "amount",
          "type": "uint256"
        },
        {
          "indexed": false,
          "internalType": "address",
          "name": "recipient",
          "type": "address"
        },
        {
          "indexed": false,
          "internalType": "uint256",
          "name": "expireTime",
          "type": "uint256"
        }
      ],
      "name": "TokenWithdrawed",
      "type": "event"
    },
    {
      "anonymous": false,
      "inputs": [
        {
          "indexed": false,
          "internalType": "address",
          "name": "withrawer",
          "type": "address"
        },
        {
          "indexed": false,
          "internalType": "address",
          "name": "recipient",
          "type": "address"
        },
        {
          "indexed": false,
          "internalType": "address",
          "name": "token",
          "type": "address"
        },
        {
          "indexed": false,
          "internalType": "uint256",
          "name": "amount",
          "type": "uint256"
        }
      ],
      "name": "TokenWithdrawedByAdmin",
      "type": "event"
    },
    {
      "anonymous": false,
      "inputs": [
        {
          "indexed": false,
          "internalType": "address",
          "name": "account",
          "type": "address"
        }
      ],
      "name": "Unpaused",
      "type": "event"
    },
    {
      "inputs": [],
      "name": "DEFAULT_ADMIN_ROLE",
      "outputs": [
        {
          "internalType": "bytes32",
          "name": "",
          "type": "bytes32"
        }
      ],
      "stateMutability": "view",
      "type": "function"
    },
    {
      "inputs": [],
      "name": "SIGNER",
      "outputs": [
        {
          "internalType": "bytes32",
          "name": "",
          "type": "bytes32"
        }
      ],
      "stateMutability": "view",
      "type": "function"
    },
    {
      "inputs": [
        {
          "components": [
            {
              "internalType": "uint256",
              "name": "claimId",
              "type": "uint256"
            },
            {
              "internalType": "uint256",
              "name": "projectId",
              "type": "uint256"
            },
            {
              "internalType": "address",
              "name": "token",
              "type": "address"
            },
            {
              "internalType": "uint256",
              "name": "amount",
              "type": "uint256"
            },
            {
              "internalType": "address",
              "name": "recipient",
              "type": "address"
            },
            {
              "internalType": "uint256",
              "name": "expireTime",
              "type": "uint256"
            },
            {
              "internalType": "bytes",
              "name": "signature",
              "type": "bytes"
            }
          ],
          "internalType": "struct IRewardVault.ClaimParam",
          "name": "claimParam",
          "type": "tuple"
        }
      ],
      "name": "claim",
      "outputs": [],
      "stateMutability": "nonpayable",
      "type": "function"
    },
    {
      "inputs": [
        {
          "components": [
            {
              "internalType": "uint256",
              "name": "depositId",
              "type": "uint256"
            },
            {
              "internalType": "uint256",
              "name": "projectId",
              "type": "uint256"
            },
            {
              "internalType": "address",
              "name": "token",
              "type": "address"
            },
            {
              "internalType": "uint256",
              "name": "amount",
              "type": "uint256"
            },
            {
              "internalType": "uint256",
              "name": "expireTime",
              "type": "uint256"
            },
            {
              "internalType": "bytes",
              "name": "signature",
              "type": "bytes"
            }
          ],
          "internalType": "struct IRewardVault.DepositParam",
          "name": "depositParam",
          "type": "tuple"
        }
      ],
      "name": "deposit",
      "outputs": [],
      "stateMutability": "payable",
      "type": "function"
    },
    {
      "inputs": [],
      "name": "eip712Domain",
      "outputs": [
        {
          "internalType": "bytes1",
          "name": "fields",
          "type": "bytes1"
        },
        {
          "internalType": "string",
          "name": "name",
          "type": "string"
        },
        {
          "internalType": "string",
          "name": "version",
          "type": "string"
        },
        {
          "internalType": "uint256",
          "name": "chainId",
          "type": "uint256"
        },
        {
          "internalType": "address",
          "name": "verifyingContract",
          "type": "address"
        },
        {
          "internalType": "bytes32",
          "name": "salt",
          "type": "bytes32"
        },
        {
          "internalType": "uint256[]",
          "name": "extensions",
          "type": "uint256[]"
        }
      ],
      "stateMutability": "view",
      "type": "function"
    },
    {
      "inputs": [
        {
          "internalType": "uint256",
          "name": "requestId",
          "type": "uint256"
        }
      ],
      "name": "getIsRequestIdUsed",
      "outputs": [
        {
          "internalType": "bool",
          "name": "",
          "type": "bool"
        }
      ],
      "stateMutability": "view",
      "type": "function"
    },
    {
      "inputs": [
        {
          "internalType": "bytes32",
          "name": "role",
          "type": "bytes32"
        }
      ],
      "name": "getRoleAdmin",
      "outputs": [
        {
          "internalType": "bytes32",
          "name": "",
          "type": "bytes32"
        }
      ],
      "stateMutability": "view",
      "type": "function"
    },
    {
      "inputs": [
        {
          "internalType": "uint256",
          "name": "projectId",
          "type": "uint256"
        },
        {
          "internalType": "address",
          "name": "token",
          "type": "address"
        }
      ],
      "name": "getTokenBalanceByProjectId",
      "outputs": [
        {
          "internalType": "uint256",
          "name": "",
          "type": "uint256"
        }
      ],
      "stateMutability": "view",
      "type": "function"
    },
    {
      "inputs": [
        {
          "internalType": "bytes32",
          "name": "role",
          "type": "bytes32"
        },
        {
          "internalType": "address",
          "name": "account",
          "type": "address"
        }
      ],
      "name": "grantRole",
      "outputs": [],
      "stateMutability": "nonpayable",
      "type": "function"
    },
    {
      "inputs": [
        {
          "internalType": "bytes32",
          "name": "role",
          "type": "bytes32"
        },
        {
          "internalType": "address",
          "name": "account",
          "type": "address"
        }
      ],
      "name": "hasRole",
      "outputs": [
        {
          "internalType": "bool",
          "name": "",
          "type": "bool"
        }
      ],
      "stateMutability": "view",
      "type": "function"
    },
    {
      "inputs": [],
      "name": "owner",
      "outputs": [
        {
          "internalType": "address",
          "name": "",
          "type": "address"
        }
      ],
      "stateMutability": "view",
      "type": "function"
    },
    {
      "inputs": [],
      "name": "pause",
      "outputs": [],
      "stateMutability": "nonpayable",
      "type": "function"
    },
    {
      "inputs": [],
      "name": "paused",
      "outputs": [
        {
          "internalType": "bool",
          "name": "",
          "type": "bool"
        }
      ],
      "stateMutability": "view",
      "type": "function"
    },
    {
      "inputs": [],
      "name": "renounceOwnership",
      "outputs": [],
      "stateMutability": "nonpayable",
      "type": "function"
    },
    {
      "inputs": [
        {
          "internalType": "bytes32",
          "name": "role",
          "type": "bytes32"
        },
        {
          "internalType": "address",
          "name": "callerConfirmation",
          "type": "address"
        }
      ],
      "name": "renounceRole",
      "outputs": [],
      "stateMutability": "nonpayable",
      "type": "function"
    },
    {
      "inputs": [
        {
          "internalType": "bytes32",
          "name": "role",
          "type": "bytes32"
        },
        {
          "internalType": "address",
          "name": "account",
          "type": "address"
        }
      ],
      "name": "revokeRole",
      "outputs": [],
      "stateMutability": "nonpayable",
      "type": "function"
    },
    {
      "inputs": [
        {
          "internalType": "bytes4",
          "name": "interfaceId",
          "type": "bytes4"
        }
      ],
      "name": "supportsInterface",
      "outputs": [
        {
          "internalType": "bool",
          "name": "",
          "type": "bool"
        }
      ],
      "stateMutability": "view",
      "type": "function"
    },
    {
      "inputs": [
        {
          "internalType": "address",
          "name": "newOwner",
          "type": "address"
        }
      ],
      "name": "transferOwnership",
      "outputs": [],
      "stateMutability": "nonpayable",
      "type": "function"
    },
    {
      "inputs": [],
      "name": "unpause",
      "outputs": [],
      "stateMutability": "nonpayable",
      "type": "function"
    },
    {
      "inputs": [
        {
          "components": [
            {
              "internalType": "uint256",
              "name": "withdrawId",
              "type": "uint256"
            },
            {
              "internalType": "uint256",
              "name": "projectId",
              "type": "uint256"
            },
            {
              "internalType": "address",
              "name": "token",
              "type": "address"
            },
            {
              "internalType": "uint256",
              "name": "amount",
              "type": "uint256"
            },
            {
              "internalType": "address",
              "name": "recipient",
              "type": "address"
            },
            {
              "internalType": "uint256",
              "name": "expireTime",
              "type": "uint256"
            },
            {
              "internalType": "bytes",
              "name": "signature",
              "type": "bytes"
            }
          ],
          "internalType": "struct IRewardVault.WithdrawalParam",
          "name": "withdrawalParam",
          "type": "tuple"
        }
      ],
      "name": "withdraw",
      "outputs": [],
      "stateMutability": "nonpayable",
      "type": "function"
    },
    {
      "inputs": [
        {
          "internalType": "address",
          "name": "token",
          "type": "address"
        },
        {
          "internalType": "uint256",
          "name": "amount",
          "type": "uint256"
        },
        {
          "internalType": "address",
          "name": "recipient",
          "type": "address"
        }
      ],
      "name": "withdrawExcessTokens",
      "outputs": [],
      "stateMutability": "nonpayable",
      "type": "function"
    }
  ],
  "bytecode": "0x6101606040523480156200001257600080fd5b506040518060400160405280601481526020017f62696e616e636520726577617264207661756c740000000000000000000000008152506040518060400160405280600581526020017f302e312e3000000000000000000000000000000000000000000000000000000081525033600073ffffffffffffffffffffffffffffffffffffffff168173ffffffffffffffffffffffffffffffffffffffff1603620000f55760006040517f1e4fbdf7000000000000000000000000000000000000000000000000000000008152600401620000ec9190620005dd565b60405180910390fd5b62000106816200020560201b60201c565b5060016004819055506000600560006101000a81548160ff02191690831515021790555062000140600683620002cb60201b90919060201c565b61012081815250506200015e600782620002cb60201b90919060201c565b6101408181525050818051906020012060e08181525050808051906020012061010081815250504660a081815250506200019d6200032360201b60201c565b608081815250503073ffffffffffffffffffffffffffffffffffffffff1660c08173ffffffffffffffffffffffffffffffffffffffff16815250505050620001fe6000801b620001f26200038060201b60201c565b620003aa60201b60201c565b5062000b39565b6000600260009054906101000a900473ffffffffffffffffffffffffffffffffffffffff16905081600260006101000a81548173ffffffffffffffffffffffffffffffffffffffff021916908373ffffffffffffffffffffffffffffffffffffffff1602179055508173ffffffffffffffffffffffffffffffffffffffff168173ffffffffffffffffffffffffffffffffffffffff167f8be0079c531659141344cd1fd0a4f28419497f9722a3daafe3b4186f6b6457e060405160405180910390a35050565b6000602083511015620002f157620002e983620004ae60201b60201c565b90506200031d565b8262000303836200051b60201b60201c565b600001908162000314919062000874565b5060ff60001b90505b92915050565b60007f8b73c3c69bb8fe3d512ecc4cf759cc79239f7b179b0ffacaa9a75d522b39400f60e0516101005146306040516020016200036595949392919062000987565b60405160208183030381529060405280519060200120905090565b6000600260009054906101000a900473ffffffffffffffffffffffffffffffffffffffff16905090565b6000620003be83836200052560201b60201c565b620004a35760016003600085815260200190815260200160002060000160008473ffffffffffffffffffffffffffffffffffffffff1673ffffffffffffffffffffffffffffffffffffffff16815260200190815260200160002060006101000a81548160ff0219169083151502179055506200043f6200059060201b60201c565b73ffffffffffffffffffffffffffffffffffffffff168273ffffffffffffffffffffffffffffffffffffffff16847f2f8788117e7eff1d82e926ec794901d17c78024a50270940304540a733656f0d60405160405180910390a460019050620004a8565b600090505b92915050565b600080829050601f81511115620004fe57826040517f305a27a9000000000000000000000000000000000000000000000000000000008152600401620004f5919062000a73565b60405180910390fd5b8051816200050c9062000ac9565b60001c1760001b915050919050565b6000819050919050565b60006003600084815260200190815260200160002060000160008373ffffffffffffffffffffffffffffffffffffffff1673ffffffffffffffffffffffffffffffffffffffff16815260200190815260200160002060009054906101000a900460ff16905092915050565b600033905090565b600073ffffffffffffffffffffffffffffffffffffffff82169050919050565b6000620005c58262000598565b9050919050565b620005d781620005b8565b82525050565b6000602082019050620005f46000830184620005cc565b92915050565b600081519050919050565b7f4e487b7100000000000000000000000000000000000000000000000000000000600052604160045260246000fd5b7f4e487b7100000000000000000000000000000000000000000000000000000000600052602260045260246000fd5b600060028204905060018216806200067c57607f821691505b60208210810362000692576200069162000634565b5b50919050565b60008190508160005260206000209050919050565b60006020601f8301049050919050565b600082821b905092915050565b600060088302620006fc7fffffffffffffffffffffffffffffffffffffffffffffffffffffffffffffffff82620006bd565b620007088683620006bd565b95508019841693508086168417925050509392505050565b6000819050919050565b6000819050919050565b6000620007556200074f620007498462000720565b6200072a565b62000720565b9050919050565b6000819050919050565b620007718362000734565b6200078962000780826200075c565b848454620006ca565b825550505050565b600090565b620007a062000791565b620007ad81848462000766565b505050565b5b81811015620007d557620007c960008262000796565b600181019050620007b3565b5050565b601f8211156200082457620007ee8162000698565b620007f984620006ad565b8101602085101562000809578190505b620008216200081885620006ad565b830182620007b2565b50505b505050565b600082821c905092915050565b6000620008496000198460080262000829565b1980831691505092915050565b600062000864838362000836565b9150826002028217905092915050565b6200087f82620005fa565b67ffffffffffffffff8111156200089b576200089a62000605565b5b620008a7825462000663565b620008b4828285620007d9565b600060209050601f831160018114620008ec5760008415620008d7578287015190505b620008e3858262000856565b86555062000953565b601f198416620008fc8662000698565b60005b828110156200092657848901518255600182019150602085019450602081019050620008ff565b8683101562000946578489015162000942601f89168262000836565b8355505b6001600288020188555050505b505050505050565b6000819050919050565b62000970816200095b565b82525050565b620009818162000720565b82525050565b600060a0820190506200099e600083018862000965565b620009ad602083018762000965565b620009bc604083018662000965565b620009cb606083018562000976565b620009da6080830184620005cc565b9695505050505050565b600082825260208201905092915050565b60005b8381101562000a15578082015181840152602081019050620009f8565b60008484015250505050565b6000601f19601f8301169050919050565b600062000a3f82620005fa565b62000a4b8185620009e4565b935062000a5d818560208601620009f5565b62000a688162000a21565b840191505092915050565b6000602082019050818103600083015262000a8f818462000a32565b905092915050565b600081519050919050565b6000819050602082019050919050565b600062000ac082516200095b565b80915050919050565b600062000ad68262000a97565b8262000ae28462000aa2565b905062000aef8162000ab2565b9250602082101562000b325762000b2d7fffffffffffffffffffffffffffffffffffffffffffffffffffffffffffffffff83602003600802620006bd565b831692505b5050919050565b60805160a05160c05160e051610100516101205161014051613a2662000b946000396000611bcb01526000611b900152600061255c0152600061253b0152600061203e01526000612094015260006120bd0152613a266000f3fe60806040526004361061012a5760003560e01c806384b0196e116100ab578063a217fddf1161006f578063a217fddf146103b1578063ae102a1b146103dc578063d547741f14610419578063ddbb888914610442578063eede98811461046b578063f2fde38b146104945761012a565b806384b0196e146102d357806386cf14ae146103045780638da5cb5b1461032d5780638f39a8521461035857806391d14854146103745761012a565b8063460f676c116100f2578063460f676c14610212578063582abd121461024f5780635c975abb1461027a578063715018a6146102a55780638456cb59146102bc5761012a565b806301ffc9a71461012f578063248a9ca31461016c5780632f2ff15d146101a957806336568abe146101d25780633f4ba83a146101fb575b600080fd5b34801561013b57600080fd5b50610156600480360381019061015191906129a0565b6104bd565b60405161016391906129e8565b60405180910390f35b34801561017857600080fd5b50610193600480360381019061018e9190612a39565b610537565b6040516101a09190612a75565b60405180910390f35b3480156101b557600080fd5b506101d060048036038101906101cb9190612aee565b610557565b005b3480156101de57600080fd5b506101f960048036038101906101f49190612aee565b610579565b005b34801561020757600080fd5b506102106105f4565b005b34801561021e57600080fd5b5061023960048036038101906102349190612b64565b610606565b6040516102469190612bb3565b60405180910390f35b34801561025b57600080fd5b50610264610660565b6040516102719190612a75565b60405180910390f35b34801561028657600080fd5b5061028f610684565b60405161029c91906129e8565b60405180910390f35b3480156102b157600080fd5b506102ba61069b565b005b3480156102c857600080fd5b506102d16106af565b005b3480156102df57600080fd5b506102e86106c1565b6040516102fb9796959493929190612d66565b60405180910390f35b34801561031057600080fd5b5061032b60048036038101906103269190612e0e565b61076b565b005b34801561033957600080fd5b50610342610c1c565b60405161034f9190612e57565b60405180910390f35b610372600480360381019061036d9190612e91565b610c46565b005b34801561038057600080fd5b5061039b60048036038101906103969190612aee565b61105b565b6040516103a891906129e8565b60405180910390f35b3480156103bd57600080fd5b506103c66110c6565b6040516103d39190612a75565b60405180910390f35b3480156103e857600080fd5b5061040360048036038101906103fe9190612eda565b6110cd565b60405161041091906129e8565b60405180910390f35b34801561042557600080fd5b50610440600480360381019061043b9190612aee565b6110f7565b005b34801561044e57600080fd5b5061046960048036038101906104649190612f26565b611119565b005b34801561047757600080fd5b50610492600480360381019061048d9190612f6f565b6115b8565b005b3480156104a057600080fd5b506104bb60048036038101906104b69190612fc2565b611683565b005b60007f7965db0b000000000000000000000000000000000000000000000000000000007bffffffffffffffffffffffffffffffffffffffffffffffffffffffff1916827bffffffffffffffffffffffffffffffffffffffffffffffffffffffff19161480610530575061052f82611709565b5b9050919050565b600060036000838152602001908152602001600020600101549050919050565b61056082610537565b61056981611773565b6105738383611787565b50505050565b610581611879565b73ffffffffffffffffffffffffffffffffffffffff168173ffffffffffffffffffffffffffffffffffffffff16146105e5576040517f6697b23200000000000000000000000000000000000000000000000000000000815260040160405180910390fd5b6105ef8282611881565b505050565b6105fc611974565b6106046119fb565b565b600080600084815260200190815260200160002060008373ffffffffffffffffffffffffffffffffffffffff1673ffffffffffffffffffffffffffffffffffffffff16815260200190815260200160002054905092915050565b7f2aeb38be3df14d720aeb10a2de6df09b0fb3cd5c5ec256283a22d4593110ca4081565b6000600560009054906101000a900460ff16905090565b6106a3611974565b6106ad6000611a5e565b565b6106b7611974565b6106bf611b24565b565b6000606080600080600060606106d5611b87565b6106dd611bc2565b46306000801b600067ffffffffffffffff8111156106fe576106fd612fef565b5b60405190808252806020026020018201604052801561072c5781602001602082028036833780820191505090505b507f0f00000000000000000000000000000000000000000000000000000000000000959493929190965096509650965096509650965090919293949596565b610773611bfd565b61077b611c43565b8060a0013542106107c1576040517f08c379a00000000000000000000000000000000000000000000000000000000081526004016107b89061306a565b60405180910390fd5b60008060008360200135815260200190815260200160002060008360400160208101906107ee9190612fc2565b73ffffffffffffffffffffffffffffffffffffffff1673ffffffffffffffffffffffffffffffffffffffff1681526020019081526020016000205490508160600135811015610872576040517f08c379a0000000000000000000000000000000000000000000000000000000008152600401610869906130d6565b60405180910390fd5b60006109037ff7bf41d14fd0ff1192bfb1dfc33e3161d52079c1015bdf99fe4c9d027674fee0846000013585602001358660400160208101906108b59190612fc2565b87606001358860800160208101906108cd9190612fc2565b8960a001356040516020016108e897969594939291906130f6565b60405160208183030381529060405280519060200120611c84565b9050600160008460000135815260200190815260200160002060009054906101000a900460ff161561096a576040517f08c379a0000000000000000000000000000000000000000000000000000000008152600401610961906131b1565b60405180910390fd5b6109f87f2aeb38be3df14d720aeb10a2de6df09b0fb3cd5c5ec256283a22d4593110ca406109f3858060c001906109a191906131e0565b8080601f016020809104026020016040519081016040528093929190818152602001838380828437600081840152601f19601f8201169050808301925050505050505084611c9e90919063ffffffff16565b61105b565b610a37576040517f08c379a0000000000000000000000000000000000000000000000000000000008152600401610a2e9061328f565b60405180910390fd5b60018060008560000135815260200190815260200160002060006101000a81548160ff0219169083151502179055506000610a83846040016020810190610a7e9190612fc2565b611cca565b9050610ab8846080016020810190610a9b9190612fc2565b856040016020810190610aae9190612fc2565b8660600135611cdd565b6000610ad5856040016020810190610ad09190612fc2565b611cca565b82610ae091906132de565b905080841015610b25576040517f08c379a0000000000000000000000000000000000000000000000000000000008152600401610b1c9061335e565b60405180910390fd5b8084610b3191906132de565b600080876020013581526020019081526020016000206000876040016020810190610b5c9190612fc2565b73ffffffffffffffffffffffffffffffffffffffff1673ffffffffffffffffffffffffffffffffffffffff16815260200190815260200160002081905550846020013585600001357ffc3c5396e9d3deb68be49549ab668592d1b8c31d11c284b480e53986614792ea876040016020810190610bd89190612fc2565b8860600135896080016020810190610bf09190612fc2565b8a60a00135604051610c05949392919061337e565b60405180910390a350505050610c19611dd8565b50565b6000600260009054906101000a900473ffffffffffffffffffffffffffffffffffffffff16905090565b610c4e611bfd565b610c56611c43565b80608001354210610c9c576040517f08c379a0000000000000000000000000000000000000000000000000000000008152600401610c939061306a565b60405180910390fd5b6000610d197f0f137e2eafa9b45b32b2410912df8fa41a95abac5a5a9c7cb2a6ae11296330f483600001358460200135856040016020810190610cdf9190612fc2565b86606001358760800135604051602001610cfe969594939291906133c3565b60405160208183030381529060405280519060200120611c84565b9050600160008360000135815260200190815260200160002060009054906101000a900460ff1615610d80576040517f08c379a0000000000000000000000000000000000000000000000000000000008152600401610d77906131b1565b60405180910390fd5b610e0e7f2aeb38be3df14d720aeb10a2de6df09b0fb3cd5c5ec256283a22d4593110ca40610e09848060a00190610db791906131e0565b8080601f016020809104026020016040519081016040528093929190818152602001838380828437600081840152601f19601f8201169050808301925050505050505084611c9e90919063ffffffff16565b61105b565b610e4d576040517f08c379a0000000000000000000000000000000000000000000000000000000008152600401610e449061328f565b60405180910390fd5b60018060008460000135815260200190815260200160002060006101000a81548160ff0219169083151502179055506000610e99836040016020810190610e949190612fc2565b611cca565b9050610eb6836040016020810190610eb19190612fc2565b611de2565b15610eca573481610ec791906132de565b90505b610eea836040016020810190610ee09190612fc2565b8460600135611e2e565b610f05836040016020810190610f009190612fc2565b611de2565b8015610f145750826060013534115b15610f4857610f473373eeeeeeeeeeeeeeeeeeeeeeeeeeeeeeeeeeeeeeee856060013534610f4291906132de565b611cdd565b5b600081610f66856040016020810190610f619190612fc2565b611cca565b610f7091906132de565b905080600080866020013581526020019081526020016000206000866040016020810190610f9e9190612fc2565b73ffffffffffffffffffffffffffffffffffffffff1673ffffffffffffffffffffffffffffffffffffffff1681526020019081526020016000206000828254610fe79190613424565b92505081905550836020013584600001357fce8b9744d2394e4a278f2a6914ac5d147c9d2b32727418e90a72a01935ea54c486604001602081019061102c9190612fc2565b8760600135886080013560405161104593929190613458565b60405180910390a3505050611058611dd8565b50565b60006003600084815260200190815260200160002060000160008373ffffffffffffffffffffffffffffffffffffffff1673ffffffffffffffffffffffffffffffffffffffff16815260200190815260200160002060009054906101000a900460ff16905092915050565b6000801b81565b60006001600083815260200190815260200160002060009054906101000a900460ff169050919050565b61110082610537565b61110981611773565b6111138383611881565b50505050565b611121611bfd565b611129611c43565b8060a00135421061116f576040517f08c379a0000000000000000000000000000000000000000000000000000000008152600401611166906134db565b60405180910390fd5b600080600083602001358152602001908152602001600020600083604001602081019061119c9190612fc2565b73ffffffffffffffffffffffffffffffffffffffff1673ffffffffffffffffffffffffffffffffffffffff1681526020019081526020016000205490508160600135811015611220576040517f08c379a0000000000000000000000000000000000000000000000000000000008152600401611217906130d6565b60405180910390fd5b60006112b17f3f4e709c1ebeaa3efcb0bdd2f68417cb2d4b99a3dc3b24e4353ce5f6bf8e3369846000013585602001358660400160208101906112639190612fc2565b876060013588608001602081019061127b9190612fc2565b8960a0013560405160200161129697969594939291906130f6565b60405160208183030381529060405280519060200120611c84565b9050600160008460000135815260200190815260200160002060009054906101000a900460ff1615611318576040517f08c379a000000000000000000000000000000000000000000000000000000000815260040161130f906131b1565b60405180910390fd5b6113a67f2aeb38be3df14d720aeb10a2de6df09b0fb3cd5c5ec256283a22d4593110ca406113a1858060c0019061134f91906131e0565b8080601f016020809104026020016040519081016040528093929190818152602001838380828437600081840152601f19601f8201169050808301925050505050505084611c9e90919063ffffffff16565b61105b565b6113e5576040517f08c379a00000000000000000000000000000000000000000000000000000000081526004016113dc9061328f565b60405180910390fd5b60018060008560000135815260200190815260200160002060006101000a81548160ff021916908315150217905550600061143184604001602081019061142c9190612fc2565b611cca565b90506114543385604001602081019061144a9190612fc2565b8660600135611cdd565b600061147185604001602081019061146c9190612fc2565b611cca565b8261147c91906132de565b9050808410156114c1576040517f08c379a00000000000000000000000000000000000000000000000000000000081526004016114b89061335e565b60405180910390fd5b80846114cd91906132de565b6000808760200135815260200190815260200160002060008760400160208101906114f89190612fc2565b73ffffffffffffffffffffffffffffffffffffffff1673ffffffffffffffffffffffffffffffffffffffff16815260200190815260200160002081905550846020013585600001357f24073d699b5c164d11eaef97cdabe1bcd2e867d1806aad0cbffd0fff9293643a8760400160208101906115749190612fc2565b886060013589608001602081019061158c9190612fc2565b8a60a001356040516115a1949392919061337e565b60405180910390a3505050506115b5611dd8565b50565b6115c0611974565b6115cb818484611cdd565b600073ffffffffffffffffffffffffffffffffffffffff168173ffffffffffffffffffffffffffffffffffffffff160361163a576040517f08c379a000000000000000000000000000000000000000000000000000000000815260040161163190613547565b60405180910390fd5b7fcb771cd08d53de3a42aa78693ae8a3554442b3b630d53f3a457fb3859c547d79611663610c1c565b8285856040516116769493929190613567565b60405180910390a1505050565b61168b611974565b600073ffffffffffffffffffffffffffffffffffffffff168173ffffffffffffffffffffffffffffffffffffffff16036116fd5760006040517f1e4fbdf70000000000000000000000000000000000000000000000000000000081526004016116f49190612e57565b60405180910390fd5b61170681611a5e565b50565b60007f01ffc9a7000000000000000000000000000000000000000000000000000000007bffffffffffffffffffffffffffffffffffffffffffffffffffffffff1916827bffffffffffffffffffffffffffffffffffffffffffffffffffffffff1916149050919050565b6117848161177f611879565b611ef9565b50565b6000611793838361105b565b61186e5760016003600085815260200190815260200160002060000160008473ffffffffffffffffffffffffffffffffffffffff1673ffffffffffffffffffffffffffffffffffffffff16815260200190815260200160002060006101000a81548160ff02191690831515021790555061180b611879565b73ffffffffffffffffffffffffffffffffffffffff168273ffffffffffffffffffffffffffffffffffffffff16847f2f8788117e7eff1d82e926ec794901d17c78024a50270940304540a733656f0d60405160405180910390a460019050611873565b600090505b92915050565b600033905090565b600061188d838361105b565b156119695760006003600085815260200190815260200160002060000160008473ffffffffffffffffffffffffffffffffffffffff1673ffffffffffffffffffffffffffffffffffffffff16815260200190815260200160002060006101000a81548160ff021916908315150217905550611906611879565b73ffffffffffffffffffffffffffffffffffffffff168273ffffffffffffffffffffffffffffffffffffffff16847ff6391f5c32d9c69d2a47ea670b442974b53935d1edc7fd64eb21e047a839171b60405160405180910390a46001905061196e565b600090505b92915050565b61197c611879565b73ffffffffffffffffffffffffffffffffffffffff1661199a610c1c565b73ffffffffffffffffffffffffffffffffffffffff16146119f9576119bd611879565b6040517f118cdaa70000000000000000000000000000000000000000000000000000000081526004016119f09190612e57565b60405180910390fd5b565b611a03611f4a565b6000600560006101000a81548160ff0219169083151502179055507f5db9ee0a495bf2e6ff9c91a7834c1ba4fdd244a5e8aa4e537bd38aeae4b073aa611a47611879565b604051611a549190612e57565b60405180910390a1565b6000600260009054906101000a900473ffffffffffffffffffffffffffffffffffffffff16905081600260006101000a81548173ffffffffffffffffffffffffffffffffffffffff021916908373ffffffffffffffffffffffffffffffffffffffff1602179055508173ffffffffffffffffffffffffffffffffffffffff168173ffffffffffffffffffffffffffffffffffffffff167f8be0079c531659141344cd1fd0a4f28419497f9722a3daafe3b4186f6b6457e060405160405180910390a35050565b611b2c611c43565b6001600560006101000a81548160ff0219169083151502179055507f62e78cea01bee320cd4e420270b5ea74000d11b0c9f74754ebdbfc544b05a258611b70611879565b604051611b7d9190612e57565b60405180910390a1565b6060611bbd60067f0000000000000000000000000000000000000000000000000000000000000000611f8a90919063ffffffff16565b905090565b6060611bf860077f0000000000000000000000000000000000000000000000000000000000000000611f8a90919063ffffffff16565b905090565b600260045403611c39576040517f3ee5aeb500000000000000000000000000000000000000000000000000000000815260040160405180910390fd5b6002600481905550565b611c4b610684565b15611c82576040517fd93c066500000000000000000000000000000000000000000000000000000000815260040160405180910390fd5b565b6000611c97611c9161203a565b836120f1565b9050919050565b600080600080611cae8686612132565b925092509250611cbe828261218e565b82935050505092915050565b6000611cd682306122f2565b9050919050565b6000811115611dd357611cef82611de2565b15611da65760008373ffffffffffffffffffffffffffffffffffffffff1682604051611d1a906135dd565b60006040518083038185875af1925050503d8060008114611d57576040519150601f19603f3d011682016040523d82523d6000602084013e611d5c565b606091505b5050905080611da0576040517f08c379a0000000000000000000000000000000000000000000000000000000008152600401611d979061363e565b60405180910390fd5b50611dd2565b611dd183828473ffffffffffffffffffffffffffffffffffffffff166123a19092919063ffffffff16565b5b5b505050565b6001600481905550565b600073eeeeeeeeeeeeeeeeeeeeeeeeeeeeeeeeeeeeeeee73ffffffffffffffffffffffffffffffffffffffff168273ffffffffffffffffffffffffffffffffffffffff16149050919050565b60008111611e71576040517f08c379a0000000000000000000000000000000000000000000000000000000008152600401611e68906136aa565b60405180910390fd5b611e7a82611de2565b15611ec75780341015611ec2576040517f08c379a0000000000000000000000000000000000000000000000000000000008152600401611eb990613716565b60405180910390fd5b611ef5565b611ef43330838573ffffffffffffffffffffffffffffffffffffffff16612420909392919063ffffffff16565b5b5050565b611f03828261105b565b611f465780826040517fe2517d3f000000000000000000000000000000000000000000000000000000008152600401611f3d929190613736565b60405180910390fd5b5050565b611f52610684565b611f88576040517f8dfc202b00000000000000000000000000000000000000000000000000000000815260040160405180910390fd5b565b606060ff60001b8314611fa757611fa0836124a2565b9050612034565b818054611fb39061378e565b80601f0160208091040260200160405190810160405280929190818152602001828054611fdf9061378e565b801561202c5780601f106120015761010080835404028352916020019161202c565b820191906000526020600020905b81548152906001019060200180831161200f57829003601f168201915b505050505090505b92915050565b60007f000000000000000000000000000000000000000000000000000000000000000073ffffffffffffffffffffffffffffffffffffffff163073ffffffffffffffffffffffffffffffffffffffff161480156120b657507f000000000000000000000000000000000000000000000000000000000000000046145b156120e3577f000000000000000000000000000000000000000000000000000000000000000090506120ee565b6120eb612516565b90505b90565b60006040517f190100000000000000000000000000000000000000000000000000000000000081528360028201528260228201526042812091505092915050565b600080600060418451036121775760008060006020870151925060408701519150606087015160001a9050612169888285856125ac565b955095509550505050612187565b60006002855160001b9250925092505b9250925092565b600060038111156121a2576121a16137bf565b5b8260038111156121b5576121b46137bf565b5b03156122ee57600160038111156121cf576121ce6137bf565b5b8260038111156121e2576121e16137bf565b5b03612219576040517ff645eedf00000000000000000000000000000000000000000000000000000000815260040160405180910390fd5b6002600381111561222d5761222c6137bf565b5b8260038111156122405761223f6137bf565b5b03612285578060001c6040517ffce698f700000000000000000000000000000000000000000000000000000000815260040161227c9190612bb3565b60405180910390fd5b600380811115612298576122976137bf565b5b8260038111156122ab576122aa6137bf565b5b036122ed57806040517fd78bce0c0000000000000000000000000000000000000000000000000000000081526004016122e49190612a75565b60405180910390fd5b5b5050565b60006122fd83611de2565b612380578273ffffffffffffffffffffffffffffffffffffffff166370a08231836040518263ffffffff1660e01b815260040161233a9190612e57565b602060405180830381865afa158015612357573d6000803e3d6000fd5b505050506040513d601f19601f8201168201806040525081019061237b9190613803565b612399565b8173ffffffffffffffffffffffffffffffffffffffff16315b905092915050565b61241b838473ffffffffffffffffffffffffffffffffffffffff1663a9059cbb85856040516024016123d4929190613830565b604051602081830303815290604052915060e01b6020820180517bffffffffffffffffffffffffffffffffffffffffffffffffffffffff83818316178352505050506126a0565b505050565b61249c848573ffffffffffffffffffffffffffffffffffffffff166323b872dd86868660405160240161245593929190613859565b604051602081830303815290604052915060e01b6020820180517bffffffffffffffffffffffffffffffffffffffffffffffffffffffff83818316178352505050506126a0565b50505050565b606060006124af83612737565b90506000602067ffffffffffffffff8111156124ce576124cd612fef565b5b6040519080825280601f01601f1916602001820160405280156125005781602001600182028036833780820191505090505b5090508181528360208201528092505050919050565b60007f8b73c3c69bb8fe3d512ecc4cf759cc79239f7b179b0ffacaa9a75d522b39400f7f00000000000000000000000000000000000000000000000000000000000000007f00000000000000000000000000000000000000000000000000000000000000004630604051602001612591959493929190613890565b60405160208183030381529060405280519060200120905090565b60008060007f7fffffffffffffffffffffffffffffff5d576e7357a4501ddfe92f46681b20a08460001c11156125ec576000600385925092509250612696565b60006001888888886040516000815260200160405260405161261194939291906138ff565b6020604051602081039080840390855afa158015612633573d6000803e3d6000fd5b505050602060405103519050600073ffffffffffffffffffffffffffffffffffffffff168173ffffffffffffffffffffffffffffffffffffffff160361268757600060016000801b93509350935050612696565b8060008060001b935093509350505b9450945094915050565b60006126cb828473ffffffffffffffffffffffffffffffffffffffff1661278790919063ffffffff16565b905060008151141580156126f05750808060200190518101906126ee9190613970565b155b1561273257826040517f5274afe70000000000000000000000000000000000000000000000000000000081526004016127299190612e57565b60405180910390fd5b505050565b60008060ff8360001c169050601f81111561277e576040517fb3512b0c00000000000000000000000000000000000000000000000000000000815260040160405180910390fd5b80915050919050565b60606127958383600061279d565b905092915050565b6060814710156127e457306040517fcd7860590000000000000000000000000000000000000000000000000000000081526004016127db9190612e57565b60405180910390fd5b6000808573ffffffffffffffffffffffffffffffffffffffff16848660405161280d91906139d9565b60006040518083038185875af1925050503d806000811461284a576040519150601f19603f3d011682016040523d82523d6000602084013e61284f565b606091505b509150915061285f86838361286a565b925050509392505050565b60608261287f5761287a826128f9565b6128f1565b600082511480156128a7575060008473ffffffffffffffffffffffffffffffffffffffff163b145b156128e957836040517f9996b3150000000000000000000000000000000000000000000000000000000081526004016128e09190612e57565b60405180910390fd5b8190506128f2565b5b9392505050565b60008151111561290c5780518082602001fd5b6040517f1425ea4200000000000000000000000000000000000000000000000000000000815260040160405180910390fd5b600080fd5b600080fd5b60007fffffffff0000000000000000000000000000000000000000000000000000000082169050919050565b61297d81612948565b811461298857600080fd5b50565b60008135905061299a81612974565b92915050565b6000602082840312156129b6576129b561293e565b5b60006129c48482850161298b565b91505092915050565b60008115159050919050565b6129e2816129cd565b82525050565b60006020820190506129fd60008301846129d9565b92915050565b6000819050919050565b612a1681612a03565b8114612a2157600080fd5b50565b600081359050612a3381612a0d565b92915050565b600060208284031215612a4f57612a4e61293e565b5b6000612a5d84828501612a24565b91505092915050565b612a6f81612a03565b82525050565b6000602082019050612a8a6000830184612a66565b92915050565b600073ffffffffffffffffffffffffffffffffffffffff82169050919050565b6000612abb82612a90565b9050919050565b612acb81612ab0565b8114612ad657600080fd5b50565b600081359050612ae881612ac2565b92915050565b60008060408385031215612b0557612b0461293e565b5b6000612b1385828601612a24565b9250506020612b2485828601612ad9565b9150509250929050565b6000819050919050565b612b4181612b2e565b8114612b4c57600080fd5b50565b600081359050612b5e81612b38565b92915050565b60008060408385031215612b7b57612b7a61293e565b5b6000612b8985828601612b4f565b9250506020612b9a85828601612ad9565b9150509250929050565b612bad81612b2e565b82525050565b6000602082019050612bc86000830184612ba4565b92915050565b60007fff0000000000000000000000000000000000000000000000000000000000000082169050919050565b612c0381612bce565b82525050565b600081519050919050565b600082825260208201905092915050565b60005b83811015612c43578082015181840152602081019050612c28565b60008484015250505050565b6000601f19601f8301169050919050565b6000612c6b82612c09565b612c758185612c14565b9350612c85818560208601612c25565b612c8e81612c4f565b840191505092915050565b612ca281612ab0565b82525050565b600081519050919050565b600082825260208201905092915050565b6000819050602082019050919050565b612cdd81612b2e565b82525050565b6000612cef8383612cd4565b60208301905092915050565b6000602082019050919050565b6000612d1382612ca8565b612d1d8185612cb3565b9350612d2883612cc4565b8060005b83811015612d59578151612d408882612ce3565b9750612d4b83612cfb565b925050600181019050612d2c565b5085935050505092915050565b600060e082019050612d7b600083018a612bfa565b8181036020830152612d8d8189612c60565b90508181036040830152612da18188612c60565b9050612db06060830187612ba4565b612dbd6080830186612c99565b612dca60a0830185612a66565b81810360c0830152612ddc8184612d08565b905098975050505050505050565b600080fd5b600060e08284031215612e0557612e04612dea565b5b81905092915050565b600060208284031215612e2457612e2361293e565b5b600082013567ffffffffffffffff811115612e4257612e41612943565b5b612e4e84828501612def565b91505092915050565b6000602082019050612e6c6000830184612c99565b92915050565b600060c08284031215612e8857612e87612dea565b5b81905092915050565b600060208284031215612ea757612ea661293e565b5b600082013567ffffffffffffffff811115612ec557612ec4612943565b5b612ed184828501612e72565b91505092915050565b600060208284031215612ef057612eef61293e565b5b6000612efe84828501612b4f565b91505092915050565b600060e08284031215612f1d57612f1c612dea565b5b81905092915050565b600060208284031215612f3c57612f3b61293e565b5b600082013567ffffffffffffffff811115612f5a57612f59612943565b5b612f6684828501612f07565b91505092915050565b600080600060608486031215612f8857612f8761293e565b5b6000612f9686828701612ad9565b9350506020612fa786828701612b4f565b9250506040612fb886828701612ad9565b9150509250925092565b600060208284031215612fd857612fd761293e565b5b6000612fe684828501612ad9565b91505092915050565b7f4e487b7100000000000000000000000000000000000000000000000000000000600052604160045260246000fd5b7f5349474e41545552455f45585049525900000000000000000000000000000000600082015250565b6000613054601083612c14565b915061305f8261301e565b602082019050919050565b6000602082019050818103600083015261308381613047565b9050919050565b7f414d4f554e545f4558434545445f42414c414e43450000000000000000000000600082015250565b60006130c0601583612c14565b91506130cb8261308a565b602082019050919050565b600060208201905081810360008301526130ef816130b3565b9050919050565b600060e08201905061310b600083018a612a66565b6131186020830189612ba4565b6131256040830188612ba4565b6131326060830187612c99565b61313f6080830186612ba4565b61314c60a0830185612c99565b61315960c0830184612ba4565b98975050505050505050565b7f5349474e41545552455f555345445f414c524541445900000000000000000000600082015250565b600061319b601683612c14565b91506131a682613165565b602082019050919050565b600060208201905081810360008301526131ca8161318e565b9050919050565b600080fd5b600080fd5b600080fd5b600080833560016020038436030381126131fd576131fc6131d1565b5b80840192508235915067ffffffffffffffff82111561321f5761321e6131d6565b5b60208301925060018202360383131561323b5761323a6131db565b5b509250929050565b7f494e56414c49445f5349474e4552000000000000000000000000000000000000600082015250565b6000613279600e83612c14565b915061328482613243565b602082019050919050565b600060208201905081810360008301526132a88161326c565b9050919050565b7f4e487b7100000000000000000000000000000000000000000000000000000000600052601160045260246000fd5b60006132e982612b2e565b91506132f483612b2e565b925082820390508181111561330c5761330b6132af565b5b92915050565b7f534c4153485f544f4f5f4d554348000000000000000000000000000000000000600082015250565b6000613348600e83612c14565b915061335382613312565b602082019050919050565b600060208201905081810360008301526133778161333b565b9050919050565b60006080820190506133936000830187612c99565b6133a06020830186612ba4565b6133ad6040830185612c99565b6133ba6060830184612ba4565b95945050505050565b600060c0820190506133d86000830189612a66565b6133e56020830188612ba4565b6133f26040830187612ba4565b6133ff6060830186612c99565b61340c6080830185612ba4565b61341960a0830184612ba4565b979650505050505050565b600061342f82612b2e565b915061343a83612b2e565b9250828201905080821115613452576134516132af565b5b92915050565b600060608201905061346d6000830186612c99565b61347a6020830185612ba4565b6134876040830184612ba4565b949350505050565b7f5349474e41545552452045585049525900000000000000000000000000000000600082015250565b60006134c5601083612c14565b91506134d08261348f565b602082019050919050565b600060208201905081810360008301526134f4816134b8565b9050919050565b7f5a45524f5f524543495049454e54000000000000000000000000000000000000600082015250565b6000613531600e83612c14565b915061353c826134fb565b602082019050919050565b6000602082019050818103600083015261356081613524565b9050919050565b600060808201905061357c6000830187612c99565b6135896020830186612c99565b6135966040830185612c99565b6135a36060830184612ba4565b95945050505050565b600081905092915050565b50565b60006135c76000836135ac565b91506135d2826135b7565b600082019050919050565b60006135e8826135ba565b9150819050919050565b7f4e41544956455f544f4b454e5f5452414e534645525f4641494c454400000000600082015250565b6000613628601c83612c14565b9150613633826135f2565b602082019050919050565b600060208201905081810360008301526136578161361b565b9050919050565b7f5a45524f5f414d4f554e54000000000000000000000000000000000000000000600082015250565b6000613694600b83612c14565b915061369f8261365e565b602082019050919050565b600060208201905081810360008301526136c381613687565b9050919050565b7f494e5355464649454e545f4554485f414d4f554e540000000000000000000000600082015250565b6000613700601583612c14565b915061370b826136ca565b602082019050919050565b6000602082019050818103600083015261372f816136f3565b9050919050565b600060408201905061374b6000830185612c99565b6137586020830184612a66565b9392505050565b7f4e487b7100000000000000000000000000000000000000000000000000000000600052602260045260246000fd5b600060028204905060018216806137a657607f821691505b6020821081036137b9576137b861375f565b5b50919050565b7f4e487b7100000000000000000000000000000000000000000000000000000000600052602160045260246000fd5b6000815190506137fd81612b38565b92915050565b6000602082840312156138195761381861293e565b5b6000613827848285016137ee565b91505092915050565b60006040820190506138456000830185612c99565b6138526020830184612ba4565b9392505050565b600060608201905061386e6000830186612c99565b61387b6020830185612c99565b6138886040830184612ba4565b949350505050565b600060a0820190506138a56000830188612a66565b6138b26020830187612a66565b6138bf6040830186612a66565b6138cc6060830185612ba4565b6138d96080830184612c99565b9695505050505050565b600060ff82169050919050565b6138f9816138e3565b82525050565b60006080820190506139146000830187612a66565b61392160208301866138f0565b61392e6040830185612a66565b61393b6060830184612a66565b95945050505050565b61394d816129cd565b811461395857600080fd5b50565b60008151905061396a81613944565b92915050565b6000602082840312156139865761398561293e565b5b60006139948482850161395b565b91505092915050565b600081519050919050565b60006139b38261399d565b6139bd81856135ac565b93506139cd818560208601612c25565b80840191505092915050565b60006139e582846139a8565b91508190509291505056fea2646970667358221220797cfad8538a4fac6a61c0b7772c3fb823c06a4295544eaa78380cbaeebc81e564736f6c63430008180033",
  "linkReferences": {},
  "deployedLinkReferences": {}
}