{
  "_format": "hh-sol-artifact-1",
  "contractName": "RewardVault",
  "sourceName": "contracts/RewardVault.sol",
  "abi": [
    {
      "inputs": [],
      "stateMutability": "nonpayable",
      "type": "constructor"
    },
    {
      "inputs": [],
      "name": "AccessControlBadConfirmation",
      "type": "error"
    },
    {
      "inputs": [
        {
          "internalType": "address",
          "name": "account",
          "type": "address"
        },
        {
          "internalType": "bytes32",
          "name": "neededRole",
          "type": "bytes32"
        }
      ],
      "name": "AccessControlUnauthorizedAccount",
      "type": "error"
    },
    {
      "inputs": [
        {
          "internalType": "address",
          "name": "target",
          "type": "address"
        }
      ],
      "name": "AddressEmptyCode",
      "type": "error"
    },
    {
      "inputs": [
        {
          "internalType": "address",
          "name": "account",
          "type": "address"
        }
      ],
      "name": "AddressInsufficientBalance",
      "type": "error"
    },
    {
      "inputs": [],
      "name": "ECDSAInvalidSignature",
      "type": "error"
    },
    {
      "inputs": [
        {
          "internalType": "uint256",
          "name": "length",
          "type": "uint256"
        }
      ],
      "name": "ECDSAInvalidSignatureLength",
      "type": "error"
    },
    {
      "inputs": [
        {
          "internalType": "bytes32",
          "name": "s",
          "type": "bytes32"
        }
      ],
      "name": "ECDSAInvalidSignatureS",
      "type": "error"
    },
    {
      "inputs": [],
      "name": "EnforcedPause",
      "type": "error"
    },
    {
      "inputs": [],
      "name": "ExpectedPause",
      "type": "error"
    },
    {
      "inputs": [],
      "name": "FailedInnerCall",
      "type": "error"
    },
    {
      "inputs": [],
      "name": "InvalidShortString",
      "type": "error"
    },
    {
      "inputs": [
        {
          "internalType": "address",
          "name": "owner",
          "type": "address"
        }
      ],
      "name": "OwnableInvalidOwner",
      "type": "error"
    },
    {
      "inputs": [
        {
          "internalType": "address",
          "name": "account",
          "type": "address"
        }
      ],
      "name": "OwnableUnauthorizedAccount",
      "type": "error"
    },
    {
      "inputs": [],
      "name": "ReentrancyGuardReentrantCall",
      "type": "error"
    },
    {
      "inputs": [
        {
          "internalType": "address",
          "name": "token",
          "type": "address"
        }
      ],
      "name": "SafeERC20FailedOperation",
      "type": "error"
    },
    {
      "inputs": [
        {
          "internalType": "string",
          "name": "str",
          "type": "string"
        }
      ],
      "name": "StringTooLong",
      "type": "error"
    },
    {
      "anonymous": false,
      "inputs": [],
      "name": "EIP712DomainChanged",
      "type": "event"
    },
    {
      "anonymous": false,
      "inputs": [
        {
          "indexed": true,
          "internalType": "address",
          "name": "previousOwner",
          "type": "address"
        },
        {
          "indexed": true,
          "internalType": "address",
          "name": "newOwner",
          "type": "address"
        }
      ],
      "name": "OwnershipTransferred",
      "type": "event"
    },
    {
      "anonymous": false,
      "inputs": [
        {
          "indexed": false,
          "internalType": "address",
          "name": "account",
          "type": "address"
        }
      ],
      "name": "Paused",
      "type": "event"
    },
    {
      "anonymous": false,
      "inputs": [
        {
          "indexed": true,
          "internalType": "uint256",
          "name": "claimId",
          "type": "uint256"
        },
        {
          "indexed": true,
          "internalType": "uint256",
          "name": "projectId",
          "type": "uint256"
        },
        {
          "indexed": false,
          "internalType": "address",
          "name": "token",
          "type": "address"
        },
        {
          "indexed": false,
          "internalType": "uint256",
          "name": "amount",
          "type": "uint256"
        },
        {
          "indexed": false,
          "internalType": "address",
          "name": "recipient",
          "type": "address"
        },
        {
          "indexed": false,
          "internalType": "uint256",
          "name": "expireTime",
          "type": "uint256"
        }
      ],
      "name": "RewardsClaimed",
      "type": "event"
    },
    {
      "anonymous": false,
      "inputs": [
        {
          "indexed": true,
          "internalType": "bytes32",
          "name": "role",
          "type": "bytes32"
        },
        {
          "indexed": true,
          "internalType": "bytes32",
          "name": "previousAdminRole",
          "type": "bytes32"
        },
        {
          "indexed": true,
          "internalType": "bytes32",
          "name": "newAdminRole",
          "type": "bytes32"
        }
      ],
      "name": "RoleAdminChanged",
      "type": "event"
    },
    {
      "anonymous": false,
      "inputs": [
        {
          "indexed": true,
          "internalType": "bytes32",
          "name": "role",
          "type": "bytes32"
        },
        {
          "indexed": true,
          "internalType": "address",
          "name": "account",
          "type": "address"
        },
        {
          "indexed": true,
          "internalType": "address",
          "name": "sender",
          "type": "address"
        }
      ],
      "name": "RoleGranted",
      "type": "event"
    },
    {
      "anonymous": false,
      "inputs": [
        {
          "indexed": true,
          "internalType": "bytes32",
          "name": "role",
          "type": "bytes32"
        },
        {
          "indexed": true,
          "internalType": "address",
          "name": "account",
          "type": "address"
        },
        {
          "indexed": true,
          "internalType": "address",
          "name": "sender",
          "type": "address"
        }
      ],
      "name": "RoleRevoked",
      "type": "event"
    },
    {
      "anonymous": false,
      "inputs": [
        {
          "indexed": true,
          "internalType": "uint256",
          "name": "depositId",
          "type": "uint256"
        },
        {
          "indexed": true,
          "internalType": "uint256",
          "name": "projectId",
          "type": "uint256"
        },
        {
          "indexed": false,
          "internalType": "address",
          "name": "token",
          "type": "address"
        },
        {
          "indexed": false,
          "internalType": "uint256",
          "name": "amount",
          "type": "uint256"
        },
        {
          "indexed": false,
          "internalType": "uint256",
          "name": "expireTime",
          "type": "uint256"
        }
      ],
      "name": "TokenDeposited",
      "type": "event"
    },
    {
      "anonymous": false,
      "inputs": [
        {
          "indexed": true,
          "internalType": "uint256",
          "name": "withdrawId",
          "type": "uint256"
        },
        {
          "indexed": true,
          "internalType": "uint256",
          "name": "projectId",
          "type": "uint256"
        },
        {
          "indexed": false,
          "internalType": "address",
          "name": "token",
          "type": "address"
        },
        {
          "indexed": false,
          "internalType": "uint256",
          "name": "amount",
          "type": "uint256"
        },
        {
          "indexed": false,
          "internalType": "address",
          "name": "recipient",
          "type": "address"
        },
        {
          "indexed": false,
          "internalType": "uint256",
          "name": "expireTime",
          "type": "uint256"
        }
      ],
      "name": "TokenWithdrawed",
      "type": "event"
    },
    {
      "anonymous": false,
      "inputs": [
        {
          "indexed": false,
          "internalType": "address",
          "name": "account",
          "type": "address"
        }
      ],
      "name": "Unpaused",
      "type": "event"
    },
    {
      "inputs": [],
      "name": "DEFAULT_ADMIN_ROLE",
      "outputs": [
        {
          "internalType": "bytes32",
          "name": "",
          "type": "bytes32"
        }
      ],
      "stateMutability": "view",
      "type": "function"
    },
    {
      "inputs": [],
      "name": "SIGNER",
      "outputs": [
        {
          "internalType": "bytes32",
          "name": "",
          "type": "bytes32"
        }
      ],
      "stateMutability": "view",
      "type": "function"
    },
    {
      "inputs": [
        {
          "components": [
            {
              "internalType": "uint256",
              "name": "claimId",
              "type": "uint256"
            },
            {
              "internalType": "uint256",
              "name": "projectId",
              "type": "uint256"
            },
            {
              "internalType": "address",
              "name": "token",
              "type": "address"
            },
            {
              "internalType": "uint256",
              "name": "amount",
              "type": "uint256"
            },
            {
              "internalType": "address",
              "name": "recipient",
              "type": "address"
            },
            {
              "internalType": "uint256",
              "name": "expireTime",
              "type": "uint256"
            },
            {
              "internalType": "bytes",
              "name": "signature",
              "type": "bytes"
            }
          ],
          "internalType": "struct IRewardVault.ClaimParam",
          "name": "claimParam",
          "type": "tuple"
        }
      ],
      "name": "claim",
      "outputs": [],
      "stateMutability": "nonpayable",
      "type": "function"
    },
    {
      "inputs": [
        {
          "components": [
            {
              "internalType": "uint256",
              "name": "depositId",
              "type": "uint256"
            },
            {
              "internalType": "uint256",
              "name": "projectId",
              "type": "uint256"
            },
            {
              "internalType": "address",
              "name": "token",
              "type": "address"
            },
            {
              "internalType": "uint256",
              "name": "amount",
              "type": "uint256"
            },
            {
              "internalType": "uint256",
              "name": "expireTime",
              "type": "uint256"
            },
            {
              "internalType": "bytes",
              "name": "signature",
              "type": "bytes"
            }
          ],
          "internalType": "struct IRewardVault.DepositParam",
          "name": "depositParam",
          "type": "tuple"
        }
      ],
      "name": "deposit",
      "outputs": [],
      "stateMutability": "payable",
      "type": "function"
    },
    {
      "inputs": [],
      "name": "eip712Domain",
      "outputs": [
        {
          "internalType": "bytes1",
          "name": "fields",
          "type": "bytes1"
        },
        {
          "internalType": "string",
          "name": "name",
          "type": "string"
        },
        {
          "internalType": "string",
          "name": "version",
          "type": "string"
        },
        {
          "internalType": "uint256",
          "name": "chainId",
          "type": "uint256"
        },
        {
          "internalType": "address",
          "name": "verifyingContract",
          "type": "address"
        },
        {
          "internalType": "bytes32",
          "name": "salt",
          "type": "bytes32"
        },
        {
          "internalType": "uint256[]",
          "name": "extensions",
          "type": "uint256[]"
        }
      ],
      "stateMutability": "view",
      "type": "function"
    },
    {
      "inputs": [
        {
          "internalType": "bytes32",
          "name": "role",
          "type": "bytes32"
        }
      ],
      "name": "getRoleAdmin",
      "outputs": [
        {
          "internalType": "bytes32",
          "name": "",
          "type": "bytes32"
        }
      ],
      "stateMutability": "view",
      "type": "function"
    },
    {
      "inputs": [
        {
          "internalType": "uint256",
          "name": "projectId",
          "type": "uint256"
        },
        {
          "internalType": "address",
          "name": "token",
          "type": "address"
        }
      ],
      "name": "getTokenBalanceByProjectId",
      "outputs": [
        {
          "internalType": "uint256",
          "name": "",
          "type": "uint256"
        }
      ],
      "stateMutability": "view",
      "type": "function"
    },
    {
      "inputs": [
        {
          "internalType": "bytes32",
          "name": "role",
          "type": "bytes32"
        },
        {
          "internalType": "address",
          "name": "account",
          "type": "address"
        }
      ],
      "name": "grantRole",
      "outputs": [],
      "stateMutability": "nonpayable",
      "type": "function"
    },
    {
      "inputs": [
        {
          "internalType": "bytes32",
          "name": "role",
          "type": "bytes32"
        },
        {
          "internalType": "address",
          "name": "account",
          "type": "address"
        }
      ],
      "name": "hasRole",
      "outputs": [
        {
          "internalType": "bool",
          "name": "",
          "type": "bool"
        }
      ],
      "stateMutability": "view",
      "type": "function"
    },
    {
      "inputs": [
        {
          "internalType": "bytes32",
          "name": "hash",
          "type": "bytes32"
        }
      ],
      "name": "isUsedSignature",
      "outputs": [
        {
          "internalType": "bool",
          "name": "",
          "type": "bool"
        }
      ],
      "stateMutability": "view",
      "type": "function"
    },
    {
      "inputs": [],
      "name": "owner",
      "outputs": [
        {
          "internalType": "address",
          "name": "",
          "type": "address"
        }
      ],
      "stateMutability": "view",
      "type": "function"
    },
    {
      "inputs": [],
      "name": "pause",
      "outputs": [],
      "stateMutability": "nonpayable",
      "type": "function"
    },
    {
      "inputs": [],
      "name": "paused",
      "outputs": [
        {
          "internalType": "bool",
          "name": "",
          "type": "bool"
        }
      ],
      "stateMutability": "view",
      "type": "function"
    },
    {
      "inputs": [],
      "name": "renounceOwnership",
      "outputs": [],
      "stateMutability": "nonpayable",
      "type": "function"
    },
    {
      "inputs": [
        {
          "internalType": "bytes32",
          "name": "role",
          "type": "bytes32"
        },
        {
          "internalType": "address",
          "name": "callerConfirmation",
          "type": "address"
        }
      ],
      "name": "renounceRole",
      "outputs": [],
      "stateMutability": "nonpayable",
      "type": "function"
    },
    {
      "inputs": [
        {
          "internalType": "bytes32",
          "name": "role",
          "type": "bytes32"
        },
        {
          "internalType": "address",
          "name": "account",
          "type": "address"
        }
      ],
      "name": "revokeRole",
      "outputs": [],
      "stateMutability": "nonpayable",
      "type": "function"
    },
    {
      "inputs": [
        {
          "internalType": "bytes4",
          "name": "interfaceId",
          "type": "bytes4"
        }
      ],
      "name": "supportsInterface",
      "outputs": [
        {
          "internalType": "bool",
          "name": "",
          "type": "bool"
        }
      ],
      "stateMutability": "view",
      "type": "function"
    },
    {
      "inputs": [
        {
          "internalType": "address",
          "name": "newOwner",
          "type": "address"
        }
      ],
      "name": "transferOwnership",
      "outputs": [],
      "stateMutability": "nonpayable",
      "type": "function"
    },
    {
      "inputs": [],
      "name": "unpause",
      "outputs": [],
      "stateMutability": "nonpayable",
      "type": "function"
    },
    {
      "inputs": [
        {
          "components": [
            {
              "internalType": "uint256",
              "name": "withdrawId",
              "type": "uint256"
            },
            {
              "internalType": "uint256",
              "name": "projectId",
              "type": "uint256"
            },
            {
              "internalType": "address",
              "name": "token",
              "type": "address"
            },
            {
              "internalType": "uint256",
              "name": "amount",
              "type": "uint256"
            },
            {
              "internalType": "address",
              "name": "recipient",
              "type": "address"
            },
            {
              "internalType": "uint256",
              "name": "expireTime",
              "type": "uint256"
            },
            {
              "internalType": "bytes",
              "name": "signature",
              "type": "bytes"
            }
          ],
          "internalType": "struct IRewardVault.WithdrawalParam",
          "name": "withdrawalParam",
          "type": "tuple"
        }
      ],
      "name": "withdraw",
      "outputs": [],
      "stateMutability": "nonpayable",
      "type": "function"
    },
    {
      "inputs": [
        {
          "internalType": "address",
          "name": "token",
          "type": "address"
        },
        {
          "internalType": "uint256",
          "name": "amount",
          "type": "uint256"
        }
      ],
      "name": "withdrawExcessTokens",
      "outputs": [],
      "stateMutability": "nonpayable",
      "type": "function"
    }
  ],
  "bytecode": "0x6101606040523480156200001257600080fd5b506040518060400160405280601481526020017f62696e616e636520726577617264207661756c740000000000000000000000008152506040518060400160405280600581526020017f302e312e3000000000000000000000000000000000000000000000000000000081525033600073ffffffffffffffffffffffffffffffffffffffff168173ffffffffffffffffffffffffffffffffffffffff1603620000f55760006040517f1e4fbdf7000000000000000000000000000000000000000000000000000000008152600401620000ec9190620005dd565b60405180910390fd5b62000106816200020560201b60201c565b5060016004819055506000600560006101000a81548160ff02191690831515021790555062000140600683620002cb60201b90919060201c565b61012081815250506200015e600782620002cb60201b90919060201c565b6101408181525050818051906020012060e08181525050808051906020012061010081815250504660a081815250506200019d6200032360201b60201c565b608081815250503073ffffffffffffffffffffffffffffffffffffffff1660c08173ffffffffffffffffffffffffffffffffffffffff16815250505050620001fe6000801b620001f26200038060201b60201c565b620003aa60201b60201c565b5062000b39565b6000600260009054906101000a900473ffffffffffffffffffffffffffffffffffffffff16905081600260006101000a81548173ffffffffffffffffffffffffffffffffffffffff021916908373ffffffffffffffffffffffffffffffffffffffff1602179055508173ffffffffffffffffffffffffffffffffffffffff168173ffffffffffffffffffffffffffffffffffffffff167f8be0079c531659141344cd1fd0a4f28419497f9722a3daafe3b4186f6b6457e060405160405180910390a35050565b6000602083511015620002f157620002e983620004ae60201b60201c565b90506200031d565b8262000303836200051b60201b60201c565b600001908162000314919062000874565b5060ff60001b90505b92915050565b60007f8b73c3c69bb8fe3d512ecc4cf759cc79239f7b179b0ffacaa9a75d522b39400f60e0516101005146306040516020016200036595949392919062000987565b60405160208183030381529060405280519060200120905090565b6000600260009054906101000a900473ffffffffffffffffffffffffffffffffffffffff16905090565b6000620003be83836200052560201b60201c565b620004a35760016003600085815260200190815260200160002060000160008473ffffffffffffffffffffffffffffffffffffffff1673ffffffffffffffffffffffffffffffffffffffff16815260200190815260200160002060006101000a81548160ff0219169083151502179055506200043f6200059060201b60201c565b73ffffffffffffffffffffffffffffffffffffffff168273ffffffffffffffffffffffffffffffffffffffff16847f2f8788117e7eff1d82e926ec794901d17c78024a50270940304540a733656f0d60405160405180910390a460019050620004a8565b600090505b92915050565b600080829050601f81511115620004fe57826040517f305a27a9000000000000000000000000000000000000000000000000000000008152600401620004f5919062000a73565b60405180910390fd5b8051816200050c9062000ac9565b60001c1760001b915050919050565b6000819050919050565b60006003600084815260200190815260200160002060000160008373ffffffffffffffffffffffffffffffffffffffff1673ffffffffffffffffffffffffffffffffffffffff16815260200190815260200160002060009054906101000a900460ff16905092915050565b600033905090565b600073ffffffffffffffffffffffffffffffffffffffff82169050919050565b6000620005c58262000598565b9050919050565b620005d781620005b8565b82525050565b6000602082019050620005f46000830184620005cc565b92915050565b600081519050919050565b7f4e487b7100000000000000000000000000000000000000000000000000000000600052604160045260246000fd5b7f4e487b7100000000000000000000000000000000000000000000000000000000600052602260045260246000fd5b600060028204905060018216806200067c57607f821691505b60208210810362000692576200069162000634565b5b50919050565b60008190508160005260206000209050919050565b60006020601f8301049050919050565b600082821b905092915050565b600060088302620006fc7fffffffffffffffffffffffffffffffffffffffffffffffffffffffffffffffff82620006bd565b620007088683620006bd565b95508019841693508086168417925050509392505050565b6000819050919050565b6000819050919050565b6000620007556200074f620007498462000720565b6200072a565b62000720565b9050919050565b6000819050919050565b620007718362000734565b6200078962000780826200075c565b848454620006ca565b825550505050565b600090565b620007a062000791565b620007ad81848462000766565b505050565b5b81811015620007d557620007c960008262000796565b600181019050620007b3565b5050565b601f8211156200082457620007ee8162000698565b620007f984620006ad565b8101602085101562000809578190505b620008216200081885620006ad565b830182620007b2565b50505b505050565b600082821c905092915050565b6000620008496000198460080262000829565b1980831691505092915050565b600062000864838362000836565b9150826002028217905092915050565b6200087f82620005fa565b67ffffffffffffffff8111156200089b576200089a62000605565b5b620008a7825462000663565b620008b4828285620007d9565b600060209050601f831160018114620008ec5760008415620008d7578287015190505b620008e3858262000856565b86555062000953565b601f198416620008fc8662000698565b60005b828110156200092657848901518255600182019150602085019450602081019050620008ff565b8683101562000946578489015162000942601f89168262000836565b8355505b6001600288020188555050505b505050505050565b6000819050919050565b62000970816200095b565b82525050565b620009818162000720565b82525050565b600060a0820190506200099e600083018862000965565b620009ad602083018762000965565b620009bc604083018662000965565b620009cb606083018562000976565b620009da6080830184620005cc565b9695505050505050565b600082825260208201905092915050565b60005b8381101562000a15578082015181840152602081019050620009f8565b60008484015250505050565b6000601f19601f8301169050919050565b600062000a3f82620005fa565b62000a4b8185620009e4565b935062000a5d818560208601620009f5565b62000a688162000a21565b840191505092915050565b6000602082019050818103600083015262000a8f818462000a32565b905092915050565b600081519050919050565b6000819050602082019050919050565b600062000ac082516200095b565b80915050919050565b600062000ad68262000a97565b8262000ae28462000aa2565b905062000aef8162000ab2565b9250602082101562000b325762000b2d7fffffffffffffffffffffffffffffffffffffffffffffffffffffffffffffffff83602003600802620006bd565b831692505b5050919050565b60805160a05160c05160e05161010051610120516101405161376562000b946000396000611a6701526000611a2c015260006123f8015260006123d701526000611e8e01526000611ee401526000611f0d01526137656000f3fe60806040526004361061012a5760003560e01c8063715018a6116100ab5780638f39a8521161006f5780638f39a852146103be57806391d14854146103da578063a217fddf14610417578063d547741f14610442578063ddbb88891461046b578063f2fde38b146104945761012a565b8063715018a61461030b5780638456cb591461032257806384b0196e1461033957806386cf14ae1461036a5780638da5cb5b146103935761012a565b8063460f676c116100f2578063460f676c1461021257806353e052ac1461024f578063582abd12146102785780635c1bd098146102a35780635c975abb146102e05761012a565b806301ffc9a71461012f578063248a9ca31461016c5780632f2ff15d146101a957806336568abe146101d25780633f4ba83a146101fb575b600080fd5b34801561013b57600080fd5b506101566004803603810190610151919061283c565b6104bd565b6040516101639190612884565b60405180910390f35b34801561017857600080fd5b50610193600480360381019061018e91906128d5565b610537565b6040516101a09190612911565b60405180910390f35b3480156101b557600080fd5b506101d060048036038101906101cb919061298a565b610557565b005b3480156101de57600080fd5b506101f960048036038101906101f4919061298a565b610579565b005b34801561020757600080fd5b506102106105f4565b005b34801561021e57600080fd5b5061023960048036038101906102349190612a00565b610606565b6040516102469190612a4f565b60405180910390f35b34801561025b57600080fd5b5061027660048036038101906102719190612a6a565b610660565b005b34801561028457600080fd5b5061028d61066c565b60405161029a9190612911565b60405180910390f35b3480156102af57600080fd5b506102ca60048036038101906102c591906128d5565b610690565b6040516102d79190612884565b60405180910390f35b3480156102ec57600080fd5b506102f56106ba565b6040516103029190612884565b60405180910390f35b34801561031757600080fd5b506103206106d1565b005b34801561032e57600080fd5b506103376106e5565b005b34801561034557600080fd5b5061034e6106f7565b6040516103619796959493929190612c42565b60405180910390f35b34801561037657600080fd5b50610391600480360381019061038c9190612cea565b6107a1565b005b34801561039f57600080fd5b506103a8610c4a565b6040516103b59190612d33565b60405180910390f35b6103d860048036038101906103d39190612d6d565b610c74565b005b3480156103e657600080fd5b5061040160048036038101906103fc919061298a565b610ff4565b60405161040e9190612884565b60405180910390f35b34801561042357600080fd5b5061042c61105f565b6040516104399190612911565b60405180910390f35b34801561044e57600080fd5b506104696004803603810190610464919061298a565b611066565b005b34801561047757600080fd5b50610492600480360381019061048d9190612dd5565b611088565b005b3480156104a057600080fd5b506104bb60048036038101906104b69190612e1e565b61151f565b005b60007f7965db0b000000000000000000000000000000000000000000000000000000007bffffffffffffffffffffffffffffffffffffffffffffffffffffffff1916827bffffffffffffffffffffffffffffffffffffffffffffffffffffffff19161480610530575061052f826115a5565b5b9050919050565b600060036000838152602001908152602001600020600101549050919050565b61056082610537565b6105698161160f565b6105738383611623565b50505050565b610581611715565b73ffffffffffffffffffffffffffffffffffffffff168173ffffffffffffffffffffffffffffffffffffffff16146105e5576040517f6697b23200000000000000000000000000000000000000000000000000000000815260040160405180910390fd5b6105ef828261171d565b505050565b6105fc611810565b610604611897565b565b600080600084815260200190815260200160002060008373ffffffffffffffffffffffffffffffffffffffff1673ffffffffffffffffffffffffffffffffffffffff16815260200190815260200160002054905092915050565b610668611810565b5050565b7f2aeb38be3df14d720aeb10a2de6df09b0fb3cd5c5ec256283a22d4593110ca4081565b60006001600083815260200190815260200160002060009054906101000a900460ff169050919050565b6000600560009054906101000a900460ff16905090565b6106d9611810565b6106e360006118fa565b565b6106ed611810565b6106f56119c0565b565b60006060806000806000606061070b611a23565b610713611a5e565b46306000801b600067ffffffffffffffff81111561073457610733612e4b565b5b6040519080825280602002602001820160405280156107625781602001602082028036833780820191505090505b507f0f00000000000000000000000000000000000000000000000000000000000000959493929190965096509650965096509650965090919293949596565b6107a9611a99565b6107b1611adf565b8060a0013542106107f7576040517f08c379a00000000000000000000000000000000000000000000000000000000081526004016107ee90612ec6565b60405180910390fd5b60008060008360200135815260200190815260200160002060008360400160208101906108249190612e1e565b73ffffffffffffffffffffffffffffffffffffffff1673ffffffffffffffffffffffffffffffffffffffff16815260200190815260200160002054905081606001358110156108a8576040517f08c379a000000000000000000000000000000000000000000000000000000000815260040161089f90612f32565b60405180910390fd5b60006109397ff7bf41d14fd0ff1192bfb1dfc33e3161d52079c1015bdf99fe4c9d027674fee0846000013585602001358660400160208101906108eb9190612e1e565b87606001358860800160208101906109039190612e1e565b8960a0013560405160200161091e9796959493929190612f52565b60405160208183030381529060405280519060200120611b20565b90506001600082815260200190815260200160002060009054906101000a900460ff161561099c576040517f08c379a00000000000000000000000000000000000000000000000000000000081526004016109939061300d565b60405180910390fd5b610a2a7f2aeb38be3df14d720aeb10a2de6df09b0fb3cd5c5ec256283a22d4593110ca40610a25858060c001906109d3919061303c565b8080601f016020809104026020016040519081016040528093929190818152602001838380828437600081840152601f19601f8201169050808301925050505050505084611b3a90919063ffffffff16565b610ff4565b610a69576040517f08c379a0000000000000000000000000000000000000000000000000000000008152600401610a60906130eb565b60405180910390fd5b600180600083815260200190815260200160002060006101000a81548160ff0219169083151502179055506000610ab1846040016020810190610aac9190612e1e565b611b66565b9050610ae6846080016020810190610ac99190612e1e565b856040016020810190610adc9190612e1e565b8660600135611b79565b6000610b03856040016020810190610afe9190612e1e565b611b66565b82610b0e919061313a565b905080841015610b53576040517f08c379a0000000000000000000000000000000000000000000000000000000008152600401610b4a906131ba565b60405180910390fd5b8084610b5f919061313a565b600080876020013581526020019081526020016000206000876040016020810190610b8a9190612e1e565b73ffffffffffffffffffffffffffffffffffffffff1673ffffffffffffffffffffffffffffffffffffffff16815260200190815260200160002081905550846020013585600001357ffc3c5396e9d3deb68be49549ab668592d1b8c31d11c284b480e53986614792ea876040016020810190610c069190612e1e565b8860600135896080016020810190610c1e9190612e1e565b8a60a00135604051610c3394939291906131da565b60405180910390a350505050610c47611c74565b50565b6000600260009054906101000a900473ffffffffffffffffffffffffffffffffffffffff16905090565b610c7c611a99565b610c84611adf565b80608001354210610cca576040517f08c379a0000000000000000000000000000000000000000000000000000000008152600401610cc190612ec6565b60405180910390fd5b6000610d477f0f137e2eafa9b45b32b2410912df8fa41a95abac5a5a9c7cb2a6ae11296330f483600001358460200135856040016020810190610d0d9190612e1e565b86606001358760800135604051602001610d2c9695949392919061321f565b60405160208183030381529060405280519060200120611b20565b90506001600082815260200190815260200160002060009054906101000a900460ff1615610daa576040517f08c379a0000000000000000000000000000000000000000000000000000000008152600401610da19061300d565b60405180910390fd5b610e387f2aeb38be3df14d720aeb10a2de6df09b0fb3cd5c5ec256283a22d4593110ca40610e33848060a00190610de1919061303c565b8080601f016020809104026020016040519081016040528093929190818152602001838380828437600081840152601f19601f8201169050808301925050505050505084611b3a90919063ffffffff16565b610ff4565b610e77576040517f08c379a0000000000000000000000000000000000000000000000000000000008152600401610e6e906130eb565b60405180910390fd5b600180600083815260200190815260200160002060006101000a81548160ff0219169083151502179055506000610ebf836040016020810190610eba9190612e1e565b611b66565b9050610ee1836040016020810190610ed79190612e1e565b8460600135611c7e565b600081610eff856040016020810190610efa9190612e1e565b611b66565b610f09919061313a565b905080600080866020013581526020019081526020016000206000866040016020810190610f379190612e1e565b73ffffffffffffffffffffffffffffffffffffffff1673ffffffffffffffffffffffffffffffffffffffff1681526020019081526020016000206000828254610f809190613280565b92505081905550836020013584600001357fce8b9744d2394e4a278f2a6914ac5d147c9d2b32727418e90a72a01935ea54c4866040016020810190610fc59190612e1e565b87606001358860800135604051610fde939291906132b4565b60405180910390a3505050610ff1611c74565b50565b60006003600084815260200190815260200160002060000160008373ffffffffffffffffffffffffffffffffffffffff1673ffffffffffffffffffffffffffffffffffffffff16815260200190815260200160002060009054906101000a900460ff16905092915050565b6000801b81565b61106f82610537565b6110788161160f565b611082838361171d565b50505050565b611090611a99565b611098611adf565b8060a0013542106110de576040517f08c379a00000000000000000000000000000000000000000000000000000000081526004016110d590612ec6565b60405180910390fd5b600080600083602001358152602001908152602001600020600083604001602081019061110b9190612e1e565b73ffffffffffffffffffffffffffffffffffffffff1673ffffffffffffffffffffffffffffffffffffffff168152602001908152602001600020549050816060013581101561118f576040517f08c379a000000000000000000000000000000000000000000000000000000000815260040161118690612f32565b60405180910390fd5b60006112207f3f4e709c1ebeaa3efcb0bdd2f68417cb2d4b99a3dc3b24e4353ce5f6bf8e3369846000013585602001358660400160208101906111d29190612e1e565b87606001358860800160208101906111ea9190612e1e565b8960a001356040516020016112059796959493929190612f52565b60405160208183030381529060405280519060200120611b20565b90506001600082815260200190815260200160002060009054906101000a900460ff1615611283576040517f08c379a000000000000000000000000000000000000000000000000000000000815260040161127a9061300d565b60405180910390fd5b6113117f2aeb38be3df14d720aeb10a2de6df09b0fb3cd5c5ec256283a22d4593110ca4061130c858060c001906112ba919061303c565b8080601f016020809104026020016040519081016040528093929190818152602001838380828437600081840152601f19601f8201169050808301925050505050505084611b3a90919063ffffffff16565b610ff4565b611350576040517f08c379a0000000000000000000000000000000000000000000000000000000008152600401611347906130eb565b60405180910390fd5b600180600083815260200190815260200160002060006101000a81548160ff02191690831515021790555060006113988460400160208101906113939190612e1e565b611b66565b90506113bb338560400160208101906113b19190612e1e565b8660600135611b79565b60006113d88560400160208101906113d39190612e1e565b611b66565b826113e3919061313a565b905080841015611428576040517f08c379a000000000000000000000000000000000000000000000000000000000815260040161141f906131ba565b60405180910390fd5b8084611434919061313a565b60008087602001358152602001908152602001600020600087604001602081019061145f9190612e1e565b73ffffffffffffffffffffffffffffffffffffffff1673ffffffffffffffffffffffffffffffffffffffff16815260200190815260200160002081905550846020013585600001357f24073d699b5c164d11eaef97cdabe1bcd2e867d1806aad0cbffd0fff9293643a8760400160208101906114db9190612e1e565b88606001358960800160208101906114f39190612e1e565b8a60a0013560405161150894939291906131da565b60405180910390a35050505061151c611c74565b50565b611527611810565b600073ffffffffffffffffffffffffffffffffffffffff168173ffffffffffffffffffffffffffffffffffffffff16036115995760006040517f1e4fbdf70000000000000000000000000000000000000000000000000000000081526004016115909190612d33565b60405180910390fd5b6115a2816118fa565b50565b60007f01ffc9a7000000000000000000000000000000000000000000000000000000007bffffffffffffffffffffffffffffffffffffffffffffffffffffffff1916827bffffffffffffffffffffffffffffffffffffffffffffffffffffffff1916149050919050565b6116208161161b611715565b611d49565b50565b600061162f8383610ff4565b61170a5760016003600085815260200190815260200160002060000160008473ffffffffffffffffffffffffffffffffffffffff1673ffffffffffffffffffffffffffffffffffffffff16815260200190815260200160002060006101000a81548160ff0219169083151502179055506116a7611715565b73ffffffffffffffffffffffffffffffffffffffff168273ffffffffffffffffffffffffffffffffffffffff16847f2f8788117e7eff1d82e926ec794901d17c78024a50270940304540a733656f0d60405160405180910390a46001905061170f565b600090505b92915050565b600033905090565b60006117298383610ff4565b156118055760006003600085815260200190815260200160002060000160008473ffffffffffffffffffffffffffffffffffffffff1673ffffffffffffffffffffffffffffffffffffffff16815260200190815260200160002060006101000a81548160ff0219169083151502179055506117a2611715565b73ffffffffffffffffffffffffffffffffffffffff168273ffffffffffffffffffffffffffffffffffffffff16847ff6391f5c32d9c69d2a47ea670b442974b53935d1edc7fd64eb21e047a839171b60405160405180910390a46001905061180a565b600090505b92915050565b611818611715565b73ffffffffffffffffffffffffffffffffffffffff16611836610c4a565b73ffffffffffffffffffffffffffffffffffffffff161461189557611859611715565b6040517f118cdaa700000000000000000000000000000000000000000000000000000000815260040161188c9190612d33565b60405180910390fd5b565b61189f611d9a565b6000600560006101000a81548160ff0219169083151502179055507f5db9ee0a495bf2e6ff9c91a7834c1ba4fdd244a5e8aa4e537bd38aeae4b073aa6118e3611715565b6040516118f09190612d33565b60405180910390a1565b6000600260009054906101000a900473ffffffffffffffffffffffffffffffffffffffff16905081600260006101000a81548173ffffffffffffffffffffffffffffffffffffffff021916908373ffffffffffffffffffffffffffffffffffffffff1602179055508173ffffffffffffffffffffffffffffffffffffffff168173ffffffffffffffffffffffffffffffffffffffff167f8be0079c531659141344cd1fd0a4f28419497f9722a3daafe3b4186f6b6457e060405160405180910390a35050565b6119c8611adf565b6001600560006101000a81548160ff0219169083151502179055507f62e78cea01bee320cd4e420270b5ea74000d11b0c9f74754ebdbfc544b05a258611a0c611715565b604051611a199190612d33565b60405180910390a1565b6060611a5960067f0000000000000000000000000000000000000000000000000000000000000000611dda90919063ffffffff16565b905090565b6060611a9460077f0000000000000000000000000000000000000000000000000000000000000000611dda90919063ffffffff16565b905090565b600260045403611ad5576040517f3ee5aeb500000000000000000000000000000000000000000000000000000000815260040160405180910390fd5b6002600481905550565b611ae76106ba565b15611b1e576040517fd93c066500000000000000000000000000000000000000000000000000000000815260040160405180910390fd5b565b6000611b33611b2d611e8a565b83611f41565b9050919050565b600080600080611b4a8686611f82565b925092509250611b5a8282611fde565b82935050505092915050565b6000611b728230612142565b9050919050565b6000811115611c6f57611b8b826121f1565b15611c425760008373ffffffffffffffffffffffffffffffffffffffff1682604051611bb69061331c565b60006040518083038185875af1925050503d8060008114611bf3576040519150601f19603f3d011682016040523d82523d6000602084013e611bf8565b606091505b5050905080611c3c576040517f08c379a0000000000000000000000000000000000000000000000000000000008152600401611c339061337d565b60405180910390fd5b50611c6e565b611c6d83828473ffffffffffffffffffffffffffffffffffffffff1661223d9092919063ffffffff16565b5b5b505050565b6001600481905550565b60008111611cc1576040517f08c379a0000000000000000000000000000000000000000000000000000000008152600401611cb8906133e9565b60405180910390fd5b611cca826121f1565b15611d175780341015611d12576040517f08c379a0000000000000000000000000000000000000000000000000000000008152600401611d0990613455565b60405180910390fd5b611d45565b611d443330838573ffffffffffffffffffffffffffffffffffffffff166122bc909392919063ffffffff16565b5b5050565b611d538282610ff4565b611d965780826040517fe2517d3f000000000000000000000000000000000000000000000000000000008152600401611d8d929190613475565b60405180910390fd5b5050565b611da26106ba565b611dd8576040517f8dfc202b00000000000000000000000000000000000000000000000000000000815260040160405180910390fd5b565b606060ff60001b8314611df757611df08361233e565b9050611e84565b818054611e03906134cd565b80601f0160208091040260200160405190810160405280929190818152602001828054611e2f906134cd565b8015611e7c5780601f10611e5157610100808354040283529160200191611e7c565b820191906000526020600020905b815481529060010190602001808311611e5f57829003601f168201915b505050505090505b92915050565b60007f000000000000000000000000000000000000000000000000000000000000000073ffffffffffffffffffffffffffffffffffffffff163073ffffffffffffffffffffffffffffffffffffffff16148015611f0657507f000000000000000000000000000000000000000000000000000000000000000046145b15611f33577f00000000000000000000000000000000000000000000000000000000000000009050611f3e565b611f3b6123b2565b90505b90565b60006040517f190100000000000000000000000000000000000000000000000000000000000081528360028201528260228201526042812091505092915050565b60008060006041845103611fc75760008060006020870151925060408701519150606087015160001a9050611fb988828585612448565b955095509550505050611fd7565b60006002855160001b9250925092505b9250925092565b60006003811115611ff257611ff16134fe565b5b826003811115612005576120046134fe565b5b031561213e576001600381111561201f5761201e6134fe565b5b826003811115612032576120316134fe565b5b03612069576040517ff645eedf00000000000000000000000000000000000000000000000000000000815260040160405180910390fd5b6002600381111561207d5761207c6134fe565b5b8260038111156120905761208f6134fe565b5b036120d5578060001c6040517ffce698f70000000000000000000000000000000000000000000000000000000081526004016120cc9190612a4f565b60405180910390fd5b6003808111156120e8576120e76134fe565b5b8260038111156120fb576120fa6134fe565b5b0361213d57806040517fd78bce0c0000000000000000000000000000000000000000000000000000000081526004016121349190612911565b60405180910390fd5b5b5050565b600061214d836121f1565b6121d0578273ffffffffffffffffffffffffffffffffffffffff166370a08231836040518263ffffffff1660e01b815260040161218a9190612d33565b602060405180830381865afa1580156121a7573d6000803e3d6000fd5b505050506040513d601f19601f820116820180604052508101906121cb9190613542565b6121e9565b8173ffffffffffffffffffffffffffffffffffffffff16315b905092915050565b600073eeeeeeeeeeeeeeeeeeeeeeeeeeeeeeeeeeeeeeee73ffffffffffffffffffffffffffffffffffffffff168273ffffffffffffffffffffffffffffffffffffffff16149050919050565b6122b7838473ffffffffffffffffffffffffffffffffffffffff1663a9059cbb858560405160240161227092919061356f565b604051602081830303815290604052915060e01b6020820180517bffffffffffffffffffffffffffffffffffffffffffffffffffffffff838183161783525050505061253c565b505050565b612338848573ffffffffffffffffffffffffffffffffffffffff166323b872dd8686866040516024016122f193929190613598565b604051602081830303815290604052915060e01b6020820180517bffffffffffffffffffffffffffffffffffffffffffffffffffffffff838183161783525050505061253c565b50505050565b6060600061234b836125d3565b90506000602067ffffffffffffffff81111561236a57612369612e4b565b5b6040519080825280601f01601f19166020018201604052801561239c5781602001600182028036833780820191505090505b5090508181528360208201528092505050919050565b60007f8b73c3c69bb8fe3d512ecc4cf759cc79239f7b179b0ffacaa9a75d522b39400f7f00000000000000000000000000000000000000000000000000000000000000007f0000000000000000000000000000000000000000000000000000000000000000463060405160200161242d9594939291906135cf565b60405160208183030381529060405280519060200120905090565b60008060007f7fffffffffffffffffffffffffffffff5d576e7357a4501ddfe92f46681b20a08460001c1115612488576000600385925092509250612532565b6000600188888888604051600081526020016040526040516124ad949392919061363e565b6020604051602081039080840390855afa1580156124cf573d6000803e3d6000fd5b505050602060405103519050600073ffffffffffffffffffffffffffffffffffffffff168173ffffffffffffffffffffffffffffffffffffffff160361252357600060016000801b93509350935050612532565b8060008060001b935093509350505b9450945094915050565b6000612567828473ffffffffffffffffffffffffffffffffffffffff1661262390919063ffffffff16565b9050600081511415801561258c57508080602001905181019061258a91906136af565b155b156125ce57826040517f5274afe70000000000000000000000000000000000000000000000000000000081526004016125c59190612d33565b60405180910390fd5b505050565b60008060ff8360001c169050601f81111561261a576040517fb3512b0c00000000000000000000000000000000000000000000000000000000815260040160405180910390fd5b80915050919050565b606061263183836000612639565b905092915050565b60608147101561268057306040517fcd7860590000000000000000000000000000000000000000000000000000000081526004016126779190612d33565b60405180910390fd5b6000808573ffffffffffffffffffffffffffffffffffffffff1684866040516126a99190613718565b60006040518083038185875af1925050503d80600081146126e6576040519150601f19603f3d011682016040523d82523d6000602084013e6126eb565b606091505b50915091506126fb868383612706565b925050509392505050565b60608261271b5761271682612795565b61278d565b60008251148015612743575060008473ffffffffffffffffffffffffffffffffffffffff163b145b1561278557836040517f9996b31500000000000000000000000000000000000000000000000000000000815260040161277c9190612d33565b60405180910390fd5b81905061278e565b5b9392505050565b6000815111156127a85780518082602001fd5b6040517f1425ea4200000000000000000000000000000000000000000000000000000000815260040160405180910390fd5b600080fd5b600080fd5b60007fffffffff0000000000000000000000000000000000000000000000000000000082169050919050565b612819816127e4565b811461282457600080fd5b50565b60008135905061283681612810565b92915050565b600060208284031215612852576128516127da565b5b600061286084828501612827565b91505092915050565b60008115159050919050565b61287e81612869565b82525050565b60006020820190506128996000830184612875565b92915050565b6000819050919050565b6128b28161289f565b81146128bd57600080fd5b50565b6000813590506128cf816128a9565b92915050565b6000602082840312156128eb576128ea6127da565b5b60006128f9848285016128c0565b91505092915050565b61290b8161289f565b82525050565b60006020820190506129266000830184612902565b92915050565b600073ffffffffffffffffffffffffffffffffffffffff82169050919050565b60006129578261292c565b9050919050565b6129678161294c565b811461297257600080fd5b50565b6000813590506129848161295e565b92915050565b600080604083850312156129a1576129a06127da565b5b60006129af858286016128c0565b92505060206129c085828601612975565b9150509250929050565b6000819050919050565b6129dd816129ca565b81146129e857600080fd5b50565b6000813590506129fa816129d4565b92915050565b60008060408385031215612a1757612a166127da565b5b6000612a25858286016129eb565b9250506020612a3685828601612975565b9150509250929050565b612a49816129ca565b82525050565b6000602082019050612a646000830184612a40565b92915050565b60008060408385031215612a8157612a806127da565b5b6000612a8f85828601612975565b9250506020612aa0858286016129eb565b9150509250929050565b60007fff0000000000000000000000000000000000000000000000000000000000000082169050919050565b612adf81612aaa565b82525050565b600081519050919050565b600082825260208201905092915050565b60005b83811015612b1f578082015181840152602081019050612b04565b60008484015250505050565b6000601f19601f8301169050919050565b6000612b4782612ae5565b612b518185612af0565b9350612b61818560208601612b01565b612b6a81612b2b565b840191505092915050565b612b7e8161294c565b82525050565b600081519050919050565b600082825260208201905092915050565b6000819050602082019050919050565b612bb9816129ca565b82525050565b6000612bcb8383612bb0565b60208301905092915050565b6000602082019050919050565b6000612bef82612b84565b612bf98185612b8f565b9350612c0483612ba0565b8060005b83811015612c35578151612c1c8882612bbf565b9750612c2783612bd7565b925050600181019050612c08565b5085935050505092915050565b600060e082019050612c57600083018a612ad6565b8181036020830152612c698189612b3c565b90508181036040830152612c7d8188612b3c565b9050612c8c6060830187612a40565b612c996080830186612b75565b612ca660a0830185612902565b81810360c0830152612cb88184612be4565b905098975050505050505050565b600080fd5b600060e08284031215612ce157612ce0612cc6565b5b81905092915050565b600060208284031215612d0057612cff6127da565b5b600082013567ffffffffffffffff811115612d1e57612d1d6127df565b5b612d2a84828501612ccb565b91505092915050565b6000602082019050612d486000830184612b75565b92915050565b600060c08284031215612d6457612d63612cc6565b5b81905092915050565b600060208284031215612d8357612d826127da565b5b600082013567ffffffffffffffff811115612da157612da06127df565b5b612dad84828501612d4e565b91505092915050565b600060e08284031215612dcc57612dcb612cc6565b5b81905092915050565b600060208284031215612deb57612dea6127da565b5b600082013567ffffffffffffffff811115612e0957612e086127df565b5b612e1584828501612db6565b91505092915050565b600060208284031215612e3457612e336127da565b5b6000612e4284828501612975565b91505092915050565b7f4e487b7100000000000000000000000000000000000000000000000000000000600052604160045260246000fd5b7f5349474e41545552452045585049525900000000000000000000000000000000600082015250565b6000612eb0601083612af0565b9150612ebb82612e7a565b602082019050919050565b60006020820190508181036000830152612edf81612ea3565b9050919050565b7f616d6f756e74206578636565642062616c616e63650000000000000000000000600082015250565b6000612f1c601583612af0565b9150612f2782612ee6565b602082019050919050565b60006020820190508181036000830152612f4b81612f0f565b9050919050565b600060e082019050612f67600083018a612902565b612f746020830189612a40565b612f816040830188612a40565b612f8e6060830187612b75565b612f9b6080830186612a40565b612fa860a0830185612b75565b612fb560c0830184612a40565b98975050505050505050565b7f5349474e41545552455f555345445f414c524541445900000000000000000000600082015250565b6000612ff7601683612af0565b915061300282612fc1565b602082019050919050565b6000602082019050818103600083015261302681612fea565b9050919050565b600080fd5b600080fd5b600080fd5b600080833560016020038436030381126130595761305861302d565b5b80840192508235915067ffffffffffffffff82111561307b5761307a613032565b5b60208301925060018202360383131561309757613096613037565b5b509250929050565b7f494e56414c49445f5349474e4552000000000000000000000000000000000000600082015250565b60006130d5600e83612af0565b91506130e08261309f565b602082019050919050565b60006020820190508181036000830152613104816130c8565b9050919050565b7f4e487b7100000000000000000000000000000000000000000000000000000000600052601160045260246000fd5b6000613145826129ca565b9150613150836129ca565b92508282039050818111156131685761316761310b565b5b92915050565b7f534c4153485f544f4f5f4d554348000000000000000000000000000000000000600082015250565b60006131a4600e83612af0565b91506131af8261316e565b602082019050919050565b600060208201905081810360008301526131d381613197565b9050919050565b60006080820190506131ef6000830187612b75565b6131fc6020830186612a40565b6132096040830185612b75565b6132166060830184612a40565b95945050505050565b600060c0820190506132346000830189612902565b6132416020830188612a40565b61324e6040830187612a40565b61325b6060830186612b75565b6132686080830185612a40565b61327560a0830184612a40565b979650505050505050565b600061328b826129ca565b9150613296836129ca565b92508282019050808211156132ae576132ad61310b565b5b92915050565b60006060820190506132c96000830186612b75565b6132d66020830185612a40565b6132e36040830184612a40565b949350505050565b600081905092915050565b50565b60006133066000836132eb565b9150613311826132f6565b600082019050919050565b6000613327826132f9565b9150819050919050565b7f4e41544956455f544f4b454e5f5452414e534645525f4641494c454400000000600082015250565b6000613367601c83612af0565b915061337282613331565b602082019050919050565b600060208201905081810360008301526133968161335a565b9050919050565b7f5a45524f5f414d4f554e54000000000000000000000000000000000000000000600082015250565b60006133d3600b83612af0565b91506133de8261339d565b602082019050919050565b60006020820190508181036000830152613402816133c6565b9050919050565b7f494e5355464649454e545f4554485f414d4f554e540000000000000000000000600082015250565b600061343f601583612af0565b915061344a82613409565b602082019050919050565b6000602082019050818103600083015261346e81613432565b9050919050565b600060408201905061348a6000830185612b75565b6134976020830184612902565b9392505050565b7f4e487b7100000000000000000000000000000000000000000000000000000000600052602260045260246000fd5b600060028204905060018216806134e557607f821691505b6020821081036134f8576134f761349e565b5b50919050565b7f4e487b7100000000000000000000000000000000000000000000000000000000600052602160045260246000fd5b60008151905061353c816129d4565b92915050565b600060208284031215613558576135576127da565b5b60006135668482850161352d565b91505092915050565b60006040820190506135846000830185612b75565b6135916020830184612a40565b9392505050565b60006060820190506135ad6000830186612b75565b6135ba6020830185612b75565b6135c76040830184612a40565b949350505050565b600060a0820190506135e46000830188612902565b6135f16020830187612902565b6135fe6040830186612902565b61360b6060830185612a40565b6136186080830184612b75565b9695505050505050565b600060ff82169050919050565b61363881613622565b82525050565b60006080820190506136536000830187612902565b613660602083018661362f565b61366d6040830185612902565b61367a6060830184612902565b95945050505050565b61368c81612869565b811461369757600080fd5b50565b6000815190506136a981613683565b92915050565b6000602082840312156136c5576136c46127da565b5b60006136d38482850161369a565b91505092915050565b600081519050919050565b60006136f2826136dc565b6136fc81856132eb565b935061370c818560208601612b01565b80840191505092915050565b600061372482846136e7565b91508190509291505056fea264697066735822122093b373a408037e390e04b192661e84e79ace1d7318a83a4284f1099cb83a247464736f6c63430008180033",
  "linkReferences": {},
  "deployedLinkReferences": {}
}