{
  "_format": "hh-sol-artifact-1",
  "contractName": "RewardVault",
  "sourceName": "contracts/RewardVault.sol",
  "abi": [
    {
      "inputs": [],
      "name": "AccessControlBadConfirmation",
      "type": "error"
    },
    {
      "inputs": [
        {
          "internalType": "address",
          "name": "account",
          "type": "address"
        },
        {
          "internalType": "bytes32",
          "name": "neededRole",
          "type": "bytes32"
        }
      ],
      "name": "AccessControlUnauthorizedAccount",
      "type": "error"
    },
    {
      "inputs": [
        {
          "internalType": "address",
          "name": "target",
          "type": "address"
        }
      ],
      "name": "AddressEmptyCode",
      "type": "error"
    },
    {
      "inputs": [
        {
          "internalType": "address",
          "name": "account",
          "type": "address"
        }
      ],
      "name": "AddressInsufficientBalance",
      "type": "error"
    },
    {
      "inputs": [],
      "name": "ECDSAInvalidSignature",
      "type": "error"
    },
    {
      "inputs": [
        {
          "internalType": "uint256",
          "name": "length",
          "type": "uint256"
        }
      ],
      "name": "ECDSAInvalidSignatureLength",
      "type": "error"
    },
    {
      "inputs": [
        {
          "internalType": "bytes32",
          "name": "s",
          "type": "bytes32"
        }
      ],
      "name": "ECDSAInvalidSignatureS",
      "type": "error"
    },
    {
      "inputs": [],
      "name": "EnforcedPause",
      "type": "error"
    },
    {
      "inputs": [],
      "name": "ExpectedPause",
      "type": "error"
    },
    {
      "inputs": [],
      "name": "FailedInnerCall",
      "type": "error"
    },
    {
      "inputs": [],
      "name": "InvalidInitialization",
      "type": "error"
    },
    {
      "inputs": [],
      "name": "NotInitializing",
      "type": "error"
    },
    {
      "inputs": [
        {
          "internalType": "address",
          "name": "owner",
          "type": "address"
        }
      ],
      "name": "OwnableInvalidOwner",
      "type": "error"
    },
    {
      "inputs": [
        {
          "internalType": "address",
          "name": "account",
          "type": "address"
        }
      ],
      "name": "OwnableUnauthorizedAccount",
      "type": "error"
    },
    {
      "inputs": [],
      "name": "ReentrancyGuardReentrantCall",
      "type": "error"
    },
    {
      "inputs": [
        {
          "internalType": "address",
          "name": "token",
          "type": "address"
        }
      ],
      "name": "SafeERC20FailedOperation",
      "type": "error"
    },
    {
      "anonymous": false,
      "inputs": [],
      "name": "EIP712DomainChanged",
      "type": "event"
    },
    {
      "anonymous": false,
      "inputs": [
        {
          "indexed": false,
          "internalType": "uint64",
          "name": "version",
          "type": "uint64"
        }
      ],
      "name": "Initialized",
      "type": "event"
    },
    {
      "anonymous": false,
      "inputs": [
        {
          "indexed": true,
          "internalType": "address",
          "name": "previousOwner",
          "type": "address"
        },
        {
          "indexed": true,
          "internalType": "address",
          "name": "newOwner",
          "type": "address"
        }
      ],
      "name": "OwnershipTransferred",
      "type": "event"
    },
    {
      "anonymous": false,
      "inputs": [
        {
          "indexed": false,
          "internalType": "address",
          "name": "account",
          "type": "address"
        }
      ],
      "name": "Paused",
      "type": "event"
    },
    {
      "anonymous": false,
      "inputs": [
        {
          "indexed": true,
          "internalType": "uint256",
          "name": "claimId",
          "type": "uint256"
        },
        {
          "indexed": true,
          "internalType": "uint256",
          "name": "projectId",
          "type": "uint256"
        },
        {
          "indexed": false,
          "internalType": "address",
          "name": "token",
          "type": "address"
        },
        {
          "indexed": false,
          "internalType": "uint256",
          "name": "amount",
          "type": "uint256"
        },
        {
          "indexed": false,
          "internalType": "address",
          "name": "recipient",
          "type": "address"
        },
        {
          "indexed": false,
          "internalType": "uint256",
          "name": "expireTime",
          "type": "uint256"
        }
      ],
      "name": "RewardsClaimed",
      "type": "event"
    },
    {
      "anonymous": false,
      "inputs": [
        {
          "indexed": true,
          "internalType": "bytes32",
          "name": "role",
          "type": "bytes32"
        },
        {
          "indexed": true,
          "internalType": "bytes32",
          "name": "previousAdminRole",
          "type": "bytes32"
        },
        {
          "indexed": true,
          "internalType": "bytes32",
          "name": "newAdminRole",
          "type": "bytes32"
        }
      ],
      "name": "RoleAdminChanged",
      "type": "event"
    },
    {
      "anonymous": false,
      "inputs": [
        {
          "indexed": true,
          "internalType": "bytes32",
          "name": "role",
          "type": "bytes32"
        },
        {
          "indexed": true,
          "internalType": "address",
          "name": "account",
          "type": "address"
        },
        {
          "indexed": true,
          "internalType": "address",
          "name": "sender",
          "type": "address"
        }
      ],
      "name": "RoleGranted",
      "type": "event"
    },
    {
      "anonymous": false,
      "inputs": [
        {
          "indexed": true,
          "internalType": "bytes32",
          "name": "role",
          "type": "bytes32"
        },
        {
          "indexed": true,
          "internalType": "address",
          "name": "account",
          "type": "address"
        },
        {
          "indexed": true,
          "internalType": "address",
          "name": "sender",
          "type": "address"
        }
      ],
      "name": "RoleRevoked",
      "type": "event"
    },
    {
      "anonymous": false,
      "inputs": [
        {
          "indexed": true,
          "internalType": "uint256",
          "name": "depositId",
          "type": "uint256"
        },
        {
          "indexed": true,
          "internalType": "uint256",
          "name": "projectId",
          "type": "uint256"
        },
        {
          "indexed": false,
          "internalType": "address",
          "name": "token",
          "type": "address"
        },
        {
          "indexed": false,
          "internalType": "uint256",
          "name": "amount",
          "type": "uint256"
        },
        {
          "indexed": false,
          "internalType": "uint256",
          "name": "expireTime",
          "type": "uint256"
        }
      ],
      "name": "TokenDeposited",
      "type": "event"
    },
    {
      "anonymous": false,
      "inputs": [
        {
          "indexed": true,
          "internalType": "uint256",
          "name": "withdrawId",
          "type": "uint256"
        },
        {
          "indexed": true,
          "internalType": "uint256",
          "name": "projectId",
          "type": "uint256"
        },
        {
          "indexed": false,
          "internalType": "address",
          "name": "token",
          "type": "address"
        },
        {
          "indexed": false,
          "internalType": "uint256",
          "name": "amount",
          "type": "uint256"
        },
        {
          "indexed": false,
          "internalType": "address",
          "name": "recipient",
          "type": "address"
        },
        {
          "indexed": false,
          "internalType": "uint256",
          "name": "expireTime",
          "type": "uint256"
        }
      ],
      "name": "TokenWithdrawed",
      "type": "event"
    },
    {
      "anonymous": false,
      "inputs": [
        {
          "indexed": false,
          "internalType": "address",
          "name": "withrawer",
          "type": "address"
        },
        {
          "indexed": false,
          "internalType": "address",
          "name": "recipient",
          "type": "address"
        },
        {
          "indexed": false,
          "internalType": "address",
          "name": "token",
          "type": "address"
        },
        {
          "indexed": false,
          "internalType": "uint256",
          "name": "amount",
          "type": "uint256"
        }
      ],
      "name": "TokenWithdrawedByAdmin",
      "type": "event"
    },
    {
      "anonymous": false,
      "inputs": [
        {
          "indexed": false,
          "internalType": "address",
          "name": "account",
          "type": "address"
        }
      ],
      "name": "Unpaused",
      "type": "event"
    },
    {
      "inputs": [],
      "name": "DEFAULT_ADMIN_ROLE",
      "outputs": [
        {
          "internalType": "bytes32",
          "name": "",
          "type": "bytes32"
        }
      ],
      "stateMutability": "view",
      "type": "function"
    },
    {
      "inputs": [],
      "name": "GUARDIAN",
      "outputs": [
        {
          "internalType": "bytes32",
          "name": "",
          "type": "bytes32"
        }
      ],
      "stateMutability": "view",
      "type": "function"
    },
    {
      "inputs": [],
      "name": "SIGNER",
      "outputs": [
        {
          "internalType": "bytes32",
          "name": "",
          "type": "bytes32"
        }
      ],
      "stateMutability": "view",
      "type": "function"
    },
    {
      "inputs": [
        {
          "components": [
            {
              "internalType": "uint256",
              "name": "claimId",
              "type": "uint256"
            },
            {
              "internalType": "uint256",
              "name": "projectId",
              "type": "uint256"
            },
            {
              "internalType": "address",
              "name": "token",
              "type": "address"
            },
            {
              "internalType": "uint256",
              "name": "amount",
              "type": "uint256"
            },
            {
              "internalType": "address",
              "name": "recipient",
              "type": "address"
            },
            {
              "internalType": "uint256",
              "name": "expireTime",
              "type": "uint256"
            },
            {
              "internalType": "bytes",
              "name": "signature",
              "type": "bytes"
            }
          ],
          "internalType": "struct IRewardVault.ClaimParam",
          "name": "claimParam",
          "type": "tuple"
        }
      ],
      "name": "claim",
      "outputs": [],
      "stateMutability": "nonpayable",
      "type": "function"
    },
    {
      "inputs": [
        {
          "components": [
            {
              "internalType": "uint256",
              "name": "depositId",
              "type": "uint256"
            },
            {
              "internalType": "uint256",
              "name": "projectId",
              "type": "uint256"
            },
            {
              "internalType": "address",
              "name": "token",
              "type": "address"
            },
            {
              "internalType": "uint256",
              "name": "amount",
              "type": "uint256"
            },
            {
              "internalType": "uint256",
              "name": "expireTime",
              "type": "uint256"
            },
            {
              "internalType": "bytes",
              "name": "signature",
              "type": "bytes"
            }
          ],
          "internalType": "struct IRewardVault.DepositParam",
          "name": "depositParam",
          "type": "tuple"
        }
      ],
      "name": "deposit",
      "outputs": [],
      "stateMutability": "payable",
      "type": "function"
    },
    {
      "inputs": [],
      "name": "eip712Domain",
      "outputs": [
        {
          "internalType": "bytes1",
          "name": "fields",
          "type": "bytes1"
        },
        {
          "internalType": "string",
          "name": "name",
          "type": "string"
        },
        {
          "internalType": "string",
          "name": "version",
          "type": "string"
        },
        {
          "internalType": "uint256",
          "name": "chainId",
          "type": "uint256"
        },
        {
          "internalType": "address",
          "name": "verifyingContract",
          "type": "address"
        },
        {
          "internalType": "bytes32",
          "name": "salt",
          "type": "bytes32"
        },
        {
          "internalType": "uint256[]",
          "name": "extensions",
          "type": "uint256[]"
        }
      ],
      "stateMutability": "view",
      "type": "function"
    },
    {
      "inputs": [
        {
          "internalType": "uint256",
          "name": "requestId",
          "type": "uint256"
        }
      ],
      "name": "getIsRequestIdUsed",
      "outputs": [
        {
          "internalType": "bool",
          "name": "",
          "type": "bool"
        }
      ],
      "stateMutability": "view",
      "type": "function"
    },
    {
      "inputs": [
        {
          "internalType": "bytes32",
          "name": "role",
          "type": "bytes32"
        }
      ],
      "name": "getRoleAdmin",
      "outputs": [
        {
          "internalType": "bytes32",
          "name": "",
          "type": "bytes32"
        }
      ],
      "stateMutability": "view",
      "type": "function"
    },
    {
      "inputs": [
        {
          "internalType": "uint256",
          "name": "projectId",
          "type": "uint256"
        },
        {
          "internalType": "address",
          "name": "token",
          "type": "address"
        }
      ],
      "name": "getTokenBalanceByProjectId",
      "outputs": [
        {
          "internalType": "uint256",
          "name": "",
          "type": "uint256"
        }
      ],
      "stateMutability": "view",
      "type": "function"
    },
    {
      "inputs": [
        {
          "internalType": "bytes32",
          "name": "role",
          "type": "bytes32"
        },
        {
          "internalType": "address",
          "name": "account",
          "type": "address"
        }
      ],
      "name": "grantRole",
      "outputs": [],
      "stateMutability": "nonpayable",
      "type": "function"
    },
    {
      "inputs": [
        {
          "internalType": "bytes32",
          "name": "role",
          "type": "bytes32"
        },
        {
          "internalType": "address",
          "name": "account",
          "type": "address"
        }
      ],
      "name": "hasRole",
      "outputs": [
        {
          "internalType": "bool",
          "name": "",
          "type": "bool"
        }
      ],
      "stateMutability": "view",
      "type": "function"
    },
    {
      "inputs": [
        {
          "internalType": "address",
          "name": "initialOwner",
          "type": "address"
        }
      ],
      "name": "initialize",
      "outputs": [],
      "stateMutability": "nonpayable",
      "type": "function"
    },
    {
      "inputs": [],
      "name": "owner",
      "outputs": [
        {
          "internalType": "address",
          "name": "",
          "type": "address"
        }
      ],
      "stateMutability": "view",
      "type": "function"
    },
    {
      "inputs": [],
      "name": "pause",
      "outputs": [],
      "stateMutability": "nonpayable",
      "type": "function"
    },
    {
      "inputs": [],
      "name": "paused",
      "outputs": [
        {
          "internalType": "bool",
          "name": "",
          "type": "bool"
        }
      ],
      "stateMutability": "view",
      "type": "function"
    },
    {
      "inputs": [],
      "name": "renounceOwnership",
      "outputs": [],
      "stateMutability": "nonpayable",
      "type": "function"
    },
    {
      "inputs": [
        {
          "internalType": "bytes32",
          "name": "role",
          "type": "bytes32"
        },
        {
          "internalType": "address",
          "name": "callerConfirmation",
          "type": "address"
        }
      ],
      "name": "renounceRole",
      "outputs": [],
      "stateMutability": "nonpayable",
      "type": "function"
    },
    {
      "inputs": [
        {
          "internalType": "bytes32",
          "name": "role",
          "type": "bytes32"
        },
        {
          "internalType": "address",
          "name": "account",
          "type": "address"
        }
      ],
      "name": "revokeRole",
      "outputs": [],
      "stateMutability": "nonpayable",
      "type": "function"
    },
    {
      "inputs": [
        {
          "internalType": "bytes4",
          "name": "interfaceId",
          "type": "bytes4"
        }
      ],
      "name": "supportsInterface",
      "outputs": [
        {
          "internalType": "bool",
          "name": "",
          "type": "bool"
        }
      ],
      "stateMutability": "view",
      "type": "function"
    },
    {
      "inputs": [
        {
          "internalType": "address",
          "name": "newOwner",
          "type": "address"
        }
      ],
      "name": "transferOwnership",
      "outputs": [],
      "stateMutability": "nonpayable",
      "type": "function"
    },
    {
      "inputs": [],
      "name": "unpause",
      "outputs": [],
      "stateMutability": "nonpayable",
      "type": "function"
    },
    {
      "inputs": [
        {
          "components": [
            {
              "internalType": "uint256",
              "name": "withdrawId",
              "type": "uint256"
            },
            {
              "internalType": "uint256",
              "name": "projectId",
              "type": "uint256"
            },
            {
              "internalType": "address",
              "name": "token",
              "type": "address"
            },
            {
              "internalType": "uint256",
              "name": "amount",
              "type": "uint256"
            },
            {
              "internalType": "address",
              "name": "recipient",
              "type": "address"
            },
            {
              "internalType": "uint256",
              "name": "expireTime",
              "type": "uint256"
            },
            {
              "internalType": "bytes",
              "name": "signature",
              "type": "bytes"
            }
          ],
          "internalType": "struct IRewardVault.WithdrawalParam",
          "name": "withdrawalParam",
          "type": "tuple"
        }
      ],
      "name": "withdraw",
      "outputs": [],
      "stateMutability": "nonpayable",
      "type": "function"
    },
    {
      "inputs": [
        {
          "internalType": "address",
          "name": "token",
          "type": "address"
        },
        {
          "internalType": "uint256",
          "name": "amount",
          "type": "uint256"
        },
        {
          "internalType": "address",
          "name": "recipient",
          "type": "address"
        }
      ],
      "name": "withdrawExcessTokens",
      "outputs": [],
      "stateMutability": "nonpayable",
      "type": "function"
    }
  ],
  "bytecode": "0x608060405234801561001057600080fd5b506143eb806100206000396000f3fe6080604052600436106101405760003560e01c806384b0196e116100b6578063ae102a1b1161006f578063ae102a1b1461041d578063c4d66de81461045a578063d547741f14610483578063ddbb8889146104ac578063eede9881146104d5578063f2fde38b146104fe57610140565b806384b0196e1461031457806386cf14ae146103455780638da5cb5b1461036e5780638f39a8521461039957806391d14854146103b5578063a217fddf146103f257610140565b8063460f676c11610108578063460f676c14610228578063582abd12146102655780635c975abb14610290578063715018a6146102bb578063724c184c146102d25780638456cb59146102fd57610140565b806301ffc9a714610145578063248a9ca3146101825780632f2ff15d146101bf57806336568abe146101e85780633f4ba83a14610211575b600080fd5b34801561015157600080fd5b5061016c60048036038101906101679190613011565b610527565b6040516101799190613059565b60405180910390f35b34801561018e57600080fd5b506101a960048036038101906101a491906130aa565b6105a1565b6040516101b691906130e6565b60405180910390f35b3480156101cb57600080fd5b506101e660048036038101906101e1919061315f565b6105cf565b005b3480156101f457600080fd5b5061020f600480360381019061020a919061315f565b6105f1565b005b34801561021d57600080fd5b5061022661066c565b005b34801561023457600080fd5b5061024f600480360381019061024a91906131d5565b6106a1565b60405161025c9190613224565b60405180910390f35b34801561027157600080fd5b5061027a6106fb565b60405161028791906130e6565b60405180910390f35b34801561029c57600080fd5b506102a561071f565b6040516102b29190613059565b60405180910390f35b3480156102c757600080fd5b506102d0610744565b005b3480156102de57600080fd5b506102e7610758565b6040516102f491906130e6565b60405180910390f35b34801561030957600080fd5b5061031261077c565b005b34801561032057600080fd5b506103296107b1565b60405161033c97969594939291906133d7565b60405180910390f35b34801561035157600080fd5b5061036c6004803603810190610367919061347f565b6108c3565b005b34801561037a57600080fd5b50610383610d74565b60405161039091906134c8565b60405180910390f35b6103b360048036038101906103ae9190613502565b610dac565b005b3480156103c157600080fd5b506103dc60048036038101906103d7919061315f565b6111c1565b6040516103e99190613059565b60405180910390f35b3480156103fe57600080fd5b5061040761123a565b60405161041491906130e6565b60405180910390f35b34801561042957600080fd5b50610444600480360381019061043f919061354b565b611241565b6040516104519190613059565b60405180910390f35b34801561046657600080fd5b50610481600480360381019061047c9190613578565b61126b565b005b34801561048f57600080fd5b506104aa60048036038101906104a5919061315f565b61149b565b005b3480156104b857600080fd5b506104d360048036038101906104ce91906135c4565b6114bd565b005b3480156104e157600080fd5b506104fc60048036038101906104f7919061360d565b61196e565b005b34801561050a57600080fd5b5061052560048036038101906105209190613578565b611a39565b005b60007f7965db0b000000000000000000000000000000000000000000000000000000007bffffffffffffffffffffffffffffffffffffffffffffffffffffffff1916827bffffffffffffffffffffffffffffffffffffffffffffffffffffffff1916148061059a575061059982611abf565b5b9050919050565b6000806105ac611b29565b905080600001600084815260200190815260200160002060010154915050919050565b6105d8826105a1565b6105e181611b51565b6105eb8383611b65565b50505050565b6105f9611c66565b73ffffffffffffffffffffffffffffffffffffffff168173ffffffffffffffffffffffffffffffffffffffff161461065d576040517f6697b23200000000000000000000000000000000000000000000000000000000815260040160405180910390fd5b6106678282611c6e565b505050565b7f8b5b16d04624687fcf0d0228f19993c9157c1ed07b41d8d430fd9100eb099fe861069681611b51565b61069e611d70565b50565b600080600084815260200190815260200160002060008373ffffffffffffffffffffffffffffffffffffffff1673ffffffffffffffffffffffffffffffffffffffff16815260200190815260200160002054905092915050565b7f2aeb38be3df14d720aeb10a2de6df09b0fb3cd5c5ec256283a22d4593110ca4081565b60008061072a611de2565b90508060000160009054906101000a900460ff1691505090565b61074c611e0a565b6107566000611e91565b565b7f8b5b16d04624687fcf0d0228f19993c9157c1ed07b41d8d430fd9100eb099fe881565b7f8b5b16d04624687fcf0d0228f19993c9157c1ed07b41d8d430fd9100eb099fe86107a681611b51565b6107ae611f68565b50565b60006060806000806000606060006107c7611fda565b90506000801b81600001541480156107e557506000801b8160010154145b610824576040517f08c379a000000000000000000000000000000000000000000000000000000000815260040161081b906136ac565b60405180910390fd5b61082c612002565b6108346120a3565b46306000801b600067ffffffffffffffff811115610855576108546136cc565b5b6040519080825280602002602001820160405280156108835781602001602082028036833780820191505090505b507f0f0000000000000000000000000000000000000000000000000000000000000095949392919097509750975097509750975097505090919293949596565b6108cb612144565b6108d361219b565b8060a001354210610919576040517f08c379a000000000000000000000000000000000000000000000000000000000815260040161091090613747565b60405180910390fd5b60008060008360200135815260200190815260200160002060008360400160208101906109469190613578565b73ffffffffffffffffffffffffffffffffffffffff1673ffffffffffffffffffffffffffffffffffffffff16815260200190815260200160002054905081606001358110156109ca576040517f08c379a00000000000000000000000000000000000000000000000000000000081526004016109c1906137b3565b60405180910390fd5b6000610a5b7ff7bf41d14fd0ff1192bfb1dfc33e3161d52079c1015bdf99fe4c9d027674fee084600001358560200135866040016020810190610a0d9190613578565b8760600135886080016020810190610a259190613578565b8960a00135604051602001610a4097969594939291906137d3565b604051602081830303815290604052805190602001206121dc565b9050600160008460000135815260200190815260200160002060009054906101000a900460ff1615610ac2576040517f08c379a0000000000000000000000000000000000000000000000000000000008152600401610ab99061388e565b60405180910390fd5b610b507f2aeb38be3df14d720aeb10a2de6df09b0fb3cd5c5ec256283a22d4593110ca40610b4b858060c00190610af991906138bd565b8080601f016020809104026020016040519081016040528093929190818152602001838380828437600081840152601f19601f82011690508083019250505050505050846121f690919063ffffffff16565b6111c1565b610b8f576040517f08c379a0000000000000000000000000000000000000000000000000000000008152600401610b869061396c565b60405180910390fd5b60018060008560000135815260200190815260200160002060006101000a81548160ff0219169083151502179055506000610bdb846040016020810190610bd69190613578565b612222565b9050610c10846080016020810190610bf39190613578565b856040016020810190610c069190613578565b8660600135612235565b6000610c2d856040016020810190610c289190613578565b612222565b82610c3891906139bb565b905080841015610c7d576040517f08c379a0000000000000000000000000000000000000000000000000000000008152600401610c7490613a3b565b60405180910390fd5b8084610c8991906139bb565b600080876020013581526020019081526020016000206000876040016020810190610cb49190613578565b73ffffffffffffffffffffffffffffffffffffffff1673ffffffffffffffffffffffffffffffffffffffff16815260200190815260200160002081905550846020013585600001357ffc3c5396e9d3deb68be49549ab668592d1b8c31d11c284b480e53986614792ea876040016020810190610d309190613578565b8860600135896080016020810190610d489190613578565b8a60a00135604051610d5d9493929190613a5b565b60405180910390a350505050610d71612330565b50565b600080610d7f612349565b90508060000160009054906101000a900473ffffffffffffffffffffffffffffffffffffffff1691505090565b610db4612144565b610dbc61219b565b80608001354210610e02576040517f08c379a0000000000000000000000000000000000000000000000000000000008152600401610df990613747565b60405180910390fd5b6000610e7f7f0f137e2eafa9b45b32b2410912df8fa41a95abac5a5a9c7cb2a6ae11296330f483600001358460200135856040016020810190610e459190613578565b86606001358760800135604051602001610e6496959493929190613aa0565b604051602081830303815290604052805190602001206121dc565b9050600160008360000135815260200190815260200160002060009054906101000a900460ff1615610ee6576040517f08c379a0000000000000000000000000000000000000000000000000000000008152600401610edd9061388e565b60405180910390fd5b610f747f2aeb38be3df14d720aeb10a2de6df09b0fb3cd5c5ec256283a22d4593110ca40610f6f848060a00190610f1d91906138bd565b8080601f016020809104026020016040519081016040528093929190818152602001838380828437600081840152601f19601f82011690508083019250505050505050846121f690919063ffffffff16565b6111c1565b610fb3576040517f08c379a0000000000000000000000000000000000000000000000000000000008152600401610faa9061396c565b60405180910390fd5b60018060008460000135815260200190815260200160002060006101000a81548160ff0219169083151502179055506000610fff836040016020810190610ffa9190613578565b612222565b905061101c8360400160208101906110179190613578565b612371565b1561103057348161102d91906139bb565b90505b6110508360400160208101906110469190613578565b84606001356123bd565b61106b8360400160208101906110669190613578565b612371565b801561107a5750826060013534115b156110ae576110ad3373eeeeeeeeeeeeeeeeeeeeeeeeeeeeeeeeeeeeeeee8560600135346110a891906139bb565b612235565b5b6000816110cc8560400160208101906110c79190613578565b612222565b6110d691906139bb565b9050806000808660200135815260200190815260200160002060008660400160208101906111049190613578565b73ffffffffffffffffffffffffffffffffffffffff1673ffffffffffffffffffffffffffffffffffffffff168152602001908152602001600020600082825461114d9190613b01565b92505081905550836020013584600001357fce8b9744d2394e4a278f2a6914ac5d147c9d2b32727418e90a72a01935ea54c48660400160208101906111929190613578565b876060013588608001356040516111ab93929190613b35565b60405180910390a35050506111be612330565b50565b6000806111cc611b29565b905080600001600085815260200190815260200160002060000160008473ffffffffffffffffffffffffffffffffffffffff1673ffffffffffffffffffffffffffffffffffffffff16815260200190815260200160002060009054906101000a900460ff1691505092915050565b6000801b81565b60006001600083815260200190815260200160002060009054906101000a900460ff169050919050565b6000611275612488565b905060008160000160089054906101000a900460ff1615905060008260000160009054906101000a900467ffffffffffffffff1690506000808267ffffffffffffffff161480156112c35750825b9050600060018367ffffffffffffffff161480156112f8575060003073ffffffffffffffffffffffffffffffffffffffff163b145b905081158015611306575080155b1561133d576040517ff92ee8a900000000000000000000000000000000000000000000000000000000815260040160405180910390fd5b60018560000160006101000a81548167ffffffffffffffff021916908367ffffffffffffffff160217905550831561138d5760018560000160086101000a81548160ff0219169083151502179055505b611396866124b0565b61139e6124c4565b6113a66124d6565b6113ae6124e8565b6114226040518060400160405280601481526020017f62696e616e636520726577617264207661756c740000000000000000000000008152506040518060400160405280600581526020017f302e312e300000000000000000000000000000000000000000000000000000008152506124f2565b6114366000801b611431610d74565b611b65565b5083156114935760008560000160086101000a81548160ff0219169083151502179055507fc7f505b2f371ae2175ee4913f4499e1f2633a7b5936321eed1cdaeb6115181d2600160405161148a9190613bc5565b60405180910390a15b505050505050565b6114a4826105a1565b6114ad81611b51565b6114b78383611c6e565b50505050565b6114c5612144565b6114cd61219b565b8060a001354210611513576040517f08c379a000000000000000000000000000000000000000000000000000000000815260040161150a90613c2c565b60405180910390fd5b60008060008360200135815260200190815260200160002060008360400160208101906115409190613578565b73ffffffffffffffffffffffffffffffffffffffff1673ffffffffffffffffffffffffffffffffffffffff16815260200190815260200160002054905081606001358110156115c4576040517f08c379a00000000000000000000000000000000000000000000000000000000081526004016115bb906137b3565b60405180910390fd5b60006116557f3f4e709c1ebeaa3efcb0bdd2f68417cb2d4b99a3dc3b24e4353ce5f6bf8e3369846000013585602001358660400160208101906116079190613578565b876060013588608001602081019061161f9190613578565b8960a0013560405160200161163a97969594939291906137d3565b604051602081830303815290604052805190602001206121dc565b9050600160008460000135815260200190815260200160002060009054906101000a900460ff16156116bc576040517f08c379a00000000000000000000000000000000000000000000000000000000081526004016116b39061388e565b60405180910390fd5b61174a7f2aeb38be3df14d720aeb10a2de6df09b0fb3cd5c5ec256283a22d4593110ca40611745858060c001906116f391906138bd565b8080601f016020809104026020016040519081016040528093929190818152602001838380828437600081840152601f19601f82011690508083019250505050505050846121f690919063ffffffff16565b6111c1565b611789576040517f08c379a00000000000000000000000000000000000000000000000000000000081526004016117809061396c565b60405180910390fd5b60018060008560000135815260200190815260200160002060006101000a81548160ff02191690831515021790555060006117d58460400160208101906117d09190613578565b612222565b905061180a8460800160208101906117ed9190613578565b8560400160208101906118009190613578565b8660600135612235565b60006118278560400160208101906118229190613578565b612222565b8261183291906139bb565b905080841015611877576040517f08c379a000000000000000000000000000000000000000000000000000000000815260040161186e90613a3b565b60405180910390fd5b808461188391906139bb565b6000808760200135815260200190815260200160002060008760400160208101906118ae9190613578565b73ffffffffffffffffffffffffffffffffffffffff1673ffffffffffffffffffffffffffffffffffffffff16815260200190815260200160002081905550846020013585600001357f24073d699b5c164d11eaef97cdabe1bcd2e867d1806aad0cbffd0fff9293643a87604001602081019061192a9190613578565b88606001358960800160208101906119429190613578565b8a60a001356040516119579493929190613a5b565b60405180910390a35050505061196b612330565b50565b611976611e0a565b611981818484612235565b600073ffffffffffffffffffffffffffffffffffffffff168173ffffffffffffffffffffffffffffffffffffffff16036119f0576040517f08c379a00000000000000000000000000000000000000000000000000000000081526004016119e790613c98565b60405180910390fd5b7fcb771cd08d53de3a42aa78693ae8a3554442b3b630d53f3a457fb3859c547d79611a19610d74565b828585604051611a2c9493929190613cb8565b60405180910390a1505050565b611a41611e0a565b600073ffffffffffffffffffffffffffffffffffffffff168173ffffffffffffffffffffffffffffffffffffffff1603611ab35760006040517f1e4fbdf7000000000000000000000000000000000000000000000000000000008152600401611aaa91906134c8565b60405180910390fd5b611abc81611e91565b50565b60007f01ffc9a7000000000000000000000000000000000000000000000000000000007bffffffffffffffffffffffffffffffffffffffffffffffffffffffff1916827bffffffffffffffffffffffffffffffffffffffffffffffffffffffff1916149050919050565b60007f02dd7bc7dec4dceedda775e58dd541e08a116c6c53815c0bd028192f7b626800905090565b611b6281611b5d611c66565b612508565b50565b600080611b70611b29565b9050611b7c84846111c1565b611c5a57600181600001600086815260200190815260200160002060000160008573ffffffffffffffffffffffffffffffffffffffff1673ffffffffffffffffffffffffffffffffffffffff16815260200190815260200160002060006101000a81548160ff021916908315150217905550611bf6611c66565b73ffffffffffffffffffffffffffffffffffffffff168373ffffffffffffffffffffffffffffffffffffffff16857f2f8788117e7eff1d82e926ec794901d17c78024a50270940304540a733656f0d60405160405180910390a46001915050611c60565b60009150505b92915050565b600033905090565b600080611c79611b29565b9050611c8584846111c1565b15611d6457600081600001600086815260200190815260200160002060000160008573ffffffffffffffffffffffffffffffffffffffff1673ffffffffffffffffffffffffffffffffffffffff16815260200190815260200160002060006101000a81548160ff021916908315150217905550611d00611c66565b73ffffffffffffffffffffffffffffffffffffffff168373ffffffffffffffffffffffffffffffffffffffff16857ff6391f5c32d9c69d2a47ea670b442974b53935d1edc7fd64eb21e047a839171b60405160405180910390a46001915050611d6a565b60009150505b92915050565b611d78612559565b6000611d82611de2565b905060008160000160006101000a81548160ff0219169083151502179055507f5db9ee0a495bf2e6ff9c91a7834c1ba4fdd244a5e8aa4e537bd38aeae4b073aa611dca611c66565b604051611dd791906134c8565b60405180910390a150565b60007fcd5ed15c6e187e77e9aee88184c21f4f2182ab5827cb3b7e07fbedcd63f03300905090565b611e12611c66565b73ffffffffffffffffffffffffffffffffffffffff16611e30610d74565b73ffffffffffffffffffffffffffffffffffffffff1614611e8f57611e53611c66565b6040517f118cdaa7000000000000000000000000000000000000000000000000000000008152600401611e8691906134c8565b60405180910390fd5b565b6000611e9b612349565b905060008160000160009054906101000a900473ffffffffffffffffffffffffffffffffffffffff169050828260000160006101000a81548173ffffffffffffffffffffffffffffffffffffffff021916908373ffffffffffffffffffffffffffffffffffffffff1602179055508273ffffffffffffffffffffffffffffffffffffffff168173ffffffffffffffffffffffffffffffffffffffff167f8be0079c531659141344cd1fd0a4f28419497f9722a3daafe3b4186f6b6457e060405160405180910390a3505050565b611f7061219b565b6000611f7a611de2565b905060018160000160006101000a81548160ff0219169083151502179055507f62e78cea01bee320cd4e420270b5ea74000d11b0c9f74754ebdbfc544b05a258611fc2611c66565b604051611fcf91906134c8565b60405180910390a150565b60007fa16a46d94261c7517cc8ff89f61c0ce93598e3c849801011dee649a6a557d100905090565b6060600061200e611fda565b905080600201805461201f90613d2c565b80601f016020809104026020016040519081016040528092919081815260200182805461204b90613d2c565b80156120985780601f1061206d57610100808354040283529160200191612098565b820191906000526020600020905b81548152906001019060200180831161207b57829003601f168201915b505050505091505090565b606060006120af611fda565b90508060030180546120c090613d2c565b80601f01602080910402602001604051908101604052809291908181526020018280546120ec90613d2c565b80156121395780601f1061210e57610100808354040283529160200191612139565b820191906000526020600020905b81548152906001019060200180831161211c57829003601f168201915b505050505091505090565b600061214e612599565b9050600281600001540361218e576040517f3ee5aeb500000000000000000000000000000000000000000000000000000000815260040160405180910390fd5b6002816000018190555050565b6121a361071f565b156121da576040517fd93c066500000000000000000000000000000000000000000000000000000000815260040160405180910390fd5b565b60006121ef6121e96125c1565b836125d0565b9050919050565b6000806000806122068686612611565b925092509250612216828261266d565b82935050505092915050565b600061222e82306127d1565b9050919050565b600081111561232b5761224782612371565b156122fe5760008373ffffffffffffffffffffffffffffffffffffffff168260405161227290613d8e565b60006040518083038185875af1925050503d80600081146122af576040519150601f19603f3d011682016040523d82523d6000602084013e6122b4565b606091505b50509050806122f8576040517f08c379a00000000000000000000000000000000000000000000000000000000081526004016122ef90613def565b60405180910390fd5b5061232a565b61232983828473ffffffffffffffffffffffffffffffffffffffff166128809092919063ffffffff16565b5b5b505050565b600061233a612599565b90506001816000018190555050565b60007f9016d09d72d40fdae2fd8ceac6b6234c7706214fd39c1cd1e609a0528c199300905090565b600073eeeeeeeeeeeeeeeeeeeeeeeeeeeeeeeeeeeeeeee73ffffffffffffffffffffffffffffffffffffffff168273ffffffffffffffffffffffffffffffffffffffff16149050919050565b60008111612400576040517f08c379a00000000000000000000000000000000000000000000000000000000081526004016123f790613e5b565b60405180910390fd5b61240982612371565b156124565780341015612451576040517f08c379a000000000000000000000000000000000000000000000000000000000815260040161244890613ec7565b60405180910390fd5b612484565b6124833330838573ffffffffffffffffffffffffffffffffffffffff166128ff909392919063ffffffff16565b5b5050565b60007ff0c57e16840df040f15088dc2f81fe391c3923bec73e23a9662efc9c229c6a00905090565b6124b8612981565b6124c1816129c1565b50565b6124cc612981565b6124d4612a47565b565b6124de612981565b6124e6612a7b565b565b6124f0612981565b565b6124fa612981565b6125048282612a9c565b5050565b61251282826111c1565b6125555780826040517fe2517d3f00000000000000000000000000000000000000000000000000000000815260040161254c929190613ee7565b60405180910390fd5b5050565b61256161071f565b612597576040517f8dfc202b00000000000000000000000000000000000000000000000000000000815260040160405180910390fd5b565b60007f9b779b17422d0df92223018b32b4d1fa46e071723d6817e2486d003becc55f00905090565b60006125cb612af1565b905090565b60006040517f190100000000000000000000000000000000000000000000000000000000000081528360028201528260228201526042812091505092915050565b600080600060418451036126565760008060006020870151925060408701519150606087015160001a905061264888828585612b55565b955095509550505050612666565b60006002855160001b9250925092505b9250925092565b6000600381111561268157612680613f10565b5b82600381111561269457612693613f10565b5b03156127cd57600160038111156126ae576126ad613f10565b5b8260038111156126c1576126c0613f10565b5b036126f8576040517ff645eedf00000000000000000000000000000000000000000000000000000000815260040160405180910390fd5b6002600381111561270c5761270b613f10565b5b82600381111561271f5761271e613f10565b5b03612764578060001c6040517ffce698f700000000000000000000000000000000000000000000000000000000815260040161275b9190613224565b60405180910390fd5b60038081111561277757612776613f10565b5b82600381111561278a57612789613f10565b5b036127cc57806040517fd78bce0c0000000000000000000000000000000000000000000000000000000081526004016127c391906130e6565b60405180910390fd5b5b5050565b60006127dc83612371565b61285f578273ffffffffffffffffffffffffffffffffffffffff166370a08231836040518263ffffffff1660e01b815260040161281991906134c8565b602060405180830381865afa158015612836573d6000803e3d6000fd5b505050506040513d601f19601f8201168201806040525081019061285a9190613f54565b612878565b8173ffffffffffffffffffffffffffffffffffffffff16315b905092915050565b6128fa838473ffffffffffffffffffffffffffffffffffffffff1663a9059cbb85856040516024016128b3929190613f81565b604051602081830303815290604052915060e01b6020820180517bffffffffffffffffffffffffffffffffffffffffffffffffffffffff8381831617835250505050612c49565b505050565b61297b848573ffffffffffffffffffffffffffffffffffffffff166323b872dd86868660405160240161293493929190613faa565b604051602081830303815290604052915060e01b6020820180517bffffffffffffffffffffffffffffffffffffffffffffffffffffffff8381831617835250505050612c49565b50505050565b612989612ce0565b6129bf576040517fd7e6bcf800000000000000000000000000000000000000000000000000000000815260040160405180910390fd5b565b6129c9612981565b600073ffffffffffffffffffffffffffffffffffffffff168173ffffffffffffffffffffffffffffffffffffffff1603612a3b5760006040517f1e4fbdf7000000000000000000000000000000000000000000000000000000008152600401612a3291906134c8565b60405180910390fd5b612a4481611e91565b50565b612a4f612981565b6000612a59611de2565b905060008160000160006101000a81548160ff02191690831515021790555050565b612a83612981565b6000612a8d612599565b90506001816000018190555050565b612aa4612981565b6000612aae611fda565b905082816002019081612ac19190614183565b5081816003019081612ad39190614183565b506000801b81600001819055506000801b8160010181905550505050565b60007f8b73c3c69bb8fe3d512ecc4cf759cc79239f7b179b0ffacaa9a75d522b39400f612b1c612d00565b612b24612d7c565b4630604051602001612b3a959493929190614255565b60405160208183030381529060405280519060200120905090565b60008060007f7fffffffffffffffffffffffffffffff5d576e7357a4501ddfe92f46681b20a08460001c1115612b95576000600385925092509250612c3f565b600060018888888860405160008152602001604052604051612bba94939291906142c4565b6020604051602081039080840390855afa158015612bdc573d6000803e3d6000fd5b505050602060405103519050600073ffffffffffffffffffffffffffffffffffffffff168173ffffffffffffffffffffffffffffffffffffffff1603612c3057600060016000801b93509350935050612c3f565b8060008060001b935093509350505b9450945094915050565b6000612c74828473ffffffffffffffffffffffffffffffffffffffff16612df890919063ffffffff16565b90506000815114158015612c99575080806020019051810190612c979190614335565b155b15612cdb57826040517f5274afe7000000000000000000000000000000000000000000000000000000008152600401612cd291906134c8565b60405180910390fd5b505050565b6000612cea612488565b60000160089054906101000a900460ff16905090565b600080612d0b611fda565b90506000612d17612002565b9050600081511115612d3457808051906020012092505050612d79565b6000826000015490506000801b8114612d5257809350505050612d79565b7fc5d2460186f7233c927e7db2dcc703c0e500b653ca82273b7bfad8045d85a47093505050505b90565b600080612d87611fda565b90506000612d936120a3565b9050600081511115612db057808051906020012092505050612df5565b6000826001015490506000801b8114612dce57809350505050612df5565b7fc5d2460186f7233c927e7db2dcc703c0e500b653ca82273b7bfad8045d85a47093505050505b90565b6060612e0683836000612e0e565b905092915050565b606081471015612e5557306040517fcd786059000000000000000000000000000000000000000000000000000000008152600401612e4c91906134c8565b60405180910390fd5b6000808573ffffffffffffffffffffffffffffffffffffffff168486604051612e7e919061439e565b60006040518083038185875af1925050503d8060008114612ebb576040519150601f19603f3d011682016040523d82523d6000602084013e612ec0565b606091505b5091509150612ed0868383612edb565b925050509392505050565b606082612ef057612eeb82612f6a565b612f62565b60008251148015612f18575060008473ffffffffffffffffffffffffffffffffffffffff163b145b15612f5a57836040517f9996b315000000000000000000000000000000000000000000000000000000008152600401612f5191906134c8565b60405180910390fd5b819050612f63565b5b9392505050565b600081511115612f7d5780518082602001fd5b6040517f1425ea4200000000000000000000000000000000000000000000000000000000815260040160405180910390fd5b600080fd5b600080fd5b60007fffffffff0000000000000000000000000000000000000000000000000000000082169050919050565b612fee81612fb9565b8114612ff957600080fd5b50565b60008135905061300b81612fe5565b92915050565b60006020828403121561302757613026612faf565b5b600061303584828501612ffc565b91505092915050565b60008115159050919050565b6130538161303e565b82525050565b600060208201905061306e600083018461304a565b92915050565b6000819050919050565b61308781613074565b811461309257600080fd5b50565b6000813590506130a48161307e565b92915050565b6000602082840312156130c0576130bf612faf565b5b60006130ce84828501613095565b91505092915050565b6130e081613074565b82525050565b60006020820190506130fb60008301846130d7565b92915050565b600073ffffffffffffffffffffffffffffffffffffffff82169050919050565b600061312c82613101565b9050919050565b61313c81613121565b811461314757600080fd5b50565b60008135905061315981613133565b92915050565b6000806040838503121561317657613175612faf565b5b600061318485828601613095565b92505060206131958582860161314a565b9150509250929050565b6000819050919050565b6131b28161319f565b81146131bd57600080fd5b50565b6000813590506131cf816131a9565b92915050565b600080604083850312156131ec576131eb612faf565b5b60006131fa858286016131c0565b925050602061320b8582860161314a565b9150509250929050565b61321e8161319f565b82525050565b60006020820190506132396000830184613215565b92915050565b60007fff0000000000000000000000000000000000000000000000000000000000000082169050919050565b6132748161323f565b82525050565b600081519050919050565b600082825260208201905092915050565b60005b838110156132b4578082015181840152602081019050613299565b60008484015250505050565b6000601f19601f8301169050919050565b60006132dc8261327a565b6132e68185613285565b93506132f6818560208601613296565b6132ff816132c0565b840191505092915050565b61331381613121565b82525050565b600081519050919050565b600082825260208201905092915050565b6000819050602082019050919050565b61334e8161319f565b82525050565b60006133608383613345565b60208301905092915050565b6000602082019050919050565b600061338482613319565b61338e8185613324565b935061339983613335565b8060005b838110156133ca5781516133b18882613354565b97506133bc8361336c565b92505060018101905061339d565b5085935050505092915050565b600060e0820190506133ec600083018a61326b565b81810360208301526133fe81896132d1565b9050818103604083015261341281886132d1565b90506134216060830187613215565b61342e608083018661330a565b61343b60a08301856130d7565b81810360c083015261344d8184613379565b905098975050505050505050565b600080fd5b600060e082840312156134765761347561345b565b5b81905092915050565b60006020828403121561349557613494612faf565b5b600082013567ffffffffffffffff8111156134b3576134b2612fb4565b5b6134bf84828501613460565b91505092915050565b60006020820190506134dd600083018461330a565b92915050565b600060c082840312156134f9576134f861345b565b5b81905092915050565b60006020828403121561351857613517612faf565b5b600082013567ffffffffffffffff81111561353657613535612fb4565b5b613542848285016134e3565b91505092915050565b60006020828403121561356157613560612faf565b5b600061356f848285016131c0565b91505092915050565b60006020828403121561358e5761358d612faf565b5b600061359c8482850161314a565b91505092915050565b600060e082840312156135bb576135ba61345b565b5b81905092915050565b6000602082840312156135da576135d9612faf565b5b600082013567ffffffffffffffff8111156135f8576135f7612fb4565b5b613604848285016135a5565b91505092915050565b60008060006060848603121561362657613625612faf565b5b60006136348682870161314a565b9350506020613645868287016131c0565b92505060406136568682870161314a565b9150509250925092565b7f4549503731323a20556e696e697469616c697a65640000000000000000000000600082015250565b6000613696601583613285565b91506136a182613660565b602082019050919050565b600060208201905081810360008301526136c581613689565b9050919050565b7f4e487b7100000000000000000000000000000000000000000000000000000000600052604160045260246000fd5b7f5349474e41545552455f45585049525900000000000000000000000000000000600082015250565b6000613731601083613285565b915061373c826136fb565b602082019050919050565b6000602082019050818103600083015261376081613724565b9050919050565b7f414d4f554e545f4558434545445f42414c414e43450000000000000000000000600082015250565b600061379d601583613285565b91506137a882613767565b602082019050919050565b600060208201905081810360008301526137cc81613790565b9050919050565b600060e0820190506137e8600083018a6130d7565b6137f56020830189613215565b6138026040830188613215565b61380f606083018761330a565b61381c6080830186613215565b61382960a083018561330a565b61383660c0830184613215565b98975050505050505050565b7f5349474e41545552455f555345445f414c524541445900000000000000000000600082015250565b6000613878601683613285565b915061388382613842565b602082019050919050565b600060208201905081810360008301526138a78161386b565b9050919050565b600080fd5b600080fd5b600080fd5b600080833560016020038436030381126138da576138d96138ae565b5b80840192508235915067ffffffffffffffff8211156138fc576138fb6138b3565b5b602083019250600182023603831315613918576139176138b8565b5b509250929050565b7f494e56414c49445f5349474e4552000000000000000000000000000000000000600082015250565b6000613956600e83613285565b915061396182613920565b602082019050919050565b6000602082019050818103600083015261398581613949565b9050919050565b7f4e487b7100000000000000000000000000000000000000000000000000000000600052601160045260246000fd5b60006139c68261319f565b91506139d18361319f565b92508282039050818111156139e9576139e861398c565b5b92915050565b7f534c4153485f544f4f5f4d554348000000000000000000000000000000000000600082015250565b6000613a25600e83613285565b9150613a30826139ef565b602082019050919050565b60006020820190508181036000830152613a5481613a18565b9050919050565b6000608082019050613a70600083018761330a565b613a7d6020830186613215565b613a8a604083018561330a565b613a976060830184613215565b95945050505050565b600060c082019050613ab560008301896130d7565b613ac26020830188613215565b613acf6040830187613215565b613adc606083018661330a565b613ae96080830185613215565b613af660a0830184613215565b979650505050505050565b6000613b0c8261319f565b9150613b178361319f565b9250828201905080821115613b2f57613b2e61398c565b5b92915050565b6000606082019050613b4a600083018661330a565b613b576020830185613215565b613b646040830184613215565b949350505050565b6000819050919050565b600067ffffffffffffffff82169050919050565b6000819050919050565b6000613baf613baa613ba584613b6c565b613b8a565b613b76565b9050919050565b613bbf81613b94565b82525050565b6000602082019050613bda6000830184613bb6565b92915050565b7f5349474e41545552452045585049525900000000000000000000000000000000600082015250565b6000613c16601083613285565b9150613c2182613be0565b602082019050919050565b60006020820190508181036000830152613c4581613c09565b9050919050565b7f5a45524f5f524543495049454e54000000000000000000000000000000000000600082015250565b6000613c82600e83613285565b9150613c8d82613c4c565b602082019050919050565b60006020820190508181036000830152613cb181613c75565b9050919050565b6000608082019050613ccd600083018761330a565b613cda602083018661330a565b613ce7604083018561330a565b613cf46060830184613215565b95945050505050565b7f4e487b7100000000000000000000000000000000000000000000000000000000600052602260045260246000fd5b60006002820490506001821680613d4457607f821691505b602082108103613d5757613d56613cfd565b5b50919050565b600081905092915050565b50565b6000613d78600083613d5d565b9150613d8382613d68565b600082019050919050565b6000613d9982613d6b565b9150819050919050565b7f4e41544956455f544f4b454e5f5452414e534645525f4641494c454400000000600082015250565b6000613dd9601c83613285565b9150613de482613da3565b602082019050919050565b60006020820190508181036000830152613e0881613dcc565b9050919050565b7f5a45524f5f414d4f554e54000000000000000000000000000000000000000000600082015250565b6000613e45600b83613285565b9150613e5082613e0f565b602082019050919050565b60006020820190508181036000830152613e7481613e38565b9050919050565b7f494e5355464649454e545f4554485f414d4f554e540000000000000000000000600082015250565b6000613eb1601583613285565b9150613ebc82613e7b565b602082019050919050565b60006020820190508181036000830152613ee081613ea4565b9050919050565b6000604082019050613efc600083018561330a565b613f0960208301846130d7565b9392505050565b7f4e487b7100000000000000000000000000000000000000000000000000000000600052602160045260246000fd5b600081519050613f4e816131a9565b92915050565b600060208284031215613f6a57613f69612faf565b5b6000613f7884828501613f3f565b91505092915050565b6000604082019050613f96600083018561330a565b613fa36020830184613215565b9392505050565b6000606082019050613fbf600083018661330a565b613fcc602083018561330a565b613fd96040830184613215565b949350505050565b60008190508160005260206000209050919050565b60006020601f8301049050919050565b600082821b905092915050565b6000600883026140437fffffffffffffffffffffffffffffffffffffffffffffffffffffffffffffffff82614006565b61404d8683614006565b95508019841693508086168417925050509392505050565b600061408061407b6140768461319f565b613b8a565b61319f565b9050919050565b6000819050919050565b61409a83614065565b6140ae6140a682614087565b848454614013565b825550505050565b600090565b6140c36140b6565b6140ce818484614091565b505050565b5b818110156140f2576140e76000826140bb565b6001810190506140d4565b5050565b601f8211156141375761410881613fe1565b61411184613ff6565b81016020851015614120578190505b61413461412c85613ff6565b8301826140d3565b50505b505050565b600082821c905092915050565b600061415a6000198460080261413c565b1980831691505092915050565b60006141738383614149565b9150826002028217905092915050565b61418c8261327a565b67ffffffffffffffff8111156141a5576141a46136cc565b5b6141af8254613d2c565b6141ba8282856140f6565b600060209050601f8311600181146141ed57600084156141db578287015190505b6141e58582614167565b86555061424d565b601f1984166141fb86613fe1565b60005b82811015614223578489015182556001820191506020850194506020810190506141fe565b86831015614240578489015161423c601f891682614149565b8355505b6001600288020188555050505b505050505050565b600060a08201905061426a60008301886130d7565b61427760208301876130d7565b61428460408301866130d7565b6142916060830185613215565b61429e608083018461330a565b9695505050505050565b600060ff82169050919050565b6142be816142a8565b82525050565b60006080820190506142d960008301876130d7565b6142e660208301866142b5565b6142f360408301856130d7565b61430060608301846130d7565b95945050505050565b6143128161303e565b811461431d57600080fd5b50565b60008151905061432f81614309565b92915050565b60006020828403121561434b5761434a612faf565b5b600061435984828501614320565b91505092915050565b600081519050919050565b600061437882614362565b6143828185613d5d565b9350614392818560208601613296565b80840191505092915050565b60006143aa828461436d565b91508190509291505056fea26469706673582212209e3e6d396bbfea548e52e65e5f998d86ab772879453fbce602b3485caf91bd6964736f6c63430008180033",
  "linkReferences": {},
  "deployedLinkReferences": {}
}