{
  "_format": "hh-sol-artifact-1",
  "contractName": "RewardVault",
  "sourceName": "contracts/RewardVault.sol",
  "abi": [
    {
      "inputs": [],
      "name": "AccessControlBadConfirmation",
      "type": "error"
    },
    {
      "inputs": [
        {
          "internalType": "address",
          "name": "account",
          "type": "address"
        },
        {
          "internalType": "bytes32",
          "name": "neededRole",
          "type": "bytes32"
        }
      ],
      "name": "AccessControlUnauthorizedAccount",
      "type": "error"
    },
    {
      "inputs": [
        {
          "internalType": "address",
          "name": "target",
          "type": "address"
        }
      ],
      "name": "AddressEmptyCode",
      "type": "error"
    },
    {
      "inputs": [
        {
          "internalType": "address",
          "name": "account",
          "type": "address"
        }
      ],
      "name": "AddressInsufficientBalance",
      "type": "error"
    },
    {
      "inputs": [],
      "name": "ECDSAInvalidSignature",
      "type": "error"
    },
    {
      "inputs": [
        {
          "internalType": "uint256",
          "name": "length",
          "type": "uint256"
        }
      ],
      "name": "ECDSAInvalidSignatureLength",
      "type": "error"
    },
    {
      "inputs": [
        {
          "internalType": "bytes32",
          "name": "s",
          "type": "bytes32"
        }
      ],
      "name": "ECDSAInvalidSignatureS",
      "type": "error"
    },
    {
      "inputs": [],
      "name": "EnforcedPause",
      "type": "error"
    },
    {
      "inputs": [],
      "name": "ExpectedPause",
      "type": "error"
    },
    {
      "inputs": [],
      "name": "FailedInnerCall",
      "type": "error"
    },
    {
      "inputs": [],
      "name": "InvalidInitialization",
      "type": "error"
    },
    {
      "inputs": [],
      "name": "NotInitializing",
      "type": "error"
    },
    {
      "inputs": [
        {
          "internalType": "address",
          "name": "owner",
          "type": "address"
        }
      ],
      "name": "OwnableInvalidOwner",
      "type": "error"
    },
    {
      "inputs": [
        {
          "internalType": "address",
          "name": "account",
          "type": "address"
        }
      ],
      "name": "OwnableUnauthorizedAccount",
      "type": "error"
    },
    {
      "inputs": [],
      "name": "ReentrancyGuardReentrantCall",
      "type": "error"
    },
    {
      "inputs": [
        {
          "internalType": "address",
          "name": "token",
          "type": "address"
        }
      ],
      "name": "SafeERC20FailedOperation",
      "type": "error"
    },
    {
      "anonymous": false,
      "inputs": [],
      "name": "EIP712DomainChanged",
      "type": "event"
    },
    {
      "anonymous": false,
      "inputs": [
        {
          "indexed": false,
          "internalType": "uint64",
          "name": "version",
          "type": "uint64"
        }
      ],
      "name": "Initialized",
      "type": "event"
    },
    {
      "anonymous": false,
      "inputs": [
        {
          "indexed": true,
          "internalType": "address",
          "name": "previousOwner",
          "type": "address"
        },
        {
          "indexed": true,
          "internalType": "address",
          "name": "newOwner",
          "type": "address"
        }
      ],
      "name": "OwnershipTransferred",
      "type": "event"
    },
    {
      "anonymous": false,
      "inputs": [
        {
          "indexed": false,
          "internalType": "address",
          "name": "account",
          "type": "address"
        }
      ],
      "name": "Paused",
      "type": "event"
    },
    {
      "anonymous": false,
      "inputs": [
        {
          "indexed": true,
          "internalType": "uint256",
          "name": "claimId",
          "type": "uint256"
        },
        {
          "indexed": true,
          "internalType": "uint256",
          "name": "projectId",
          "type": "uint256"
        },
        {
          "indexed": false,
          "internalType": "address",
          "name": "token",
          "type": "address"
        },
        {
          "indexed": false,
          "internalType": "uint256",
          "name": "amount",
          "type": "uint256"
        },
        {
          "indexed": false,
          "internalType": "address",
          "name": "recipient",
          "type": "address"
        },
        {
          "indexed": false,
          "internalType": "uint256",
          "name": "expireTime",
          "type": "uint256"
        }
      ],
      "name": "RewardsClaimed",
      "type": "event"
    },
    {
      "anonymous": false,
      "inputs": [
        {
          "indexed": true,
          "internalType": "bytes32",
          "name": "role",
          "type": "bytes32"
        },
        {
          "indexed": true,
          "internalType": "bytes32",
          "name": "previousAdminRole",
          "type": "bytes32"
        },
        {
          "indexed": true,
          "internalType": "bytes32",
          "name": "newAdminRole",
          "type": "bytes32"
        }
      ],
      "name": "RoleAdminChanged",
      "type": "event"
    },
    {
      "anonymous": false,
      "inputs": [
        {
          "indexed": true,
          "internalType": "bytes32",
          "name": "role",
          "type": "bytes32"
        },
        {
          "indexed": true,
          "internalType": "address",
          "name": "account",
          "type": "address"
        },
        {
          "indexed": true,
          "internalType": "address",
          "name": "sender",
          "type": "address"
        }
      ],
      "name": "RoleGranted",
      "type": "event"
    },
    {
      "anonymous": false,
      "inputs": [
        {
          "indexed": true,
          "internalType": "bytes32",
          "name": "role",
          "type": "bytes32"
        },
        {
          "indexed": true,
          "internalType": "address",
          "name": "account",
          "type": "address"
        },
        {
          "indexed": true,
          "internalType": "address",
          "name": "sender",
          "type": "address"
        }
      ],
      "name": "RoleRevoked",
      "type": "event"
    },
    {
      "anonymous": false,
      "inputs": [
        {
          "indexed": true,
          "internalType": "uint256",
          "name": "depositId",
          "type": "uint256"
        },
        {
          "indexed": true,
          "internalType": "uint256",
          "name": "projectId",
          "type": "uint256"
        },
        {
          "indexed": false,
          "internalType": "address",
          "name": "token",
          "type": "address"
        },
        {
          "indexed": false,
          "internalType": "uint256",
          "name": "amount",
          "type": "uint256"
        },
        {
          "indexed": false,
          "internalType": "uint256",
          "name": "expireTime",
          "type": "uint256"
        }
      ],
      "name": "TokenDeposited",
      "type": "event"
    },
    {
      "anonymous": false,
      "inputs": [
        {
          "indexed": true,
          "internalType": "uint256",
          "name": "withdrawId",
          "type": "uint256"
        },
        {
          "indexed": true,
          "internalType": "uint256",
          "name": "projectId",
          "type": "uint256"
        },
        {
          "indexed": false,
          "internalType": "address",
          "name": "token",
          "type": "address"
        },
        {
          "indexed": false,
          "internalType": "uint256",
          "name": "amount",
          "type": "uint256"
        },
        {
          "indexed": false,
          "internalType": "address",
          "name": "recipient",
          "type": "address"
        },
        {
          "indexed": false,
          "internalType": "uint256",
          "name": "expireTime",
          "type": "uint256"
        }
      ],
      "name": "TokenWithdrawed",
      "type": "event"
    },
    {
      "anonymous": false,
      "inputs": [
        {
          "indexed": false,
          "internalType": "address",
          "name": "withrawer",
          "type": "address"
        },
        {
          "indexed": false,
          "internalType": "address",
          "name": "recipient",
          "type": "address"
        },
        {
          "indexed": false,
          "internalType": "address",
          "name": "token",
          "type": "address"
        },
        {
          "indexed": false,
          "internalType": "uint256",
          "name": "amount",
          "type": "uint256"
        }
      ],
      "name": "TokenWithdrawedByAdmin",
      "type": "event"
    },
    {
      "anonymous": false,
      "inputs": [
        {
          "indexed": true,
          "internalType": "uint256",
          "name": "withdrawId",
          "type": "uint256"
        },
        {
          "indexed": true,
          "internalType": "uint256",
          "name": "accountId",
          "type": "uint256"
        },
        {
          "indexed": true,
          "internalType": "uint8",
          "name": "actionType",
          "type": "uint8"
        },
        {
          "indexed": false,
          "internalType": "address",
          "name": "token",
          "type": "address"
        },
        {
          "indexed": false,
          "internalType": "uint256",
          "name": "amount",
          "type": "uint256"
        },
        {
          "indexed": false,
          "internalType": "address",
          "name": "recipient",
          "type": "address"
        },
        {
          "indexed": false,
          "internalType": "uint256",
          "name": "expireTime",
          "type": "uint256"
        }
      ],
      "name": "TokenWithdrawedV2",
      "type": "event"
    },
    {
      "anonymous": false,
      "inputs": [
        {
          "indexed": false,
          "internalType": "address",
          "name": "account",
          "type": "address"
        }
      ],
      "name": "Unpaused",
      "type": "event"
    },
    {
      "inputs": [],
      "name": "DEFAULT_ADMIN_ROLE",
      "outputs": [
        {
          "internalType": "bytes32",
          "name": "",
          "type": "bytes32"
        }
      ],
      "stateMutability": "view",
      "type": "function"
    },
    {
      "inputs": [],
      "name": "GUARDIAN",
      "outputs": [
        {
          "internalType": "bytes32",
          "name": "",
          "type": "bytes32"
        }
      ],
      "stateMutability": "view",
      "type": "function"
    },
    {
      "inputs": [],
      "name": "SIGNER",
      "outputs": [
        {
          "internalType": "bytes32",
          "name": "",
          "type": "bytes32"
        }
      ],
      "stateMutability": "view",
      "type": "function"
    },
    {
      "inputs": [
        {
          "components": [
            {
              "internalType": "uint256",
              "name": "claimId",
              "type": "uint256"
            },
            {
              "internalType": "uint256",
              "name": "projectId",
              "type": "uint256"
            },
            {
              "internalType": "address",
              "name": "token",
              "type": "address"
            },
            {
              "internalType": "uint256",
              "name": "amount",
              "type": "uint256"
            },
            {
              "internalType": "address",
              "name": "recipient",
              "type": "address"
            },
            {
              "internalType": "uint256",
              "name": "expireTime",
              "type": "uint256"
            },
            {
              "internalType": "bytes",
              "name": "signature",
              "type": "bytes"
            }
          ],
          "internalType": "struct IRewardVault.ClaimParam",
          "name": "claimParam",
          "type": "tuple"
        }
      ],
      "name": "claim",
      "outputs": [],
      "stateMutability": "nonpayable",
      "type": "function"
    },
    {
      "inputs": [
        {
          "components": [
            {
              "internalType": "uint256",
              "name": "depositId",
              "type": "uint256"
            },
            {
              "internalType": "uint256",
              "name": "projectId",
              "type": "uint256"
            },
            {
              "internalType": "address",
              "name": "token",
              "type": "address"
            },
            {
              "internalType": "uint256",
              "name": "amount",
              "type": "uint256"
            },
            {
              "internalType": "uint256",
              "name": "expireTime",
              "type": "uint256"
            },
            {
              "internalType": "bytes",
              "name": "signature",
              "type": "bytes"
            }
          ],
          "internalType": "struct IRewardVault.DepositParam",
          "name": "depositParam",
          "type": "tuple"
        }
      ],
      "name": "deposit",
      "outputs": [],
      "stateMutability": "payable",
      "type": "function"
    },
    {
      "inputs": [],
      "name": "eip712Domain",
      "outputs": [
        {
          "internalType": "bytes1",
          "name": "fields",
          "type": "bytes1"
        },
        {
          "internalType": "string",
          "name": "name",
          "type": "string"
        },
        {
          "internalType": "string",
          "name": "version",
          "type": "string"
        },
        {
          "internalType": "uint256",
          "name": "chainId",
          "type": "uint256"
        },
        {
          "internalType": "address",
          "name": "verifyingContract",
          "type": "address"
        },
        {
          "internalType": "bytes32",
          "name": "salt",
          "type": "bytes32"
        },
        {
          "internalType": "uint256[]",
          "name": "extensions",
          "type": "uint256[]"
        }
      ],
      "stateMutability": "view",
      "type": "function"
    },
    {
      "inputs": [
        {
          "internalType": "uint256",
          "name": "requestId",
          "type": "uint256"
        }
      ],
      "name": "getIsRequestIdUsed",
      "outputs": [
        {
          "internalType": "bool",
          "name": "",
          "type": "bool"
        }
      ],
      "stateMutability": "view",
      "type": "function"
    },
    {
      "inputs": [
        {
          "internalType": "bytes32",
          "name": "role",
          "type": "bytes32"
        }
      ],
      "name": "getRoleAdmin",
      "outputs": [
        {
          "internalType": "bytes32",
          "name": "",
          "type": "bytes32"
        }
      ],
      "stateMutability": "view",
      "type": "function"
    },
    {
      "inputs": [
        {
          "internalType": "bytes32",
          "name": "role",
          "type": "bytes32"
        },
        {
          "internalType": "address",
          "name": "account",
          "type": "address"
        }
      ],
      "name": "grantRole",
      "outputs": [],
      "stateMutability": "nonpayable",
      "type": "function"
    },
    {
      "inputs": [
        {
          "internalType": "bytes32",
          "name": "role",
          "type": "bytes32"
        },
        {
          "internalType": "address",
          "name": "account",
          "type": "address"
        }
      ],
      "name": "hasRole",
      "outputs": [
        {
          "internalType": "bool",
          "name": "",
          "type": "bool"
        }
      ],
      "stateMutability": "view",
      "type": "function"
    },
    {
      "inputs": [
        {
          "internalType": "address",
          "name": "initialOwner",
          "type": "address"
        }
      ],
      "name": "initialize",
      "outputs": [],
      "stateMutability": "nonpayable",
      "type": "function"
    },
    {
      "inputs": [],
      "name": "owner",
      "outputs": [
        {
          "internalType": "address",
          "name": "",
          "type": "address"
        }
      ],
      "stateMutability": "view",
      "type": "function"
    },
    {
      "inputs": [],
      "name": "pause",
      "outputs": [],
      "stateMutability": "nonpayable",
      "type": "function"
    },
    {
      "inputs": [],
      "name": "paused",
      "outputs": [
        {
          "internalType": "bool",
          "name": "",
          "type": "bool"
        }
      ],
      "stateMutability": "view",
      "type": "function"
    },
    {
      "inputs": [],
      "name": "renounceOwnership",
      "outputs": [],
      "stateMutability": "nonpayable",
      "type": "function"
    },
    {
      "inputs": [
        {
          "internalType": "bytes32",
          "name": "role",
          "type": "bytes32"
        },
        {
          "internalType": "address",
          "name": "callerConfirmation",
          "type": "address"
        }
      ],
      "name": "renounceRole",
      "outputs": [],
      "stateMutability": "nonpayable",
      "type": "function"
    },
    {
      "inputs": [
        {
          "internalType": "bytes32",
          "name": "role",
          "type": "bytes32"
        },
        {
          "internalType": "address",
          "name": "account",
          "type": "address"
        }
      ],
      "name": "revokeRole",
      "outputs": [],
      "stateMutability": "nonpayable",
      "type": "function"
    },
    {
      "inputs": [
        {
          "internalType": "bytes4",
          "name": "interfaceId",
          "type": "bytes4"
        }
      ],
      "name": "supportsInterface",
      "outputs": [
        {
          "internalType": "bool",
          "name": "",
          "type": "bool"
        }
      ],
      "stateMutability": "view",
      "type": "function"
    },
    {
      "inputs": [
        {
          "internalType": "address",
          "name": "newOwner",
          "type": "address"
        }
      ],
      "name": "transferOwnership",
      "outputs": [],
      "stateMutability": "nonpayable",
      "type": "function"
    },
    {
      "inputs": [],
      "name": "unpause",
      "outputs": [],
      "stateMutability": "nonpayable",
      "type": "function"
    },
    {
      "inputs": [
        {
          "components": [
            {
              "internalType": "uint256",
              "name": "withdrawId",
              "type": "uint256"
            },
            {
              "internalType": "uint256",
              "name": "projectId",
              "type": "uint256"
            },
            {
              "internalType": "address",
              "name": "token",
              "type": "address"
            },
            {
              "internalType": "uint256",
              "name": "amount",
              "type": "uint256"
            },
            {
              "internalType": "address",
              "name": "recipient",
              "type": "address"
            },
            {
              "internalType": "uint256",
              "name": "expireTime",
              "type": "uint256"
            },
            {
              "internalType": "bytes",
              "name": "signature",
              "type": "bytes"
            }
          ],
          "internalType": "struct IRewardVault.WithdrawalParam",
          "name": "withdrawalParam",
          "type": "tuple"
        }
      ],
      "name": "withdraw",
      "outputs": [],
      "stateMutability": "nonpayable",
      "type": "function"
    },
    {
      "inputs": [
        {
          "internalType": "address",
          "name": "token",
          "type": "address"
        },
        {
          "internalType": "uint256",
          "name": "amount",
          "type": "uint256"
        },
        {
          "internalType": "address",
          "name": "recipient",
          "type": "address"
        }
      ],
      "name": "withdrawExcessTokens",
      "outputs": [],
      "stateMutability": "nonpayable",
      "type": "function"
    },
    {
      "inputs": [
        {
          "components": [
            {
              "internalType": "uint256",
              "name": "withdrawId",
              "type": "uint256"
            },
            {
              "internalType": "uint256",
              "name": "accountId",
              "type": "uint256"
            },
            {
              "internalType": "uint8",
              "name": "actionType",
              "type": "uint8"
            },
            {
              "internalType": "address",
              "name": "token",
              "type": "address"
            },
            {
              "internalType": "uint256",
              "name": "amount",
              "type": "uint256"
            },
            {
              "internalType": "address",
              "name": "recipient",
              "type": "address"
            },
            {
              "internalType": "uint256",
              "name": "expireTime",
              "type": "uint256"
            },
            {
              "internalType": "bytes",
              "name": "signature",
              "type": "bytes"
            }
          ],
          "internalType": "struct IRewardVault.WithdrawalParamV2",
          "name": "withdrawalParam",
          "type": "tuple"
        }
      ],
      "name": "withdrawV2",
      "outputs": [],
      "stateMutability": "nonpayable",
      "type": "function"
    }
  ],
  "bytecode": "0x608060405234801561001057600080fd5b50614427806100206000396000f3fe6080604052600436106101405760003560e01c806386cf14ae116100b6578063c4d66de81161006f578063c4d66de81461041d578063c55cd85214610446578063d547741f1461046f578063ddbb888914610498578063eede9881146104c1578063f2fde38b146104ea57610140565b806386cf14ae146103085780638da5cb5b146103315780638f39a8521461035c57806391d1485414610378578063a217fddf146103b5578063ae102a1b146103e057610140565b8063582abd1211610108578063582abd12146102285780635c975abb14610253578063715018a61461027e578063724c184c146102955780638456cb59146102c057806384b0196e146102d757610140565b806301ffc9a714610145578063248a9ca3146101825780632f2ff15d146101bf57806336568abe146101e85780633f4ba83a14610211575b600080fd5b34801561015157600080fd5b5061016c60048036038101906101679190612fed565b610513565b6040516101799190613035565b60405180910390f35b34801561018e57600080fd5b506101a960048036038101906101a49190613086565b61058d565b6040516101b691906130c2565b60405180910390f35b3480156101cb57600080fd5b506101e660048036038101906101e1919061313b565b6105bb565b005b3480156101f457600080fd5b5061020f600480360381019061020a919061313b565b6105dd565b005b34801561021d57600080fd5b50610226610658565b005b34801561023457600080fd5b5061023d61068d565b60405161024a91906130c2565b60405180910390f35b34801561025f57600080fd5b506102686106b1565b6040516102759190613035565b60405180910390f35b34801561028a57600080fd5b506102936106d6565b005b3480156102a157600080fd5b506102aa6106ea565b6040516102b791906130c2565b60405180910390f35b3480156102cc57600080fd5b506102d561070e565b005b3480156102e357600080fd5b506102ec610743565b6040516102ff979695949392919061332c565b60405180910390f35b34801561031457600080fd5b5061032f600480360381019061032a91906133d4565b610855565b005b34801561033d57600080fd5b50610346610bb8565b604051610353919061341d565b60405180910390f35b61037660048036038101906103719190613457565b610bf0565b005b34801561038457600080fd5b5061039f600480360381019061039a919061313b565b610f5e565b6040516103ac9190613035565b60405180910390f35b3480156103c157600080fd5b506103ca610fd7565b6040516103d791906130c2565b60405180910390f35b3480156103ec57600080fd5b50610407600480360381019061040291906134cc565b610fde565b6040516104149190613035565b60405180910390f35b34801561042957600080fd5b50610444600480360381019061043f91906134f9565b611008565b005b34801561045257600080fd5b5061046d60048036038101906104689190613546565b611238565b005b34801561047b57600080fd5b506104966004803603810190610491919061313b565b6115c5565b005b3480156104a457600080fd5b506104bf60048036038101906104ba91906135ae565b6115e7565b005b3480156104cd57600080fd5b506104e860048036038101906104e391906135f7565b61194a565b005b3480156104f657600080fd5b50610511600480360381019061050c91906134f9565b611a15565b005b60007f7965db0b000000000000000000000000000000000000000000000000000000007bffffffffffffffffffffffffffffffffffffffffffffffffffffffff1916827bffffffffffffffffffffffffffffffffffffffffffffffffffffffff19161480610586575061058582611a9b565b5b9050919050565b600080610598611b05565b905080600001600084815260200190815260200160002060010154915050919050565b6105c48261058d565b6105cd81611b2d565b6105d78383611b41565b50505050565b6105e5611c42565b73ffffffffffffffffffffffffffffffffffffffff168173ffffffffffffffffffffffffffffffffffffffff1614610649576040517f6697b23200000000000000000000000000000000000000000000000000000000815260040160405180910390fd5b6106538282611c4a565b505050565b7f8b5b16d04624687fcf0d0228f19993c9157c1ed07b41d8d430fd9100eb099fe861068281611b2d565b61068a611d4c565b50565b7f2aeb38be3df14d720aeb10a2de6df09b0fb3cd5c5ec256283a22d4593110ca4081565b6000806106bc611dbe565b90508060000160009054906101000a900460ff1691505090565b6106de611de6565b6106e86000611e6d565b565b7f8b5b16d04624687fcf0d0228f19993c9157c1ed07b41d8d430fd9100eb099fe881565b7f8b5b16d04624687fcf0d0228f19993c9157c1ed07b41d8d430fd9100eb099fe861073881611b2d565b610740611f44565b50565b6000606080600080600060606000610759611fb6565b90506000801b816000015414801561077757506000801b8160010154145b6107b6576040517f08c379a00000000000000000000000000000000000000000000000000000000081526004016107ad90613696565b60405180910390fd5b6107be611fde565b6107c661207f565b46306000801b600067ffffffffffffffff8111156107e7576107e66136b6565b5b6040519080825280602002602001820160405280156108155781602001602082028036833780820191505090505b507f0f0000000000000000000000000000000000000000000000000000000000000095949392919097509750975097509750975097505090919293949596565b61085d612120565b610865612177565b8060a0013542106108ab576040517f08c379a00000000000000000000000000000000000000000000000000000000081526004016108a290613731565b60405180910390fd5b60006108c88260400160208101906108c391906134f9565b6121b8565b90508160600135811015610911576040517f08c379a00000000000000000000000000000000000000000000000000000000081526004016109089061379d565b60405180910390fd5b60006109a27ff7bf41d14fd0ff1192bfb1dfc33e3161d52079c1015bdf99fe4c9d027674fee08460000135856020013586604001602081019061095491906134f9565b876060013588608001602081019061096c91906134f9565b8960a0013560405160200161098797969594939291906137bd565b604051602081830303815290604052805190602001206121cb565b9050600160008460000135815260200190815260200160002060009054906101000a900460ff1615610a09576040517f08c379a0000000000000000000000000000000000000000000000000000000008152600401610a0090613878565b60405180910390fd5b610a977f2aeb38be3df14d720aeb10a2de6df09b0fb3cd5c5ec256283a22d4593110ca40610a92858060c00190610a4091906138a7565b8080601f016020809104026020016040519081016040528093929190818152602001838380828437600081840152601f19601f82011690508083019250505050505050846121e590919063ffffffff16565b610f5e565b610ad6576040517f08c379a0000000000000000000000000000000000000000000000000000000008152600401610acd90613956565b60405180910390fd5b60018060008560000135815260200190815260200160002060006101000a81548160ff021916908315150217905550610b38836080016020810190610b1b91906134f9565b846040016020810190610b2e91906134f9565b8560600135612211565b826020013583600001357ffc3c5396e9d3deb68be49549ab668592d1b8c31d11c284b480e53986614792ea856040016020810190610b7691906134f9565b8660600135876080016020810190610b8e91906134f9565b8860a00135604051610ba39493929190613976565b60405180910390a35050610bb561230c565b50565b600080610bc3612325565b90508060000160009054906101000a900473ffffffffffffffffffffffffffffffffffffffff1691505090565b610bf8612120565b610c00612177565b80608001354210610c46576040517f08c379a0000000000000000000000000000000000000000000000000000000008152600401610c3d90613731565b60405180910390fd5b6000610cc37f0f137e2eafa9b45b32b2410912df8fa41a95abac5a5a9c7cb2a6ae11296330f483600001358460200135856040016020810190610c8991906134f9565b86606001358760800135604051602001610ca8969594939291906139bb565b604051602081830303815290604052805190602001206121cb565b9050600160008360000135815260200190815260200160002060009054906101000a900460ff1615610d2a576040517f08c379a0000000000000000000000000000000000000000000000000000000008152600401610d2190613878565b60405180910390fd5b610db87f2aeb38be3df14d720aeb10a2de6df09b0fb3cd5c5ec256283a22d4593110ca40610db3848060a00190610d6191906138a7565b8080601f016020809104026020016040519081016040528093929190818152602001838380828437600081840152601f19601f82011690508083019250505050505050846121e590919063ffffffff16565b610f5e565b610df7576040517f08c379a0000000000000000000000000000000000000000000000000000000008152600401610dee90613956565b60405180910390fd5b60018060008460000135815260200190815260200160002060006101000a81548160ff0219169083151502179055506000610e43836040016020810190610e3e91906134f9565b6121b8565b9050610e60836040016020810190610e5b91906134f9565b61234d565b15610e74573481610e719190613a4b565b90505b610e94836040016020810190610e8a91906134f9565b8460600135612399565b610eaf836040016020810190610eaa91906134f9565b61234d565b8015610ebe5750826060013534115b15610ef257610ef13373eeeeeeeeeeeeeeeeeeeeeeeeeeeeeeeeeeeeeeee856060013534610eec9190613a4b565b612211565b5b826020013583600001357fce8b9744d2394e4a278f2a6914ac5d147c9d2b32727418e90a72a01935ea54c4856040016020810190610f3091906134f9565b86606001358760800135604051610f4993929190613a7f565b60405180910390a35050610f5b61230c565b50565b600080610f69611b05565b905080600001600085815260200190815260200160002060000160008473ffffffffffffffffffffffffffffffffffffffff1673ffffffffffffffffffffffffffffffffffffffff16815260200190815260200160002060009054906101000a900460ff1691505092915050565b6000801b81565b60006001600083815260200190815260200160002060009054906101000a900460ff169050919050565b6000611012612464565b905060008160000160089054906101000a900460ff1615905060008260000160009054906101000a900467ffffffffffffffff1690506000808267ffffffffffffffff161480156110605750825b9050600060018367ffffffffffffffff16148015611095575060003073ffffffffffffffffffffffffffffffffffffffff163b145b9050811580156110a3575080155b156110da576040517ff92ee8a900000000000000000000000000000000000000000000000000000000815260040160405180910390fd5b60018560000160006101000a81548167ffffffffffffffff021916908367ffffffffffffffff160217905550831561112a5760018560000160086101000a81548160ff0219169083151502179055505b6111338661248c565b61113b6124a0565b6111436124b2565b61114b6124c4565b6111bf6040518060400160405280601481526020017f62696e616e636520726577617264207661756c740000000000000000000000008152506040518060400160405280600581526020017f302e312e300000000000000000000000000000000000000000000000000000008152506124ce565b6111d36000801b6111ce610bb8565b611b41565b5083156112305760008560000160086101000a81548160ff0219169083151502179055507fc7f505b2f371ae2175ee4913f4499e1f2633a7b5936321eed1cdaeb6115181d260016040516112279190613b0f565b60405180910390a15b505050505050565b611240612120565b611248612177565b8060c00135421061128e576040517f08c379a000000000000000000000000000000000000000000000000000000000815260040161128590613731565b60405180910390fd5b60006112ab8260600160208101906112a691906134f9565b6121b8565b905081608001358110156112f4576040517f08c379a00000000000000000000000000000000000000000000000000000000081526004016112eb9061379d565b60405180910390fd5b60006113997f54d09d00b06180ded2fa2902224f735cdc061ec926b5fc336ce2aeffb2fbd2cf846000013585602001358660400160208101906113379190613b63565b87606001602081019061134a91906134f9565b88608001358960a001602081019061136291906134f9565b8a60c0013560405160200161137e989796959493929190613b9f565b604051602081830303815290604052805190602001206121cb565b9050600160008460000135815260200190815260200160002060009054906101000a900460ff1615611400576040517f08c379a00000000000000000000000000000000000000000000000000000000081526004016113f790613878565b60405180910390fd5b61148e7f2aeb38be3df14d720aeb10a2de6df09b0fb3cd5c5ec256283a22d4593110ca40611489858060e0019061143791906138a7565b8080601f016020809104026020016040519081016040528093929190818152602001838380828437600081840152601f19601f82011690508083019250505050505050846121e590919063ffffffff16565b610f5e565b6114cd576040517f08c379a00000000000000000000000000000000000000000000000000000000081526004016114c490613956565b60405180910390fd5b60018060008560000135815260200190815260200160002060006101000a81548160ff02191690831515021790555061152f8360a001602081019061151291906134f9565b84606001602081019061152591906134f9565b8560800135612211565b8260400160208101906115429190613b63565b60ff16836020013584600001357fc5a073e1332ca0eff9d913f541ea5d7d1a7d8cb2dc0cc5b20d08299e89d6e6f186606001602081019061158391906134f9565b87608001358860a001602081019061159b91906134f9565b8960c001356040516115b09493929190613976565b60405180910390a450506115c261230c565b50565b6115ce8261058d565b6115d781611b2d565b6115e18383611c4a565b50505050565b6115ef612120565b6115f7612177565b8060a00135421061163d576040517f08c379a000000000000000000000000000000000000000000000000000000000815260040161163490613c69565b60405180910390fd5b600061165a82604001602081019061165591906134f9565b6121b8565b905081606001358110156116a3576040517f08c379a000000000000000000000000000000000000000000000000000000000815260040161169a9061379d565b60405180910390fd5b60006117347f3f4e709c1ebeaa3efcb0bdd2f68417cb2d4b99a3dc3b24e4353ce5f6bf8e3369846000013585602001358660400160208101906116e691906134f9565b87606001358860800160208101906116fe91906134f9565b8960a0013560405160200161171997969594939291906137bd565b604051602081830303815290604052805190602001206121cb565b9050600160008460000135815260200190815260200160002060009054906101000a900460ff161561179b576040517f08c379a000000000000000000000000000000000000000000000000000000000815260040161179290613878565b60405180910390fd5b6118297f2aeb38be3df14d720aeb10a2de6df09b0fb3cd5c5ec256283a22d4593110ca40611824858060c001906117d291906138a7565b8080601f016020809104026020016040519081016040528093929190818152602001838380828437600081840152601f19601f82011690508083019250505050505050846121e590919063ffffffff16565b610f5e565b611868576040517f08c379a000000000000000000000000000000000000000000000000000000000815260040161185f90613956565b60405180910390fd5b60018060008560000135815260200190815260200160002060006101000a81548160ff0219169083151502179055506118ca8360800160208101906118ad91906134f9565b8460400160208101906118c091906134f9565b8560600135612211565b826020013583600001357f24073d699b5c164d11eaef97cdabe1bcd2e867d1806aad0cbffd0fff9293643a85604001602081019061190891906134f9565b866060013587608001602081019061192091906134f9565b8860a001356040516119359493929190613976565b60405180910390a3505061194761230c565b50565b611952611de6565b61195d818484612211565b600073ffffffffffffffffffffffffffffffffffffffff168173ffffffffffffffffffffffffffffffffffffffff16036119cc576040517f08c379a00000000000000000000000000000000000000000000000000000000081526004016119c390613cd5565b60405180910390fd5b7fcb771cd08d53de3a42aa78693ae8a3554442b3b630d53f3a457fb3859c547d796119f5610bb8565b828585604051611a089493929190613cf5565b60405180910390a1505050565b611a1d611de6565b600073ffffffffffffffffffffffffffffffffffffffff168173ffffffffffffffffffffffffffffffffffffffff1603611a8f5760006040517f1e4fbdf7000000000000000000000000000000000000000000000000000000008152600401611a86919061341d565b60405180910390fd5b611a9881611e6d565b50565b60007f01ffc9a7000000000000000000000000000000000000000000000000000000007bffffffffffffffffffffffffffffffffffffffffffffffffffffffff1916827bffffffffffffffffffffffffffffffffffffffffffffffffffffffff1916149050919050565b60007f02dd7bc7dec4dceedda775e58dd541e08a116c6c53815c0bd028192f7b626800905090565b611b3e81611b39611c42565b6124e4565b50565b600080611b4c611b05565b9050611b588484610f5e565b611c3657600181600001600086815260200190815260200160002060000160008573ffffffffffffffffffffffffffffffffffffffff1673ffffffffffffffffffffffffffffffffffffffff16815260200190815260200160002060006101000a81548160ff021916908315150217905550611bd2611c42565b73ffffffffffffffffffffffffffffffffffffffff168373ffffffffffffffffffffffffffffffffffffffff16857f2f8788117e7eff1d82e926ec794901d17c78024a50270940304540a733656f0d60405160405180910390a46001915050611c3c565b60009150505b92915050565b600033905090565b600080611c55611b05565b9050611c618484610f5e565b15611d4057600081600001600086815260200190815260200160002060000160008573ffffffffffffffffffffffffffffffffffffffff1673ffffffffffffffffffffffffffffffffffffffff16815260200190815260200160002060006101000a81548160ff021916908315150217905550611cdc611c42565b73ffffffffffffffffffffffffffffffffffffffff168373ffffffffffffffffffffffffffffffffffffffff16857ff6391f5c32d9c69d2a47ea670b442974b53935d1edc7fd64eb21e047a839171b60405160405180910390a46001915050611d46565b60009150505b92915050565b611d54612535565b6000611d5e611dbe565b905060008160000160006101000a81548160ff0219169083151502179055507f5db9ee0a495bf2e6ff9c91a7834c1ba4fdd244a5e8aa4e537bd38aeae4b073aa611da6611c42565b604051611db3919061341d565b60405180910390a150565b60007fcd5ed15c6e187e77e9aee88184c21f4f2182ab5827cb3b7e07fbedcd63f03300905090565b611dee611c42565b73ffffffffffffffffffffffffffffffffffffffff16611e0c610bb8565b73ffffffffffffffffffffffffffffffffffffffff1614611e6b57611e2f611c42565b6040517f118cdaa7000000000000000000000000000000000000000000000000000000008152600401611e62919061341d565b60405180910390fd5b565b6000611e77612325565b905060008160000160009054906101000a900473ffffffffffffffffffffffffffffffffffffffff169050828260000160006101000a81548173ffffffffffffffffffffffffffffffffffffffff021916908373ffffffffffffffffffffffffffffffffffffffff1602179055508273ffffffffffffffffffffffffffffffffffffffff168173ffffffffffffffffffffffffffffffffffffffff167f8be0079c531659141344cd1fd0a4f28419497f9722a3daafe3b4186f6b6457e060405160405180910390a3505050565b611f4c612177565b6000611f56611dbe565b905060018160000160006101000a81548160ff0219169083151502179055507f62e78cea01bee320cd4e420270b5ea74000d11b0c9f74754ebdbfc544b05a258611f9e611c42565b604051611fab919061341d565b60405180910390a150565b60007fa16a46d94261c7517cc8ff89f61c0ce93598e3c849801011dee649a6a557d100905090565b60606000611fea611fb6565b9050806002018054611ffb90613d69565b80601f016020809104026020016040519081016040528092919081815260200182805461202790613d69565b80156120745780601f1061204957610100808354040283529160200191612074565b820191906000526020600020905b81548152906001019060200180831161205757829003601f168201915b505050505091505090565b6060600061208b611fb6565b905080600301805461209c90613d69565b80601f01602080910402602001604051908101604052809291908181526020018280546120c890613d69565b80156121155780601f106120ea57610100808354040283529160200191612115565b820191906000526020600020905b8154815290600101906020018083116120f857829003601f168201915b505050505091505090565b600061212a612575565b9050600281600001540361216a576040517f3ee5aeb500000000000000000000000000000000000000000000000000000000815260040160405180910390fd5b6002816000018190555050565b61217f6106b1565b156121b6576040517fd93c066500000000000000000000000000000000000000000000000000000000815260040160405180910390fd5b565b60006121c4823061259d565b9050919050565b60006121de6121d861264c565b8361265b565b9050919050565b6000806000806121f5868661269c565b92509250925061220582826126f8565b82935050505092915050565b6000811115612307576122238261234d565b156122da5760008373ffffffffffffffffffffffffffffffffffffffff168260405161224e90613dcb565b60006040518083038185875af1925050503d806000811461228b576040519150601f19603f3d011682016040523d82523d6000602084013e612290565b606091505b50509050806122d4576040517f08c379a00000000000000000000000000000000000000000000000000000000081526004016122cb90613e2c565b60405180910390fd5b50612306565b61230583828473ffffffffffffffffffffffffffffffffffffffff1661285c9092919063ffffffff16565b5b5b505050565b6000612316612575565b90506001816000018190555050565b60007f9016d09d72d40fdae2fd8ceac6b6234c7706214fd39c1cd1e609a0528c199300905090565b600073eeeeeeeeeeeeeeeeeeeeeeeeeeeeeeeeeeeeeeee73ffffffffffffffffffffffffffffffffffffffff168273ffffffffffffffffffffffffffffffffffffffff16149050919050565b600081116123dc576040517f08c379a00000000000000000000000000000000000000000000000000000000081526004016123d390613e98565b60405180910390fd5b6123e58261234d565b15612432578034101561242d576040517f08c379a000000000000000000000000000000000000000000000000000000000815260040161242490613f04565b60405180910390fd5b612460565b61245f3330838573ffffffffffffffffffffffffffffffffffffffff166128db909392919063ffffffff16565b5b5050565b60007ff0c57e16840df040f15088dc2f81fe391c3923bec73e23a9662efc9c229c6a00905090565b61249461295d565b61249d8161299d565b50565b6124a861295d565b6124b0612a23565b565b6124ba61295d565b6124c2612a57565b565b6124cc61295d565b565b6124d661295d565b6124e08282612a78565b5050565b6124ee8282610f5e565b6125315780826040517fe2517d3f000000000000000000000000000000000000000000000000000000008152600401612528929190613f24565b60405180910390fd5b5050565b61253d6106b1565b612573576040517f8dfc202b00000000000000000000000000000000000000000000000000000000815260040160405180910390fd5b565b60007f9b779b17422d0df92223018b32b4d1fa46e071723d6817e2486d003becc55f00905090565b60006125a88361234d565b61262b578273ffffffffffffffffffffffffffffffffffffffff166370a08231836040518263ffffffff1660e01b81526004016125e5919061341d565b602060405180830381865afa158015612602573d6000803e3d6000fd5b505050506040513d601f19601f820116820180604052508101906126269190613f62565b612644565b8173ffffffffffffffffffffffffffffffffffffffff16315b905092915050565b6000612656612acd565b905090565b60006040517f190100000000000000000000000000000000000000000000000000000000000081528360028201528260228201526042812091505092915050565b600080600060418451036126e15760008060006020870151925060408701519150606087015160001a90506126d388828585612b31565b9550955095505050506126f1565b60006002855160001b9250925092505b9250925092565b6000600381111561270c5761270b613f8f565b5b82600381111561271f5761271e613f8f565b5b0315612858576001600381111561273957612738613f8f565b5b82600381111561274c5761274b613f8f565b5b03612783576040517ff645eedf00000000000000000000000000000000000000000000000000000000815260040160405180910390fd5b6002600381111561279757612796613f8f565b5b8260038111156127aa576127a9613f8f565b5b036127ef578060001c6040517ffce698f70000000000000000000000000000000000000000000000000000000081526004016127e69190613fbe565b60405180910390fd5b60038081111561280257612801613f8f565b5b82600381111561281557612814613f8f565b5b0361285757806040517fd78bce0c00000000000000000000000000000000000000000000000000000000815260040161284e91906130c2565b60405180910390fd5b5b5050565b6128d6838473ffffffffffffffffffffffffffffffffffffffff1663a9059cbb858560405160240161288f929190613fd9565b604051602081830303815290604052915060e01b6020820180517bffffffffffffffffffffffffffffffffffffffffffffffffffffffff8381831617835250505050612c25565b505050565b612957848573ffffffffffffffffffffffffffffffffffffffff166323b872dd86868660405160240161291093929190614002565b604051602081830303815290604052915060e01b6020820180517bffffffffffffffffffffffffffffffffffffffffffffffffffffffff8381831617835250505050612c25565b50505050565b612965612cbc565b61299b576040517fd7e6bcf800000000000000000000000000000000000000000000000000000000815260040160405180910390fd5b565b6129a561295d565b600073ffffffffffffffffffffffffffffffffffffffff168173ffffffffffffffffffffffffffffffffffffffff1603612a175760006040517f1e4fbdf7000000000000000000000000000000000000000000000000000000008152600401612a0e919061341d565b60405180910390fd5b612a2081611e6d565b50565b612a2b61295d565b6000612a35611dbe565b905060008160000160006101000a81548160ff02191690831515021790555050565b612a5f61295d565b6000612a69612575565b90506001816000018190555050565b612a8061295d565b6000612a8a611fb6565b905082816002019081612a9d91906141db565b5081816003019081612aaf91906141db565b506000801b81600001819055506000801b8160010181905550505050565b60007f8b73c3c69bb8fe3d512ecc4cf759cc79239f7b179b0ffacaa9a75d522b39400f612af8612cdc565b612b00612d58565b4630604051602001612b169594939291906142ad565b60405160208183030381529060405280519060200120905090565b60008060007f7fffffffffffffffffffffffffffffff5d576e7357a4501ddfe92f46681b20a08460001c1115612b71576000600385925092509250612c1b565b600060018888888860405160008152602001604052604051612b969493929190614300565b6020604051602081039080840390855afa158015612bb8573d6000803e3d6000fd5b505050602060405103519050600073ffffffffffffffffffffffffffffffffffffffff168173ffffffffffffffffffffffffffffffffffffffff1603612c0c57600060016000801b93509350935050612c1b565b8060008060001b935093509350505b9450945094915050565b6000612c50828473ffffffffffffffffffffffffffffffffffffffff16612dd490919063ffffffff16565b90506000815114158015612c75575080806020019051810190612c739190614371565b155b15612cb757826040517f5274afe7000000000000000000000000000000000000000000000000000000008152600401612cae919061341d565b60405180910390fd5b505050565b6000612cc6612464565b60000160089054906101000a900460ff16905090565b600080612ce7611fb6565b90506000612cf3611fde565b9050600081511115612d1057808051906020012092505050612d55565b6000826000015490506000801b8114612d2e57809350505050612d55565b7fc5d2460186f7233c927e7db2dcc703c0e500b653ca82273b7bfad8045d85a47093505050505b90565b600080612d63611fb6565b90506000612d6f61207f565b9050600081511115612d8c57808051906020012092505050612dd1565b6000826001015490506000801b8114612daa57809350505050612dd1565b7fc5d2460186f7233c927e7db2dcc703c0e500b653ca82273b7bfad8045d85a47093505050505b90565b6060612de283836000612dea565b905092915050565b606081471015612e3157306040517fcd786059000000000000000000000000000000000000000000000000000000008152600401612e28919061341d565b60405180910390fd5b6000808573ffffffffffffffffffffffffffffffffffffffff168486604051612e5a91906143da565b60006040518083038185875af1925050503d8060008114612e97576040519150601f19603f3d011682016040523d82523d6000602084013e612e9c565b606091505b5091509150612eac868383612eb7565b925050509392505050565b606082612ecc57612ec782612f46565b612f3e565b60008251148015612ef4575060008473ffffffffffffffffffffffffffffffffffffffff163b145b15612f3657836040517f9996b315000000000000000000000000000000000000000000000000000000008152600401612f2d919061341d565b60405180910390fd5b819050612f3f565b5b9392505050565b600081511115612f595780518082602001fd5b6040517f1425ea4200000000000000000000000000000000000000000000000000000000815260040160405180910390fd5b600080fd5b600080fd5b60007fffffffff0000000000000000000000000000000000000000000000000000000082169050919050565b612fca81612f95565b8114612fd557600080fd5b50565b600081359050612fe781612fc1565b92915050565b60006020828403121561300357613002612f8b565b5b600061301184828501612fd8565b91505092915050565b60008115159050919050565b61302f8161301a565b82525050565b600060208201905061304a6000830184613026565b92915050565b6000819050919050565b61306381613050565b811461306e57600080fd5b50565b6000813590506130808161305a565b92915050565b60006020828403121561309c5761309b612f8b565b5b60006130aa84828501613071565b91505092915050565b6130bc81613050565b82525050565b60006020820190506130d760008301846130b3565b92915050565b600073ffffffffffffffffffffffffffffffffffffffff82169050919050565b6000613108826130dd565b9050919050565b613118816130fd565b811461312357600080fd5b50565b6000813590506131358161310f565b92915050565b6000806040838503121561315257613151612f8b565b5b600061316085828601613071565b925050602061317185828601613126565b9150509250929050565b60007fff0000000000000000000000000000000000000000000000000000000000000082169050919050565b6131b08161317b565b82525050565b600081519050919050565b600082825260208201905092915050565b60005b838110156131f05780820151818401526020810190506131d5565b60008484015250505050565b6000601f19601f8301169050919050565b6000613218826131b6565b61322281856131c1565b93506132328185602086016131d2565b61323b816131fc565b840191505092915050565b6000819050919050565b61325981613246565b82525050565b613268816130fd565b82525050565b600081519050919050565b600082825260208201905092915050565b6000819050602082019050919050565b6132a381613246565b82525050565b60006132b5838361329a565b60208301905092915050565b6000602082019050919050565b60006132d98261326e565b6132e38185613279565b93506132ee8361328a565b8060005b8381101561331f57815161330688826132a9565b9750613311836132c1565b9250506001810190506132f2565b5085935050505092915050565b600060e082019050613341600083018a6131a7565b8181036020830152613353818961320d565b90508181036040830152613367818861320d565b90506133766060830187613250565b613383608083018661325f565b61339060a08301856130b3565b81810360c08301526133a281846132ce565b905098975050505050505050565b600080fd5b600060e082840312156133cb576133ca6133b0565b5b81905092915050565b6000602082840312156133ea576133e9612f8b565b5b600082013567ffffffffffffffff81111561340857613407612f90565b5b613414848285016133b5565b91505092915050565b6000602082019050613432600083018461325f565b92915050565b600060c0828403121561344e5761344d6133b0565b5b81905092915050565b60006020828403121561346d5761346c612f8b565b5b600082013567ffffffffffffffff81111561348b5761348a612f90565b5b61349784828501613438565b91505092915050565b6134a981613246565b81146134b457600080fd5b50565b6000813590506134c6816134a0565b92915050565b6000602082840312156134e2576134e1612f8b565b5b60006134f0848285016134b7565b91505092915050565b60006020828403121561350f5761350e612f8b565b5b600061351d84828501613126565b91505092915050565b6000610100828403121561353d5761353c6133b0565b5b81905092915050565b60006020828403121561355c5761355b612f8b565b5b600082013567ffffffffffffffff81111561357a57613579612f90565b5b61358684828501613526565b91505092915050565b600060e082840312156135a5576135a46133b0565b5b81905092915050565b6000602082840312156135c4576135c3612f8b565b5b600082013567ffffffffffffffff8111156135e2576135e1612f90565b5b6135ee8482850161358f565b91505092915050565b6000806000606084860312156136105761360f612f8b565b5b600061361e86828701613126565b935050602061362f868287016134b7565b925050604061364086828701613126565b9150509250925092565b7f4549503731323a20556e696e697469616c697a65640000000000000000000000600082015250565b60006136806015836131c1565b915061368b8261364a565b602082019050919050565b600060208201905081810360008301526136af81613673565b9050919050565b7f4e487b7100000000000000000000000000000000000000000000000000000000600052604160045260246000fd5b7f5349474e41545552455f45585049525900000000000000000000000000000000600082015250565b600061371b6010836131c1565b9150613726826136e5565b602082019050919050565b6000602082019050818103600083015261374a8161370e565b9050919050565b7f414d4f554e545f4558434545445f42414c414e43450000000000000000000000600082015250565b60006137876015836131c1565b915061379282613751565b602082019050919050565b600060208201905081810360008301526137b68161377a565b9050919050565b600060e0820190506137d2600083018a6130b3565b6137df6020830189613250565b6137ec6040830188613250565b6137f9606083018761325f565b6138066080830186613250565b61381360a083018561325f565b61382060c0830184613250565b98975050505050505050565b7f5349474e41545552455f555345445f414c524541445900000000000000000000600082015250565b60006138626016836131c1565b915061386d8261382c565b602082019050919050565b6000602082019050818103600083015261389181613855565b9050919050565b600080fd5b600080fd5b600080fd5b600080833560016020038436030381126138c4576138c3613898565b5b80840192508235915067ffffffffffffffff8211156138e6576138e561389d565b5b602083019250600182023603831315613902576139016138a2565b5b509250929050565b7f494e56414c49445f5349474e4552000000000000000000000000000000000000600082015250565b6000613940600e836131c1565b915061394b8261390a565b602082019050919050565b6000602082019050818103600083015261396f81613933565b9050919050565b600060808201905061398b600083018761325f565b6139986020830186613250565b6139a5604083018561325f565b6139b26060830184613250565b95945050505050565b600060c0820190506139d060008301896130b3565b6139dd6020830188613250565b6139ea6040830187613250565b6139f7606083018661325f565b613a046080830185613250565b613a1160a0830184613250565b979650505050505050565b7f4e487b7100000000000000000000000000000000000000000000000000000000600052601160045260246000fd5b6000613a5682613246565b9150613a6183613246565b9250828203905081811115613a7957613a78613a1c565b5b92915050565b6000606082019050613a94600083018661325f565b613aa16020830185613250565b613aae6040830184613250565b949350505050565b6000819050919050565b600067ffffffffffffffff82169050919050565b6000819050919050565b6000613af9613af4613aef84613ab6565b613ad4565b613ac0565b9050919050565b613b0981613ade565b82525050565b6000602082019050613b246000830184613b00565b92915050565b600060ff82169050919050565b613b4081613b2a565b8114613b4b57600080fd5b50565b600081359050613b5d81613b37565b92915050565b600060208284031215613b7957613b78612f8b565b5b6000613b8784828501613b4e565b91505092915050565b613b9981613b2a565b82525050565b600061010082019050613bb5600083018b6130b3565b613bc2602083018a613250565b613bcf6040830189613250565b613bdc6060830188613b90565b613be9608083018761325f565b613bf660a0830186613250565b613c0360c083018561325f565b613c1060e0830184613250565b9998505050505050505050565b7f5349474e41545552452045585049525900000000000000000000000000000000600082015250565b6000613c536010836131c1565b9150613c5e82613c1d565b602082019050919050565b60006020820190508181036000830152613c8281613c46565b9050919050565b7f5a45524f5f524543495049454e54000000000000000000000000000000000000600082015250565b6000613cbf600e836131c1565b9150613cca82613c89565b602082019050919050565b60006020820190508181036000830152613cee81613cb2565b9050919050565b6000608082019050613d0a600083018761325f565b613d17602083018661325f565b613d24604083018561325f565b613d316060830184613250565b95945050505050565b7f4e487b7100000000000000000000000000000000000000000000000000000000600052602260045260246000fd5b60006002820490506001821680613d8157607f821691505b602082108103613d9457613d93613d3a565b5b50919050565b600081905092915050565b50565b6000613db5600083613d9a565b9150613dc082613da5565b600082019050919050565b6000613dd682613da8565b9150819050919050565b7f4e41544956455f544f4b454e5f5452414e534645525f4641494c454400000000600082015250565b6000613e16601c836131c1565b9150613e2182613de0565b602082019050919050565b60006020820190508181036000830152613e4581613e09565b9050919050565b7f5a45524f5f414d4f554e54000000000000000000000000000000000000000000600082015250565b6000613e82600b836131c1565b9150613e8d82613e4c565b602082019050919050565b60006020820190508181036000830152613eb181613e75565b9050919050565b7f494e5355464649454e545f4554485f414d4f554e540000000000000000000000600082015250565b6000613eee6015836131c1565b9150613ef982613eb8565b602082019050919050565b60006020820190508181036000830152613f1d81613ee1565b9050919050565b6000604082019050613f39600083018561325f565b613f4660208301846130b3565b9392505050565b600081519050613f5c816134a0565b92915050565b600060208284031215613f7857613f77612f8b565b5b6000613f8684828501613f4d565b91505092915050565b7f4e487b7100000000000000000000000000000000000000000000000000000000600052602160045260246000fd5b6000602082019050613fd36000830184613250565b92915050565b6000604082019050613fee600083018561325f565b613ffb6020830184613250565b9392505050565b6000606082019050614017600083018661325f565b614024602083018561325f565b6140316040830184613250565b949350505050565b60008190508160005260206000209050919050565b60006020601f8301049050919050565b600082821b905092915050565b60006008830261409b7fffffffffffffffffffffffffffffffffffffffffffffffffffffffffffffffff8261405e565b6140a5868361405e565b95508019841693508086168417925050509392505050565b60006140d86140d36140ce84613246565b613ad4565b613246565b9050919050565b6000819050919050565b6140f2836140bd565b6141066140fe826140df565b84845461406b565b825550505050565b600090565b61411b61410e565b6141268184846140e9565b505050565b5b8181101561414a5761413f600082614113565b60018101905061412c565b5050565b601f82111561418f5761416081614039565b6141698461404e565b81016020851015614178578190505b61418c6141848561404e565b83018261412b565b50505b505050565b600082821c905092915050565b60006141b260001984600802614194565b1980831691505092915050565b60006141cb83836141a1565b9150826002028217905092915050565b6141e4826131b6565b67ffffffffffffffff8111156141fd576141fc6136b6565b5b6142078254613d69565b61421282828561414e565b600060209050601f8311600181146142455760008415614233578287015190505b61423d85826141bf565b8655506142a5565b601f19841661425386614039565b60005b8281101561427b57848901518255600182019150602085019450602081019050614256565b868310156142985784890151614294601f8916826141a1565b8355505b6001600288020188555050505b505050505050565b600060a0820190506142c260008301886130b3565b6142cf60208301876130b3565b6142dc60408301866130b3565b6142e96060830185613250565b6142f6608083018461325f565b9695505050505050565b600060808201905061431560008301876130b3565b6143226020830186613b90565b61432f60408301856130b3565b61433c60608301846130b3565b95945050505050565b61434e8161301a565b811461435957600080fd5b50565b60008151905061436b81614345565b92915050565b60006020828403121561438757614386612f8b565b5b60006143958482850161435c565b91505092915050565b600081519050919050565b60006143b48261439e565b6143be8185613d9a565b93506143ce8185602086016131d2565b80840191505092915050565b60006143e682846143a9565b91508190509291505056fea26469706673582212201dce6489572f87e8c162a723aa55bdfa9235c3421504de8f7c4f554c9fe2a40a64736f6c63430008180033",
  "linkReferences": {},
  "deployedLinkReferences": {}
}